{
	"contracts/Voting.sol": {
		"Voting": {
			"abi": [
				{
					"inputs": [],
					"stateMutability": "nonpayable",
					"type": "constructor"
				},
				{
					"anonymous": false,
					"inputs": [
						{
							"indexed": true,
							"internalType": "uint256",
							"name": "electionId",
							"type": "uint256"
						},
						{
							"indexed": true,
							"internalType": "uint256",
							"name": "CandidateId",
							"type": "uint256"
						},
						{
							"indexed": false,
							"internalType": "string",
							"name": "name",
							"type": "string"
						}
					],
					"name": "CandidateAdded",
					"type": "event"
				},
				{
					"anonymous": false,
					"inputs": [
						{
							"indexed": true,
							"internalType": "uint256",
							"name": "electionId",
							"type": "uint256"
						},
						{
							"indexed": false,
							"internalType": "string",
							"name": "name",
							"type": "string"
						},
						{
							"indexed": false,
							"internalType": "uint256",
							"name": "endTime",
							"type": "uint256"
						}
					],
					"name": "ElectionCreated",
					"type": "event"
				},
				{
					"anonymous": false,
					"inputs": [
						{
							"indexed": true,
							"internalType": "uint256",
							"name": "electionId",
							"type": "uint256"
						},
						{
							"indexed": true,
							"internalType": "uint256",
							"name": "winnderId",
							"type": "uint256"
						},
						{
							"indexed": false,
							"internalType": "string",
							"name": "winnerName",
							"type": "string"
						},
						{
							"indexed": false,
							"internalType": "uint256",
							"name": "voteCount",
							"type": "uint256"
						}
					],
					"name": "ElectionEnded",
					"type": "event"
				},
				{
					"anonymous": false,
					"inputs": [
						{
							"indexed": true,
							"internalType": "uint256",
							"name": "electionId",
							"type": "uint256"
						},
						{
							"indexed": true,
							"internalType": "uint256",
							"name": "candidateId",
							"type": "uint256"
						}
					],
					"name": "VoteCast",
					"type": "event"
				},
				{
					"inputs": [
						{
							"internalType": "uint256",
							"name": "_electionId",
							"type": "uint256"
						},
						{
							"internalType": "string",
							"name": "_name",
							"type": "string"
						}
					],
					"name": "addCandidate",
					"outputs": [],
					"stateMutability": "nonpayable",
					"type": "function"
				},
				{
					"inputs": [],
					"name": "admin",
					"outputs": [
						{
							"internalType": "address",
							"name": "",
							"type": "address"
						}
					],
					"stateMutability": "view",
					"type": "function"
				},
				{
					"inputs": [
						{
							"internalType": "string",
							"name": "_name",
							"type": "string"
						},
						{
							"internalType": "uint256",
							"name": "_duration",
							"type": "uint256"
						}
					],
					"name": "createElection",
					"outputs": [],
					"stateMutability": "nonpayable",
					"type": "function"
				},
				{
					"inputs": [],
					"name": "electionCount",
					"outputs": [
						{
							"internalType": "uint256",
							"name": "",
							"type": "uint256"
						}
					],
					"stateMutability": "view",
					"type": "function"
				},
				{
					"inputs": [
						{
							"internalType": "uint256",
							"name": "",
							"type": "uint256"
						}
					],
					"name": "elections",
					"outputs": [
						{
							"internalType": "uint256",
							"name": "id",
							"type": "uint256"
						},
						{
							"internalType": "string",
							"name": "name",
							"type": "string"
						},
						{
							"internalType": "bool",
							"name": "isActive",
							"type": "bool"
						},
						{
							"internalType": "uint256",
							"name": "endTime",
							"type": "uint256"
						},
						{
							"internalType": "uint256",
							"name": "candidateCount",
							"type": "uint256"
						},
						{
							"internalType": "uint256",
							"name": "totalVotes",
							"type": "uint256"
						}
					],
					"stateMutability": "view",
					"type": "function"
				},
				{
					"inputs": [
						{
							"internalType": "uint256",
							"name": "_electionId",
							"type": "uint256"
						}
					],
					"name": "endElection",
					"outputs": [],
					"stateMutability": "nonpayable",
					"type": "function"
				},
				{
					"inputs": [
						{
							"internalType": "uint256",
							"name": "_electionId",
							"type": "uint256"
						},
						{
							"internalType": "uint256",
							"name": "_candidateId",
							"type": "uint256"
						}
					],
					"name": "getCandidate",
					"outputs": [
						{
							"internalType": "string",
							"name": "",
							"type": "string"
						},
						{
							"internalType": "uint256",
							"name": "",
							"type": "uint256"
						}
					],
					"stateMutability": "view",
					"type": "function"
				},
				{
					"inputs": [
						{
							"internalType": "uint256",
							"name": "_electionId",
							"type": "uint256"
						}
					],
					"name": "getTotalVotes",
					"outputs": [
						{
							"internalType": "uint256",
							"name": "",
							"type": "uint256"
						}
					],
					"stateMutability": "view",
					"type": "function"
				},
				{
					"inputs": [
						{
							"internalType": "uint256",
							"name": "_electionId",
							"type": "uint256"
						}
					],
					"name": "getWinner",
					"outputs": [
						{
							"internalType": "string",
							"name": "winnerName",
							"type": "string"
						},
						{
							"internalType": "uint256",
							"name": "winnerVoteCount",
							"type": "uint256"
						}
					],
					"stateMutability": "view",
					"type": "function"
				},
				{
					"inputs": [
						{
							"internalType": "uint256",
							"name": "_electionId",
							"type": "uint256"
						},
						{
							"internalType": "uint256",
							"name": "_candidateId",
							"type": "uint256"
						}
					],
					"name": "vote",
					"outputs": [],
					"stateMutability": "nonpayable",
					"type": "function"
				}
			],
			"devdoc": {
				"kind": "dev",
				"methods": {},
				"version": 1
			},
			"evm": {
				"assembly": "    /* \"contracts/Voting.sol\":61:4800  contract Voting{... */\n  mstore(0x40, 0x80)\n    /* \"contracts/Voting.sol\":1509:1559  constructor(){... */\n  callvalue\n  dup1\n  iszero\n  tag_1\n  jumpi\n  0x00\n  dup1\n  revert\ntag_1:\n  pop\n    /* \"contracts/Voting.sol\":1541:1551  msg.sender */\n  caller\n    /* \"contracts/Voting.sol\":1533:1538  admin */\n  0x00\n  dup1\n    /* \"contracts/Voting.sol\":1533:1551  admin = msg.sender */\n  0x0100\n  exp\n  dup2\n  sload\n  dup2\n  0xffffffffffffffffffffffffffffffffffffffff\n  mul\n  not\n  and\n  swap1\n  dup4\n  0xffffffffffffffffffffffffffffffffffffffff\n  and\n  mul\n  or\n  swap1\n  sstore\n  pop\n    /* \"contracts/Voting.sol\":61:4800  contract Voting{... */\n  dataSize(sub_0)\n  dup1\n  dataOffset(sub_0)\n  0x00\n  codecopy\n  0x00\n  return\nstop\n\nsub_0: assembly {\n        /* \"contracts/Voting.sol\":61:4800  contract Voting{... */\n      mstore(0x40, 0x80)\n      callvalue\n      dup1\n      iszero\n      tag_1\n      jumpi\n      0x00\n      dup1\n      revert\n    tag_1:\n      pop\n      jumpi(tag_2, lt(calldatasize, 0x04))\n      shr(0xe0, calldataload(0x00))\n      dup1\n      0x5e6fef01\n      gt\n      tag_13\n      jumpi\n      dup1\n      0x5e6fef01\n      eq\n      tag_8\n      jumpi\n      dup1\n      0x997d2830\n      eq\n      tag_9\n      jumpi\n      dup1\n      0x9c98bcbb\n      eq\n      tag_10\n      jumpi\n      dup1\n      0xb384abef\n      eq\n      tag_11\n      jumpi\n      dup1\n      0xf851a440\n      eq\n      tag_12\n      jumpi\n      jump(tag_2)\n    tag_13:\n      dup1\n      0x1750a3d0\n      eq\n      tag_3\n      jumpi\n      dup1\n      0x2ce35e11\n      eq\n      tag_4\n      jumpi\n      dup1\n      0x4129b2c9\n      eq\n      tag_5\n      jumpi\n      dup1\n      0x432cf2ce\n      eq\n      tag_6\n      jumpi\n      dup1\n      0x4bd46448\n      eq\n      tag_7\n      jumpi\n    tag_2:\n      0x00\n      dup1\n      revert\n        /* \"contracts/Voting.sol\":1984:2400  function addCandidate(uint _electionId, string memory _name) public onlyAdmin electionExist(_electionId) electionActive(_electionId){... */\n    tag_3:\n      tag_14\n      0x04\n      dup1\n      calldatasize\n      sub\n      dup2\n      add\n      swap1\n      tag_15\n      swap2\n      swap1\n      tag_16\n      jump\t// in\n    tag_15:\n      tag_17\n      jump\t// in\n    tag_14:\n      stop\n        /* \"contracts/Voting.sol\":4005:4157  function getTotalVotes(uint _electionId) public view electionExist(_electionId) returns(uint){... */\n    tag_4:\n      tag_18\n      0x04\n      dup1\n      calldatasize\n      sub\n      dup2\n      add\n      swap1\n      tag_19\n      swap2\n      swap1\n      tag_20\n      jump\t// in\n    tag_19:\n      tag_21\n      jump\t// in\n    tag_18:\n      mload(0x40)\n      tag_22\n      swap2\n      swap1\n      tag_23\n      jump\t// in\n    tag_22:\n      mload(0x40)\n      dup1\n      swap2\n      sub\n      swap1\n      return\n        /* \"contracts/Voting.sol\":4165:4795  function getWinner(uint _electionId) public view electionExist(_electionId) returns(string memory winnerName, uint winnerVoteCount){... */\n    tag_5:\n      tag_24\n      0x04\n      dup1\n      calldatasize\n      sub\n      dup2\n      add\n      swap1\n      tag_25\n      swap2\n      swap1\n      tag_20\n      jump\t// in\n    tag_25:\n      tag_26\n      jump\t// in\n    tag_24:\n      mload(0x40)\n      tag_27\n      swap3\n      swap2\n      swap1\n      tag_28\n      jump\t// in\n    tag_27:\n      mload(0x40)\n      dup1\n      swap2\n      sub\n      swap1\n      return\n        /* \"contracts/Voting.sol\":1567:1976  function createElection(string memory _name, uint _duration) public onlyAdmin{... */\n    tag_6:\n      tag_29\n      0x04\n      dup1\n      calldatasize\n      sub\n      dup2\n      add\n      swap1\n      tag_30\n      swap2\n      swap1\n      tag_31\n      jump\t// in\n    tag_30:\n      tag_32\n      jump\t// in\n    tag_29:\n      stop\n        /* \"contracts/Voting.sol\":3670:3997  function getCandidate(uint _electionId, uint _candidateId) public view electionExist(_electionId) returns (string memory, uint){... */\n    tag_7:\n      tag_33\n      0x04\n      dup1\n      calldatasize\n      sub\n      dup2\n      add\n      swap1\n      tag_34\n      swap2\n      swap1\n      tag_35\n      jump\t// in\n    tag_34:\n      tag_36\n      jump\t// in\n    tag_33:\n      mload(0x40)\n      tag_37\n      swap3\n      swap2\n      swap1\n      tag_28\n      jump\t// in\n    tag_37:\n      mload(0x40)\n      dup1\n      swap2\n      sub\n      swap1\n      return\n        /* \"contracts/Voting.sol\":578:620  mapping(uint => Election) public elections */\n    tag_8:\n      tag_38\n      0x04\n      dup1\n      calldatasize\n      sub\n      dup2\n      add\n      swap1\n      tag_39\n      swap2\n      swap1\n      tag_20\n      jump\t// in\n    tag_39:\n      tag_40\n      jump\t// in\n    tag_38:\n      mload(0x40)\n      tag_41\n      swap7\n      swap6\n      swap5\n      swap4\n      swap3\n      swap2\n      swap1\n      tag_42\n      jump\t// in\n    tag_41:\n      mload(0x40)\n      dup1\n      swap2\n      sub\n      swap1\n      return\n        /* \"contracts/Voting.sol\":546:571  uint public electionCount */\n    tag_9:\n      tag_43\n      tag_44\n      jump\t// in\n    tag_43:\n      mload(0x40)\n      tag_45\n      swap2\n      swap1\n      tag_23\n      jump\t// in\n    tag_45:\n      mload(0x40)\n      dup1\n      swap2\n      sub\n      swap1\n      return\n        /* \"contracts/Voting.sol\":2978:3662  function endElection(uint _electionId) public onlyAdmin electionExist(_electionId) electionActive(_electionId){... */\n    tag_10:\n      tag_46\n      0x04\n      dup1\n      calldatasize\n      sub\n      dup2\n      add\n      swap1\n      tag_47\n      swap2\n      swap1\n      tag_20\n      jump\t// in\n    tag_47:\n      tag_48\n      jump\t// in\n    tag_46:\n      stop\n        /* \"contracts/Voting.sol\":2408:2970  function vote(uint _electionId, uint _candidateId) public electionExist(_electionId) electionActive(_electionId){... */\n    tag_11:\n      tag_49\n      0x04\n      dup1\n      calldatasize\n      sub\n      dup2\n      add\n      swap1\n      tag_50\n      swap2\n      swap1\n      tag_35\n      jump\t// in\n    tag_50:\n      tag_51\n      jump\t// in\n    tag_49:\n      stop\n        /* \"contracts/Voting.sol\":519:539  address public admin */\n    tag_12:\n      tag_52\n      tag_53\n      jump\t// in\n    tag_52:\n      mload(0x40)\n      tag_54\n      swap2\n      swap1\n      tag_55\n      jump\t// in\n    tag_54:\n      mload(0x40)\n      dup1\n      swap2\n      sub\n      swap1\n      return\n        /* \"contracts/Voting.sol\":1984:2400  function addCandidate(uint _electionId, string memory _name) public onlyAdmin electionExist(_electionId) electionActive(_electionId){... */\n    tag_17:\n        /* \"contracts/Voting.sol\":1037:1042  admin */\n      0x00\n      dup1\n      sload\n      swap1\n      0x0100\n      exp\n      swap1\n      div\n      0xffffffffffffffffffffffffffffffffffffffff\n      and\n        /* \"contracts/Voting.sol\":1023:1042  msg.sender == admin */\n      0xffffffffffffffffffffffffffffffffffffffff\n      and\n        /* \"contracts/Voting.sol\":1023:1033  msg.sender */\n      caller\n        /* \"contracts/Voting.sol\":1023:1042  msg.sender == admin */\n      0xffffffffffffffffffffffffffffffffffffffff\n      and\n      eq\n        /* \"contracts/Voting.sol\":1015:1084  require(msg.sender == admin, \"Only admin can perform this operation\") */\n      tag_57\n      jumpi\n      mload(0x40)\n      0x08c379a000000000000000000000000000000000000000000000000000000000\n      dup2\n      mstore\n      0x04\n      add\n      tag_58\n      swap1\n      tag_59\n      jump\t// in\n    tag_58:\n      mload(0x40)\n      dup1\n      swap2\n      sub\n      swap1\n      revert\n    tag_57:\n        /* \"contracts/Voting.sol\":2076:2087  _electionId */\n      dup2\n        /* \"contracts/Voting.sol\":1185:1186  0 */\n      0x00\n        /* \"contracts/Voting.sol\":1171:1182  _electionId */\n      dup2\n        /* \"contracts/Voting.sol\":1171:1186  _electionId > 0 */\n      gt\n        /* \"contracts/Voting.sol\":1171:1218  _electionId > 0 && _electionId <= electionCount */\n      dup1\n      iszero\n      tag_61\n      jumpi\n      pop\n        /* \"contracts/Voting.sol\":1205:1218  electionCount */\n      sload(0x01)\n        /* \"contracts/Voting.sol\":1190:1201  _electionId */\n      dup2\n        /* \"contracts/Voting.sol\":1190:1218  _electionId <= electionCount */\n      gt\n      iszero\n        /* \"contracts/Voting.sol\":1171:1218  _electionId > 0 && _electionId <= electionCount */\n    tag_61:\n        /* \"contracts/Voting.sol\":1163:1245  require(_electionId > 0 && _electionId <= electionCount, \"Election doesn't exist\") */\n      tag_62\n      jumpi\n      mload(0x40)\n      0x08c379a000000000000000000000000000000000000000000000000000000000\n      dup2\n      mstore\n      0x04\n      add\n      tag_63\n      swap1\n      tag_64\n      jump\t// in\n    tag_63:\n      mload(0x40)\n      dup1\n      swap2\n      sub\n      swap1\n      revert\n    tag_62:\n        /* \"contracts/Voting.sol\":2104:2115  _electionId */\n      dup3\n        /* \"contracts/Voting.sol\":1333:1342  elections */\n      0x02\n        /* \"contracts/Voting.sol\":1333:1355  elections[_electionId] */\n      0x00\n        /* \"contracts/Voting.sol\":1343:1354  _electionId */\n      dup3\n        /* \"contracts/Voting.sol\":1333:1355  elections[_electionId] */\n      dup2\n      mstore\n      0x20\n      add\n      swap1\n      dup2\n      mstore\n      0x20\n      add\n      0x00\n      keccak256\n        /* \"contracts/Voting.sol\":1333:1364  elections[_electionId].isActive */\n      0x02\n      add\n      0x00\n      swap1\n      sload\n      swap1\n      0x0100\n      exp\n      swap1\n      div\n      0xff\n      and\n        /* \"contracts/Voting.sol\":1325:1391  require(elections[_electionId].isActive, \"Election is not active\") */\n      tag_66\n      jumpi\n      mload(0x40)\n      0x08c379a000000000000000000000000000000000000000000000000000000000\n      dup2\n      mstore\n      0x04\n      add\n      tag_67\n      swap1\n      tag_68\n      jump\t// in\n    tag_67:\n      mload(0x40)\n      dup1\n      swap2\n      sub\n      swap1\n      revert\n    tag_66:\n        /* \"contracts/Voting.sol\":1428:1437  elections */\n      0x02\n        /* \"contracts/Voting.sol\":1428:1450  elections[_electionId] */\n      0x00\n        /* \"contracts/Voting.sol\":1438:1449  _electionId */\n      dup3\n        /* \"contracts/Voting.sol\":1428:1450  elections[_electionId] */\n      dup2\n      mstore\n      0x20\n      add\n      swap1\n      dup2\n      mstore\n      0x20\n      add\n      0x00\n      keccak256\n        /* \"contracts/Voting.sol\":1428:1458  elections[_electionId].endTime */\n      0x03\n      add\n      sload\n        /* \"contracts/Voting.sol\":1410:1425  block.timestamp */\n      timestamp\n        /* \"contracts/Voting.sol\":1410:1458  block.timestamp < elections[_electionId].endTime */\n      lt\n        /* \"contracts/Voting.sol\":1402:1481  require(block.timestamp < elections[_electionId].endTime, \"Election has ended\") */\n      tag_69\n      jumpi\n      mload(0x40)\n      0x08c379a000000000000000000000000000000000000000000000000000000000\n      dup2\n      mstore\n      0x04\n      add\n      tag_70\n      swap1\n      tag_71\n      jump\t// in\n    tag_70:\n      mload(0x40)\n      dup1\n      swap2\n      sub\n      swap1\n      revert\n    tag_69:\n        /* \"contracts/Voting.sol\":2127:2152  Election storage election */\n      0x00\n        /* \"contracts/Voting.sol\":2155:2164  elections */\n      0x02\n        /* \"contracts/Voting.sol\":2155:2177  elections[_electionId] */\n      0x00\n        /* \"contracts/Voting.sol\":2165:2176  _electionId */\n      dup7\n        /* \"contracts/Voting.sol\":2155:2177  elections[_electionId] */\n      dup2\n      mstore\n      0x20\n      add\n      swap1\n      dup2\n      mstore\n      0x20\n      add\n      0x00\n      keccak256\n        /* \"contracts/Voting.sol\":2127:2177  Election storage election = elections[_electionId] */\n      swap1\n      pop\n        /* \"contracts/Voting.sol\":2188:2196  election */\n      dup1\n        /* \"contracts/Voting.sol\":2188:2211  election.candidateCount */\n      0x05\n      add\n      0x00\n        /* \"contracts/Voting.sol\":2188:2213  election.candidateCount++ */\n      dup2\n      sload\n      dup1\n      swap3\n      swap2\n      swap1\n      tag_73\n      swap1\n      tag_74\n      jump\t// in\n    tag_73:\n      swap2\n      swap1\n      pop\n      sstore\n      pop\n        /* \"contracts/Voting.sol\":2271:2315  Candidate(election.candidateCount, _name, 0) */\n      mload(0x40)\n      dup1\n      0x60\n      add\n      0x40\n      mstore\n      dup1\n        /* \"contracts/Voting.sol\":2281:2289  election */\n      dup3\n        /* \"contracts/Voting.sol\":2281:2304  election.candidateCount */\n      0x05\n      add\n      sload\n        /* \"contracts/Voting.sol\":2271:2315  Candidate(election.candidateCount, _name, 0) */\n      dup2\n      mstore\n      0x20\n      add\n        /* \"contracts/Voting.sol\":2306:2311  _name */\n      dup6\n        /* \"contracts/Voting.sol\":2271:2315  Candidate(election.candidateCount, _name, 0) */\n      dup2\n      mstore\n      0x20\n      add\n        /* \"contracts/Voting.sol\":2313:2314  0 */\n      0x00\n        /* \"contracts/Voting.sol\":2271:2315  Candidate(election.candidateCount, _name, 0) */\n      dup2\n      mstore\n      pop\n        /* \"contracts/Voting.sol\":2224:2232  election */\n      dup2\n        /* \"contracts/Voting.sol\":2224:2243  election.candidates */\n      0x04\n      add\n        /* \"contracts/Voting.sol\":2224:2268  election.candidates[election.candidateCount] */\n      0x00\n        /* \"contracts/Voting.sol\":2244:2252  election */\n      dup4\n        /* \"contracts/Voting.sol\":2244:2267  election.candidateCount */\n      0x05\n      add\n      sload\n        /* \"contracts/Voting.sol\":2224:2268  election.candidates[election.candidateCount] */\n      dup2\n      mstore\n      0x20\n      add\n      swap1\n      dup2\n      mstore\n      0x20\n      add\n      0x00\n      keccak256\n        /* \"contracts/Voting.sol\":2224:2315  election.candidates[election.candidateCount] = Candidate(election.candidateCount, _name, 0) */\n      0x00\n      dup3\n      add\n      mload\n      dup2\n      0x00\n      add\n      sstore\n      0x20\n      dup3\n      add\n      mload\n      dup2\n      0x01\n      add\n      swap1\n      dup2\n      tag_75\n      swap2\n      swap1\n      tag_76\n      jump\t// in\n    tag_75:\n      pop\n      0x40\n      dup3\n      add\n      mload\n      dup2\n      0x02\n      add\n      sstore\n      swap1\n      pop\n      pop\n        /* \"contracts/Voting.sol\":2361:2369  election */\n      dup1\n        /* \"contracts/Voting.sol\":2361:2384  election.candidateCount */\n      0x05\n      add\n      sload\n        /* \"contracts/Voting.sol\":2348:2359  _electionId */\n      dup6\n        /* \"contracts/Voting.sol\":2333:2392  CandidateAdded(_electionId, election.candidateCount, _name) */\n      0xed8911b3df733b7d5f75724158e54478ea12e30f49c9d31b5261879f5b76586f\n        /* \"contracts/Voting.sol\":2386:2391  _name */\n      dup7\n        /* \"contracts/Voting.sol\":2333:2392  CandidateAdded(_electionId, election.candidateCount, _name) */\n      mload(0x40)\n      tag_77\n      swap2\n      swap1\n      tag_78\n      jump\t// in\n    tag_77:\n      mload(0x40)\n      dup1\n      swap2\n      sub\n      swap1\n      log3\n        /* \"contracts/Voting.sol\":2116:2400  {... */\n      pop\n        /* \"contracts/Voting.sol\":1256:1257  _ */\n      pop\n        /* \"contracts/Voting.sol\":1095:1096  _ */\n      pop\n        /* \"contracts/Voting.sol\":1984:2400  function addCandidate(uint _electionId, string memory _name) public onlyAdmin electionExist(_electionId) electionActive(_electionId){... */\n      pop\n      pop\n      jump\t// out\n        /* \"contracts/Voting.sol\":4005:4157  function getTotalVotes(uint _electionId) public view electionExist(_electionId) returns(uint){... */\n    tag_21:\n        /* \"contracts/Voting.sol\":4093:4097  uint */\n      0x00\n        /* \"contracts/Voting.sol\":4072:4083  _electionId */\n      dup2\n        /* \"contracts/Voting.sol\":1185:1186  0 */\n      0x00\n        /* \"contracts/Voting.sol\":1171:1182  _electionId */\n      dup2\n        /* \"contracts/Voting.sol\":1171:1186  _electionId > 0 */\n      gt\n        /* \"contracts/Voting.sol\":1171:1218  _electionId > 0 && _electionId <= electionCount */\n      dup1\n      iszero\n      tag_80\n      jumpi\n      pop\n        /* \"contracts/Voting.sol\":1205:1218  electionCount */\n      sload(0x01)\n        /* \"contracts/Voting.sol\":1190:1201  _electionId */\n      dup2\n        /* \"contracts/Voting.sol\":1190:1218  _electionId <= electionCount */\n      gt\n      iszero\n        /* \"contracts/Voting.sol\":1171:1218  _electionId > 0 && _electionId <= electionCount */\n    tag_80:\n        /* \"contracts/Voting.sol\":1163:1245  require(_electionId > 0 && _electionId <= electionCount, \"Election doesn't exist\") */\n      tag_81\n      jumpi\n      mload(0x40)\n      0x08c379a000000000000000000000000000000000000000000000000000000000\n      dup2\n      mstore\n      0x04\n      add\n      tag_82\n      swap1\n      tag_64\n      jump\t// in\n    tag_82:\n      mload(0x40)\n      dup1\n      swap2\n      sub\n      swap1\n      revert\n    tag_81:\n        /* \"contracts/Voting.sol\":4116:4125  elections */\n      0x02\n        /* \"contracts/Voting.sol\":4116:4138  elections[_electionId] */\n      0x00\n        /* \"contracts/Voting.sol\":4126:4137  _electionId */\n      dup5\n        /* \"contracts/Voting.sol\":4116:4138  elections[_electionId] */\n      dup2\n      mstore\n      0x20\n      add\n      swap1\n      dup2\n      mstore\n      0x20\n      add\n      0x00\n      keccak256\n        /* \"contracts/Voting.sol\":4116:4149  elections[_electionId].totalVotes */\n      0x07\n      add\n      sload\n        /* \"contracts/Voting.sol\":4109:4149  return elections[_electionId].totalVotes */\n      swap2\n      pop\n        /* \"contracts/Voting.sol\":4005:4157  function getTotalVotes(uint _electionId) public view electionExist(_electionId) returns(uint){... */\n      pop\n      swap2\n      swap1\n      pop\n      jump\t// out\n        /* \"contracts/Voting.sol\":4165:4795  function getWinner(uint _electionId) public view electionExist(_electionId) returns(string memory winnerName, uint winnerVoteCount){... */\n    tag_26:\n        /* \"contracts/Voting.sol\":4249:4273  string memory winnerName */\n      0x60\n        /* \"contracts/Voting.sol\":4275:4295  uint winnerVoteCount */\n      0x00\n        /* \"contracts/Voting.sol\":4228:4239  _electionId */\n      dup3\n        /* \"contracts/Voting.sol\":1185:1186  0 */\n      0x00\n        /* \"contracts/Voting.sol\":1171:1182  _electionId */\n      dup2\n        /* \"contracts/Voting.sol\":1171:1186  _electionId > 0 */\n      gt\n        /* \"contracts/Voting.sol\":1171:1218  _electionId > 0 && _electionId <= electionCount */\n      dup1\n      iszero\n      tag_85\n      jumpi\n      pop\n        /* \"contracts/Voting.sol\":1205:1218  electionCount */\n      sload(0x01)\n        /* \"contracts/Voting.sol\":1190:1201  _electionId */\n      dup2\n        /* \"contracts/Voting.sol\":1190:1218  _electionId <= electionCount */\n      gt\n      iszero\n        /* \"contracts/Voting.sol\":1171:1218  _electionId > 0 && _electionId <= electionCount */\n    tag_85:\n        /* \"contracts/Voting.sol\":1163:1245  require(_electionId > 0 && _electionId <= electionCount, \"Election doesn't exist\") */\n      tag_86\n      jumpi\n      mload(0x40)\n      0x08c379a000000000000000000000000000000000000000000000000000000000\n      dup2\n      mstore\n      0x04\n      add\n      tag_87\n      swap1\n      tag_64\n      jump\t// in\n    tag_87:\n      mload(0x40)\n      dup1\n      swap2\n      sub\n      swap1\n      revert\n    tag_86:\n        /* \"contracts/Voting.sol\":4307:4332  Election storage election */\n      0x00\n        /* \"contracts/Voting.sol\":4335:4344  elections */\n      0x02\n        /* \"contracts/Voting.sol\":4335:4357  elections[_electionId] */\n      0x00\n        /* \"contracts/Voting.sol\":4345:4356  _electionId */\n      dup7\n        /* \"contracts/Voting.sol\":4335:4357  elections[_electionId] */\n      dup2\n      mstore\n      0x20\n      add\n      swap1\n      dup2\n      mstore\n      0x20\n      add\n      0x00\n      keccak256\n        /* \"contracts/Voting.sol\":4307:4357  Election storage election = elections[_electionId] */\n      swap1\n      pop\n        /* \"contracts/Voting.sol\":4370:4391  uint winningVoteCount */\n      0x00\n        /* \"contracts/Voting.sol\":4406:4429  uint winningCandidateId */\n      dup1\n        /* \"contracts/Voting.sol\":4450:4456  uint i */\n      0x00\n        /* \"contracts/Voting.sol\":4457:4458  1 */\n      0x01\n        /* \"contracts/Voting.sol\":4450:4458  uint i=1 */\n      swap1\n      pop\n        /* \"contracts/Voting.sol\":4463:4471  election */\n      dup4\n        /* \"contracts/Voting.sol\":4463:4486  election.candidateCount */\n      0x05\n      add\n      sload\n        /* \"contracts/Voting.sol\":4460:4461  i */\n      dup2\n        /* \"contracts/Voting.sol\":4460:4486  i<=election.candidateCount */\n      gt\n        /* \"contracts/Voting.sol\":4446:4788  for(uint i=1; i<=election.candidateCount; i++){... */\n      tag_90\n      jumpi\n        /* \"contracts/Voting.sol\":4545:4561  winningVoteCount */\n      dup3\n        /* \"contracts/Voting.sol\":4510:4518  election */\n      dup5\n        /* \"contracts/Voting.sol\":4510:4529  election.candidates */\n      0x04\n      add\n        /* \"contracts/Voting.sol\":4510:4532  election.candidates[i] */\n      0x00\n        /* \"contracts/Voting.sol\":4530:4531  i */\n      dup4\n        /* \"contracts/Voting.sol\":4510:4532  election.candidates[i] */\n      dup2\n      mstore\n      0x20\n      add\n      swap1\n      dup2\n      mstore\n      0x20\n      add\n      0x00\n      keccak256\n        /* \"contracts/Voting.sol\":4510:4542  election.candidates[i].voteCount */\n      0x02\n      add\n      sload\n        /* \"contracts/Voting.sol\":4510:4561  election.candidates[i].voteCount > winningVoteCount */\n      gt\n        /* \"contracts/Voting.sol\":4507:4689  if(election.candidates[i].voteCount > winningVoteCount){... */\n      iszero\n      tag_92\n      jumpi\n        /* \"contracts/Voting.sol\":4600:4608  election */\n      dup4\n        /* \"contracts/Voting.sol\":4600:4619  election.candidates */\n      0x04\n      add\n        /* \"contracts/Voting.sol\":4600:4622  election.candidates[i] */\n      0x00\n        /* \"contracts/Voting.sol\":4620:4621  i */\n      dup3\n        /* \"contracts/Voting.sol\":4600:4622  election.candidates[i] */\n      dup2\n      mstore\n      0x20\n      add\n      swap1\n      dup2\n      mstore\n      0x20\n      add\n      0x00\n      keccak256\n        /* \"contracts/Voting.sol\":4600:4632  election.candidates[i].voteCount */\n      0x02\n      add\n      sload\n        /* \"contracts/Voting.sol\":4581:4632  winningVoteCount = election.candidates[i].voteCount */\n      swap3\n      pop\n        /* \"contracts/Voting.sol\":4672:4673  i */\n      dup1\n        /* \"contracts/Voting.sol\":4651:4673  winningCandidateId = i */\n      swap2\n      pop\n        /* \"contracts/Voting.sol\":4507:4689  if(election.candidates[i].voteCount > winningVoteCount){... */\n    tag_92:\n        /* \"contracts/Voting.sol\":4713:4721  election */\n      dup4\n        /* \"contracts/Voting.sol\":4713:4732  election.candidates */\n      0x04\n      add\n        /* \"contracts/Voting.sol\":4713:4752  election.candidates[winningCandidateId] */\n      0x00\n        /* \"contracts/Voting.sol\":4733:4751  winningCandidateId */\n      dup4\n        /* \"contracts/Voting.sol\":4713:4752  election.candidates[winningCandidateId] */\n      dup2\n      mstore\n      0x20\n      add\n      swap1\n      dup2\n      mstore\n      0x20\n      add\n      0x00\n      keccak256\n        /* \"contracts/Voting.sol\":4713:4757  election.candidates[winningCandidateId].name */\n      0x01\n      add\n        /* \"contracts/Voting.sol\":4759:4775  winningVoteCount */\n      dup4\n        /* \"contracts/Voting.sol\":4705:4776  return (election.candidates[winningCandidateId].name, winningVoteCount) */\n      dup2\n      dup1\n      sload\n      tag_93\n      swap1\n      tag_94\n      jump\t// in\n    tag_93:\n      dup1\n      0x1f\n      add\n      0x20\n      dup1\n      swap2\n      div\n      mul\n      0x20\n      add\n      mload(0x40)\n      swap1\n      dup2\n      add\n      0x40\n      mstore\n      dup1\n      swap3\n      swap2\n      swap1\n      dup2\n      dup2\n      mstore\n      0x20\n      add\n      dup3\n      dup1\n      sload\n      tag_95\n      swap1\n      tag_94\n      jump\t// in\n    tag_95:\n      dup1\n      iszero\n      tag_96\n      jumpi\n      dup1\n      0x1f\n      lt\n      tag_97\n      jumpi\n      0x0100\n      dup1\n      dup4\n      sload\n      div\n      mul\n      dup4\n      mstore\n      swap2\n      0x20\n      add\n      swap2\n      jump(tag_96)\n    tag_97:\n      dup3\n      add\n      swap2\n      swap1\n      0x00\n      mstore\n      keccak256(0x00, 0x20)\n      swap1\n    tag_98:\n      dup2\n      sload\n      dup2\n      mstore\n      swap1\n      0x01\n      add\n      swap1\n      0x20\n      add\n      dup1\n      dup4\n      gt\n      tag_98\n      jumpi\n      dup3\n      swap1\n      sub\n      0x1f\n      and\n      dup3\n      add\n      swap2\n    tag_96:\n      pop\n      pop\n      pop\n      pop\n      pop\n      swap2\n      pop\n      swap7\n      pop\n      swap7\n      pop\n      pop\n      pop\n      pop\n      pop\n      jump(tag_88)\n        /* \"contracts/Voting.sol\":4446:4788  for(uint i=1; i<=election.candidateCount; i++){... */\n    tag_90:\n      pop\n        /* \"contracts/Voting.sol\":4296:4795  {... */\n      pop\n      pop\n      pop\n        /* \"contracts/Voting.sol\":1256:1257  _ */\n    tag_88:\n        /* \"contracts/Voting.sol\":4165:4795  function getWinner(uint _electionId) public view electionExist(_electionId) returns(string memory winnerName, uint winnerVoteCount){... */\n      pop\n      swap2\n      pop\n      swap2\n      jump\t// out\n        /* \"contracts/Voting.sol\":1567:1976  function createElection(string memory _name, uint _duration) public onlyAdmin{... */\n    tag_32:\n        /* \"contracts/Voting.sol\":1037:1042  admin */\n      0x00\n      dup1\n      sload\n      swap1\n      0x0100\n      exp\n      swap1\n      div\n      0xffffffffffffffffffffffffffffffffffffffff\n      and\n        /* \"contracts/Voting.sol\":1023:1042  msg.sender == admin */\n      0xffffffffffffffffffffffffffffffffffffffff\n      and\n        /* \"contracts/Voting.sol\":1023:1033  msg.sender */\n      caller\n        /* \"contracts/Voting.sol\":1023:1042  msg.sender == admin */\n      0xffffffffffffffffffffffffffffffffffffffff\n      and\n      eq\n        /* \"contracts/Voting.sol\":1015:1084  require(msg.sender == admin, \"Only admin can perform this operation\") */\n      tag_101\n      jumpi\n      mload(0x40)\n      0x08c379a000000000000000000000000000000000000000000000000000000000\n      dup2\n      mstore\n      0x04\n      add\n      tag_102\n      swap1\n      tag_59\n      jump\t// in\n    tag_102:\n      mload(0x40)\n      dup1\n      swap2\n      sub\n      swap1\n      revert\n    tag_101:\n        /* \"contracts/Voting.sol\":1655:1668  electionCount */\n      0x01\n      0x00\n        /* \"contracts/Voting.sol\":1655:1670  electionCount++ */\n      dup2\n      sload\n      dup1\n      swap3\n      swap2\n      swap1\n      tag_104\n      swap1\n      tag_74\n      jump\t// in\n    tag_104:\n      swap2\n      swap1\n      pop\n      sstore\n      pop\n        /* \"contracts/Voting.sol\":1681:1706  Election storage election */\n      0x00\n        /* \"contracts/Voting.sol\":1709:1718  elections */\n      0x02\n        /* \"contracts/Voting.sol\":1709:1733  elections[electionCount] */\n      0x00\n        /* \"contracts/Voting.sol\":1719:1732  electionCount */\n      sload(0x01)\n        /* \"contracts/Voting.sol\":1709:1733  elections[electionCount] */\n      dup2\n      mstore\n      0x20\n      add\n      swap1\n      dup2\n      mstore\n      0x20\n      add\n      0x00\n      keccak256\n        /* \"contracts/Voting.sol\":1681:1733  Election storage election = elections[electionCount] */\n      swap1\n      pop\n        /* \"contracts/Voting.sol\":1758:1771  electionCount */\n      sload(0x01)\n        /* \"contracts/Voting.sol\":1744:1752  election */\n      dup2\n        /* \"contracts/Voting.sol\":1744:1755  election.id */\n      0x00\n      add\n        /* \"contracts/Voting.sol\":1744:1771  election.id = electionCount */\n      dup2\n      swap1\n      sstore\n      pop\n        /* \"contracts/Voting.sol\":1798:1803  _name */\n      dup3\n        /* \"contracts/Voting.sol\":1782:1790  election */\n      dup2\n        /* \"contracts/Voting.sol\":1782:1795  election.name */\n      0x01\n      add\n        /* \"contracts/Voting.sol\":1782:1803  election.name = _name */\n      swap1\n      dup2\n      tag_105\n      swap2\n      swap1\n      tag_76\n      jump\t// in\n    tag_105:\n      pop\n        /* \"contracts/Voting.sol\":1834:1838  true */\n      0x01\n        /* \"contracts/Voting.sol\":1814:1822  election */\n      dup2\n        /* \"contracts/Voting.sol\":1814:1831  election.isActive */\n      0x02\n      add\n      0x00\n        /* \"contracts/Voting.sol\":1814:1838  election.isActive = true */\n      0x0100\n      exp\n      dup2\n      sload\n      dup2\n      0xff\n      mul\n      not\n      and\n      swap1\n      dup4\n      iszero\n      iszero\n      mul\n      or\n      swap1\n      sstore\n      pop\n        /* \"contracts/Voting.sol\":1886:1895  _duration */\n      dup2\n        /* \"contracts/Voting.sol\":1868:1883  block.timestamp */\n      timestamp\n        /* \"contracts/Voting.sol\":1868:1895  block.timestamp + _duration */\n      tag_106\n      swap2\n      swap1\n      tag_107\n      jump\t// in\n    tag_106:\n        /* \"contracts/Voting.sol\":1849:1857  election */\n      dup2\n        /* \"contracts/Voting.sol\":1849:1865  election.endTime */\n      0x03\n      add\n        /* \"contracts/Voting.sol\":1849:1895  election.endTime = block.timestamp + _duration */\n      dup2\n      swap1\n      sstore\n      pop\n        /* \"contracts/Voting.sol\":1929:1942  electionCount */\n      sload(0x01)\n        /* \"contracts/Voting.sol\":1913:1968  ElectionCreated(electionCount, _name, election.endTime) */\n      0x43131521170c5b80ffe9526cfec987f5a24eb1f6c4bda47c41a5e4b8388afe5c\n        /* \"contracts/Voting.sol\":1944:1949  _name */\n      dup5\n        /* \"contracts/Voting.sol\":1951:1959  election */\n      dup4\n        /* \"contracts/Voting.sol\":1951:1967  election.endTime */\n      0x03\n      add\n      sload\n        /* \"contracts/Voting.sol\":1913:1968  ElectionCreated(electionCount, _name, election.endTime) */\n      mload(0x40)\n      tag_108\n      swap3\n      swap2\n      swap1\n      tag_28\n      jump\t// in\n    tag_108:\n      mload(0x40)\n      dup1\n      swap2\n      sub\n      swap1\n      log2\n        /* \"contracts/Voting.sol\":1644:1976  {... */\n      pop\n        /* \"contracts/Voting.sol\":1567:1976  function createElection(string memory _name, uint _duration) public onlyAdmin{... */\n      pop\n      pop\n      jump\t// out\n        /* \"contracts/Voting.sol\":3670:3997  function getCandidate(uint _electionId, uint _candidateId) public view electionExist(_electionId) returns (string memory, uint){... */\n    tag_36:\n        /* \"contracts/Voting.sol\":3777:3790  string memory */\n      0x60\n        /* \"contracts/Voting.sol\":3792:3796  uint */\n      0x00\n        /* \"contracts/Voting.sol\":3755:3766  _electionId */\n      dup4\n        /* \"contracts/Voting.sol\":1185:1186  0 */\n      0x00\n        /* \"contracts/Voting.sol\":1171:1182  _electionId */\n      dup2\n        /* \"contracts/Voting.sol\":1171:1186  _electionId > 0 */\n      gt\n        /* \"contracts/Voting.sol\":1171:1218  _electionId > 0 && _electionId <= electionCount */\n      dup1\n      iszero\n      tag_110\n      jumpi\n      pop\n        /* \"contracts/Voting.sol\":1205:1218  electionCount */\n      sload(0x01)\n        /* \"contracts/Voting.sol\":1190:1201  _electionId */\n      dup2\n        /* \"contracts/Voting.sol\":1190:1218  _electionId <= electionCount */\n      gt\n      iszero\n        /* \"contracts/Voting.sol\":1171:1218  _electionId > 0 && _electionId <= electionCount */\n    tag_110:\n        /* \"contracts/Voting.sol\":1163:1245  require(_electionId > 0 && _electionId <= electionCount, \"Election doesn't exist\") */\n      tag_111\n      jumpi\n      mload(0x40)\n      0x08c379a000000000000000000000000000000000000000000000000000000000\n      dup2\n      mstore\n      0x04\n      add\n      tag_112\n      swap1\n      tag_64\n      jump\t// in\n    tag_112:\n      mload(0x40)\n      dup1\n      swap2\n      sub\n      swap1\n      revert\n    tag_111:\n        /* \"contracts/Voting.sol\":3808:3833  Election storage election */\n      0x00\n        /* \"contracts/Voting.sol\":3836:3845  elections */\n      0x02\n        /* \"contracts/Voting.sol\":3836:3858  elections[_electionId] */\n      0x00\n        /* \"contracts/Voting.sol\":3846:3857  _electionId */\n      dup8\n        /* \"contracts/Voting.sol\":3836:3858  elections[_electionId] */\n      dup2\n      mstore\n      0x20\n      add\n      swap1\n      dup2\n      mstore\n      0x20\n      add\n      0x00\n      keccak256\n        /* \"contracts/Voting.sol\":3808:3858  Election storage election = elections[_electionId] */\n      swap1\n      pop\n        /* \"contracts/Voting.sol\":3869:3896  Candidate storage candidate */\n      0x00\n        /* \"contracts/Voting.sol\":3899:3907  election */\n      dup2\n        /* \"contracts/Voting.sol\":3899:3918  election.candidates */\n      0x04\n      add\n        /* \"contracts/Voting.sol\":3899:3932  election.candidates[_candidateId] */\n      0x00\n        /* \"contracts/Voting.sol\":3919:3931  _candidateId */\n      dup8\n        /* \"contracts/Voting.sol\":3899:3932  election.candidates[_candidateId] */\n      dup2\n      mstore\n      0x20\n      add\n      swap1\n      dup2\n      mstore\n      0x20\n      add\n      0x00\n      keccak256\n        /* \"contracts/Voting.sol\":3869:3932  Candidate storage candidate = election.candidates[_candidateId] */\n      swap1\n      pop\n        /* \"contracts/Voting.sol\":3953:3962  candidate */\n      dup1\n        /* \"contracts/Voting.sol\":3953:3967  candidate.name */\n      0x01\n      add\n        /* \"contracts/Voting.sol\":3969:3978  candidate */\n      dup2\n        /* \"contracts/Voting.sol\":3969:3988  candidate.voteCount */\n      0x02\n      add\n      sload\n        /* \"contracts/Voting.sol\":3945:3989  return (candidate.name, candidate.voteCount) */\n      dup2\n      dup1\n      sload\n      tag_114\n      swap1\n      tag_94\n      jump\t// in\n    tag_114:\n      dup1\n      0x1f\n      add\n      0x20\n      dup1\n      swap2\n      div\n      mul\n      0x20\n      add\n      mload(0x40)\n      swap1\n      dup2\n      add\n      0x40\n      mstore\n      dup1\n      swap3\n      swap2\n      swap1\n      dup2\n      dup2\n      mstore\n      0x20\n      add\n      dup3\n      dup1\n      sload\n      tag_115\n      swap1\n      tag_94\n      jump\t// in\n    tag_115:\n      dup1\n      iszero\n      tag_116\n      jumpi\n      dup1\n      0x1f\n      lt\n      tag_117\n      jumpi\n      0x0100\n      dup1\n      dup4\n      sload\n      div\n      mul\n      dup4\n      mstore\n      swap2\n      0x20\n      add\n      swap2\n      jump(tag_116)\n    tag_117:\n      dup3\n      add\n      swap2\n      swap1\n      0x00\n      mstore\n      keccak256(0x00, 0x20)\n      swap1\n    tag_118:\n      dup2\n      sload\n      dup2\n      mstore\n      swap1\n      0x01\n      add\n      swap1\n      0x20\n      add\n      dup1\n      dup4\n      gt\n      tag_118\n      jumpi\n      dup3\n      swap1\n      sub\n      0x1f\n      and\n      dup3\n      add\n      swap2\n    tag_116:\n      pop\n      pop\n      pop\n      pop\n      pop\n      swap2\n      pop\n      swap5\n      pop\n      swap5\n      pop\n      pop\n      pop\n        /* \"contracts/Voting.sol\":3670:3997  function getCandidate(uint _electionId, uint _candidateId) public view electionExist(_electionId) returns (string memory, uint){... */\n      pop\n      swap3\n      pop\n      swap3\n      swap1\n      pop\n      jump\t// out\n        /* \"contracts/Voting.sol\":578:620  mapping(uint => Election) public elections */\n    tag_40:\n      mstore(0x20, 0x02)\n      dup1\n      0x00\n      mstore\n      keccak256(0x00, 0x40)\n      0x00\n      swap2\n      pop\n      swap1\n      pop\n      dup1\n      0x00\n      add\n      sload\n      swap1\n      dup1\n      0x01\n      add\n      dup1\n      sload\n      tag_119\n      swap1\n      tag_94\n      jump\t// in\n    tag_119:\n      dup1\n      0x1f\n      add\n      0x20\n      dup1\n      swap2\n      div\n      mul\n      0x20\n      add\n      mload(0x40)\n      swap1\n      dup2\n      add\n      0x40\n      mstore\n      dup1\n      swap3\n      swap2\n      swap1\n      dup2\n      dup2\n      mstore\n      0x20\n      add\n      dup3\n      dup1\n      sload\n      tag_120\n      swap1\n      tag_94\n      jump\t// in\n    tag_120:\n      dup1\n      iszero\n      tag_121\n      jumpi\n      dup1\n      0x1f\n      lt\n      tag_122\n      jumpi\n      0x0100\n      dup1\n      dup4\n      sload\n      div\n      mul\n      dup4\n      mstore\n      swap2\n      0x20\n      add\n      swap2\n      jump(tag_121)\n    tag_122:\n      dup3\n      add\n      swap2\n      swap1\n      0x00\n      mstore\n      keccak256(0x00, 0x20)\n      swap1\n    tag_123:\n      dup2\n      sload\n      dup2\n      mstore\n      swap1\n      0x01\n      add\n      swap1\n      0x20\n      add\n      dup1\n      dup4\n      gt\n      tag_123\n      jumpi\n      dup3\n      swap1\n      sub\n      0x1f\n      and\n      dup3\n      add\n      swap2\n    tag_121:\n      pop\n      pop\n      pop\n      pop\n      pop\n      swap1\n      dup1\n      0x02\n      add\n      0x00\n      swap1\n      sload\n      swap1\n      0x0100\n      exp\n      swap1\n      div\n      0xff\n      and\n      swap1\n      dup1\n      0x03\n      add\n      sload\n      swap1\n      dup1\n      0x05\n      add\n      sload\n      swap1\n      dup1\n      0x07\n      add\n      sload\n      swap1\n      pop\n      dup7\n      jump\t// out\n        /* \"contracts/Voting.sol\":546:571  uint public electionCount */\n    tag_44:\n      sload(0x01)\n      dup2\n      jump\t// out\n        /* \"contracts/Voting.sol\":2978:3662  function endElection(uint _electionId) public onlyAdmin electionExist(_electionId) electionActive(_electionId){... */\n    tag_48:\n        /* \"contracts/Voting.sol\":1037:1042  admin */\n      0x00\n      dup1\n      sload\n      swap1\n      0x0100\n      exp\n      swap1\n      div\n      0xffffffffffffffffffffffffffffffffffffffff\n      and\n        /* \"contracts/Voting.sol\":1023:1042  msg.sender == admin */\n      0xffffffffffffffffffffffffffffffffffffffff\n      and\n        /* \"contracts/Voting.sol\":1023:1033  msg.sender */\n      caller\n        /* \"contracts/Voting.sol\":1023:1042  msg.sender == admin */\n      0xffffffffffffffffffffffffffffffffffffffff\n      and\n      eq\n        /* \"contracts/Voting.sol\":1015:1084  require(msg.sender == admin, \"Only admin can perform this operation\") */\n      tag_125\n      jumpi\n      mload(0x40)\n      0x08c379a000000000000000000000000000000000000000000000000000000000\n      dup2\n      mstore\n      0x04\n      add\n      tag_126\n      swap1\n      tag_59\n      jump\t// in\n    tag_126:\n      mload(0x40)\n      dup1\n      swap2\n      sub\n      swap1\n      revert\n    tag_125:\n        /* \"contracts/Voting.sol\":3048:3059  _electionId */\n      dup1\n        /* \"contracts/Voting.sol\":1185:1186  0 */\n      0x00\n        /* \"contracts/Voting.sol\":1171:1182  _electionId */\n      dup2\n        /* \"contracts/Voting.sol\":1171:1186  _electionId > 0 */\n      gt\n        /* \"contracts/Voting.sol\":1171:1218  _electionId > 0 && _electionId <= electionCount */\n      dup1\n      iszero\n      tag_128\n      jumpi\n      pop\n        /* \"contracts/Voting.sol\":1205:1218  electionCount */\n      sload(0x01)\n        /* \"contracts/Voting.sol\":1190:1201  _electionId */\n      dup2\n        /* \"contracts/Voting.sol\":1190:1218  _electionId <= electionCount */\n      gt\n      iszero\n        /* \"contracts/Voting.sol\":1171:1218  _electionId > 0 && _electionId <= electionCount */\n    tag_128:\n        /* \"contracts/Voting.sol\":1163:1245  require(_electionId > 0 && _electionId <= electionCount, \"Election doesn't exist\") */\n      tag_129\n      jumpi\n      mload(0x40)\n      0x08c379a000000000000000000000000000000000000000000000000000000000\n      dup2\n      mstore\n      0x04\n      add\n      tag_130\n      swap1\n      tag_64\n      jump\t// in\n    tag_130:\n      mload(0x40)\n      dup1\n      swap2\n      sub\n      swap1\n      revert\n    tag_129:\n        /* \"contracts/Voting.sol\":3076:3087  _electionId */\n      dup2\n        /* \"contracts/Voting.sol\":1333:1342  elections */\n      0x02\n        /* \"contracts/Voting.sol\":1333:1355  elections[_electionId] */\n      0x00\n        /* \"contracts/Voting.sol\":1343:1354  _electionId */\n      dup3\n        /* \"contracts/Voting.sol\":1333:1355  elections[_electionId] */\n      dup2\n      mstore\n      0x20\n      add\n      swap1\n      dup2\n      mstore\n      0x20\n      add\n      0x00\n      keccak256\n        /* \"contracts/Voting.sol\":1333:1364  elections[_electionId].isActive */\n      0x02\n      add\n      0x00\n      swap1\n      sload\n      swap1\n      0x0100\n      exp\n      swap1\n      div\n      0xff\n      and\n        /* \"contracts/Voting.sol\":1325:1391  require(elections[_electionId].isActive, \"Election is not active\") */\n      tag_132\n      jumpi\n      mload(0x40)\n      0x08c379a000000000000000000000000000000000000000000000000000000000\n      dup2\n      mstore\n      0x04\n      add\n      tag_133\n      swap1\n      tag_68\n      jump\t// in\n    tag_133:\n      mload(0x40)\n      dup1\n      swap2\n      sub\n      swap1\n      revert\n    tag_132:\n        /* \"contracts/Voting.sol\":1428:1437  elections */\n      0x02\n        /* \"contracts/Voting.sol\":1428:1450  elections[_electionId] */\n      0x00\n        /* \"contracts/Voting.sol\":1438:1449  _electionId */\n      dup3\n        /* \"contracts/Voting.sol\":1428:1450  elections[_electionId] */\n      dup2\n      mstore\n      0x20\n      add\n      swap1\n      dup2\n      mstore\n      0x20\n      add\n      0x00\n      keccak256\n        /* \"contracts/Voting.sol\":1428:1458  elections[_electionId].endTime */\n      0x03\n      add\n      sload\n        /* \"contracts/Voting.sol\":1410:1425  block.timestamp */\n      timestamp\n        /* \"contracts/Voting.sol\":1410:1458  block.timestamp < elections[_electionId].endTime */\n      lt\n        /* \"contracts/Voting.sol\":1402:1481  require(block.timestamp < elections[_electionId].endTime, \"Election has ended\") */\n      tag_134\n      jumpi\n      mload(0x40)\n      0x08c379a000000000000000000000000000000000000000000000000000000000\n      dup2\n      mstore\n      0x04\n      add\n      tag_135\n      swap1\n      tag_71\n      jump\t// in\n    tag_135:\n      mload(0x40)\n      dup1\n      swap2\n      sub\n      swap1\n      revert\n    tag_134:\n        /* \"contracts/Voting.sol\":3099:3124  Election storage election */\n      0x00\n        /* \"contracts/Voting.sol\":3127:3136  elections */\n      0x02\n        /* \"contracts/Voting.sol\":3127:3149  elections[_electionId] */\n      0x00\n        /* \"contracts/Voting.sol\":3137:3148  _electionId */\n      dup6\n        /* \"contracts/Voting.sol\":3127:3149  elections[_electionId] */\n      dup2\n      mstore\n      0x20\n      add\n      swap1\n      dup2\n      mstore\n      0x20\n      add\n      0x00\n      keccak256\n        /* \"contracts/Voting.sol\":3099:3149  Election storage election = elections[_electionId] */\n      swap1\n      pop\n        /* \"contracts/Voting.sol\":3180:3185  false */\n      0x00\n        /* \"contracts/Voting.sol\":3160:3168  election */\n      dup2\n        /* \"contracts/Voting.sol\":3160:3177  election.isActive */\n      0x02\n      add\n      0x00\n        /* \"contracts/Voting.sol\":3160:3185  election.isActive = false */\n      0x0100\n      exp\n      dup2\n      sload\n      dup2\n      0xff\n      mul\n      not\n      and\n      swap1\n      dup4\n      iszero\n      iszero\n      mul\n      or\n      swap1\n      sstore\n      pop\n        /* \"contracts/Voting.sol\":3198:3219  uint winningVoteCount */\n      0x00\n        /* \"contracts/Voting.sol\":3234:3257  uint winningCandidateId */\n      dup1\n        /* \"contracts/Voting.sol\":3278:3284  uint i */\n      0x00\n        /* \"contracts/Voting.sol\":3285:3286  1 */\n      0x01\n        /* \"contracts/Voting.sol\":3278:3286  uint i=1 */\n      swap1\n      pop\n        /* \"contracts/Voting.sol\":3274:3527  for(uint i=1; i<election.candidateCount; i++){... */\n    tag_137:\n        /* \"contracts/Voting.sol\":3290:3298  election */\n      dup4\n        /* \"contracts/Voting.sol\":3290:3313  election.candidateCount */\n      0x05\n      add\n      sload\n        /* \"contracts/Voting.sol\":3288:3289  i */\n      dup2\n        /* \"contracts/Voting.sol\":3288:3313  i<election.candidateCount */\n      lt\n        /* \"contracts/Voting.sol\":3274:3527  for(uint i=1; i<election.candidateCount; i++){... */\n      iszero\n      tag_138\n      jumpi\n        /* \"contracts/Voting.sol\":3372:3388  winningVoteCount */\n      dup3\n        /* \"contracts/Voting.sol\":3337:3345  election */\n      dup5\n        /* \"contracts/Voting.sol\":3337:3356  election.candidates */\n      0x04\n      add\n        /* \"contracts/Voting.sol\":3337:3359  election.candidates[i] */\n      0x00\n        /* \"contracts/Voting.sol\":3357:3358  i */\n      dup4\n        /* \"contracts/Voting.sol\":3337:3359  election.candidates[i] */\n      dup2\n      mstore\n      0x20\n      add\n      swap1\n      dup2\n      mstore\n      0x20\n      add\n      0x00\n      keccak256\n        /* \"contracts/Voting.sol\":3337:3369  election.candidates[i].voteCount */\n      0x02\n      add\n      sload\n        /* \"contracts/Voting.sol\":3337:3388  election.candidates[i].voteCount > winningVoteCount */\n      gt\n        /* \"contracts/Voting.sol\":3334:3516  if(election.candidates[i].voteCount > winningVoteCount){... */\n      iszero\n      tag_140\n      jumpi\n        /* \"contracts/Voting.sol\":3427:3435  election */\n      dup4\n        /* \"contracts/Voting.sol\":3427:3446  election.candidates */\n      0x04\n      add\n        /* \"contracts/Voting.sol\":3427:3449  election.candidates[i] */\n      0x00\n        /* \"contracts/Voting.sol\":3447:3448  i */\n      dup3\n        /* \"contracts/Voting.sol\":3427:3449  election.candidates[i] */\n      dup2\n      mstore\n      0x20\n      add\n      swap1\n      dup2\n      mstore\n      0x20\n      add\n      0x00\n      keccak256\n        /* \"contracts/Voting.sol\":3427:3459  election.candidates[i].voteCount */\n      0x02\n      add\n      sload\n        /* \"contracts/Voting.sol\":3408:3459  winningVoteCount = election.candidates[i].voteCount */\n      swap3\n      pop\n        /* \"contracts/Voting.sol\":3499:3500  i */\n      dup1\n        /* \"contracts/Voting.sol\":3478:3500  winningCandidateId = i */\n      swap2\n      pop\n        /* \"contracts/Voting.sol\":3334:3516  if(election.candidates[i].voteCount > winningVoteCount){... */\n    tag_140:\n        /* \"contracts/Voting.sol\":3315:3318  i++ */\n      dup1\n      dup1\n      0x01\n      add\n      swap2\n      pop\n      pop\n        /* \"contracts/Voting.sol\":3274:3527  for(uint i=1; i<election.candidateCount; i++){... */\n      jump(tag_137)\n    tag_138:\n      pop\n        /* \"contracts/Voting.sol\":3571:3589  winningCandidateId */\n      dup1\n        /* \"contracts/Voting.sol\":3558:3569  _electionId */\n      dup7\n        /* \"contracts/Voting.sol\":3544:3654  ElectionEnded(_electionId, winningCandidateId, election.candidates[winningCandidateId].name, winningVoteCount) */\n      0xbc7baeb63e80142a062a698ade8544587dfc5fcda61ca4b964418a42e9a4a786\n        /* \"contracts/Voting.sol\":3591:3599  election */\n      dup6\n        /* \"contracts/Voting.sol\":3591:3610  election.candidates */\n      0x04\n      add\n        /* \"contracts/Voting.sol\":3591:3630  election.candidates[winningCandidateId] */\n      0x00\n        /* \"contracts/Voting.sol\":3611:3629  winningCandidateId */\n      dup6\n        /* \"contracts/Voting.sol\":3591:3630  election.candidates[winningCandidateId] */\n      dup2\n      mstore\n      0x20\n      add\n      swap1\n      dup2\n      mstore\n      0x20\n      add\n      0x00\n      keccak256\n        /* \"contracts/Voting.sol\":3591:3635  election.candidates[winningCandidateId].name */\n      0x01\n      add\n        /* \"contracts/Voting.sol\":3637:3653  winningVoteCount */\n      dup6\n        /* \"contracts/Voting.sol\":3544:3654  ElectionEnded(_electionId, winningCandidateId, election.candidates[winningCandidateId].name, winningVoteCount) */\n      mload(0x40)\n      tag_141\n      swap3\n      swap2\n      swap1\n      tag_142\n      jump\t// in\n    tag_141:\n      mload(0x40)\n      dup1\n      swap2\n      sub\n      swap1\n      log3\n        /* \"contracts/Voting.sol\":3088:3662  {... */\n      pop\n      pop\n      pop\n        /* \"contracts/Voting.sol\":1256:1257  _ */\n      pop\n        /* \"contracts/Voting.sol\":1095:1096  _ */\n      pop\n        /* \"contracts/Voting.sol\":2978:3662  function endElection(uint _electionId) public onlyAdmin electionExist(_electionId) electionActive(_electionId){... */\n      pop\n      jump\t// out\n        /* \"contracts/Voting.sol\":2408:2970  function vote(uint _electionId, uint _candidateId) public electionExist(_electionId) electionActive(_electionId){... */\n    tag_51:\n        /* \"contracts/Voting.sol\":2480:2491  _electionId */\n      dup2\n        /* \"contracts/Voting.sol\":1185:1186  0 */\n      0x00\n        /* \"contracts/Voting.sol\":1171:1182  _electionId */\n      dup2\n        /* \"contracts/Voting.sol\":1171:1186  _electionId > 0 */\n      gt\n        /* \"contracts/Voting.sol\":1171:1218  _electionId > 0 && _electionId <= electionCount */\n      dup1\n      iszero\n      tag_144\n      jumpi\n      pop\n        /* \"contracts/Voting.sol\":1205:1218  electionCount */\n      sload(0x01)\n        /* \"contracts/Voting.sol\":1190:1201  _electionId */\n      dup2\n        /* \"contracts/Voting.sol\":1190:1218  _electionId <= electionCount */\n      gt\n      iszero\n        /* \"contracts/Voting.sol\":1171:1218  _electionId > 0 && _electionId <= electionCount */\n    tag_144:\n        /* \"contracts/Voting.sol\":1163:1245  require(_electionId > 0 && _electionId <= electionCount, \"Election doesn't exist\") */\n      tag_145\n      jumpi\n      mload(0x40)\n      0x08c379a000000000000000000000000000000000000000000000000000000000\n      dup2\n      mstore\n      0x04\n      add\n      tag_146\n      swap1\n      tag_64\n      jump\t// in\n    tag_146:\n      mload(0x40)\n      dup1\n      swap2\n      sub\n      swap1\n      revert\n    tag_145:\n        /* \"contracts/Voting.sol\":2508:2519  _electionId */\n      dup3\n        /* \"contracts/Voting.sol\":1333:1342  elections */\n      0x02\n        /* \"contracts/Voting.sol\":1333:1355  elections[_electionId] */\n      0x00\n        /* \"contracts/Voting.sol\":1343:1354  _electionId */\n      dup3\n        /* \"contracts/Voting.sol\":1333:1355  elections[_electionId] */\n      dup2\n      mstore\n      0x20\n      add\n      swap1\n      dup2\n      mstore\n      0x20\n      add\n      0x00\n      keccak256\n        /* \"contracts/Voting.sol\":1333:1364  elections[_electionId].isActive */\n      0x02\n      add\n      0x00\n      swap1\n      sload\n      swap1\n      0x0100\n      exp\n      swap1\n      div\n      0xff\n      and\n        /* \"contracts/Voting.sol\":1325:1391  require(elections[_electionId].isActive, \"Election is not active\") */\n      tag_148\n      jumpi\n      mload(0x40)\n      0x08c379a000000000000000000000000000000000000000000000000000000000\n      dup2\n      mstore\n      0x04\n      add\n      tag_149\n      swap1\n      tag_68\n      jump\t// in\n    tag_149:\n      mload(0x40)\n      dup1\n      swap2\n      sub\n      swap1\n      revert\n    tag_148:\n        /* \"contracts/Voting.sol\":1428:1437  elections */\n      0x02\n        /* \"contracts/Voting.sol\":1428:1450  elections[_electionId] */\n      0x00\n        /* \"contracts/Voting.sol\":1438:1449  _electionId */\n      dup3\n        /* \"contracts/Voting.sol\":1428:1450  elections[_electionId] */\n      dup2\n      mstore\n      0x20\n      add\n      swap1\n      dup2\n      mstore\n      0x20\n      add\n      0x00\n      keccak256\n        /* \"contracts/Voting.sol\":1428:1458  elections[_electionId].endTime */\n      0x03\n      add\n      sload\n        /* \"contracts/Voting.sol\":1410:1425  block.timestamp */\n      timestamp\n        /* \"contracts/Voting.sol\":1410:1458  block.timestamp < elections[_electionId].endTime */\n      lt\n        /* \"contracts/Voting.sol\":1402:1481  require(block.timestamp < elections[_electionId].endTime, \"Election has ended\") */\n      tag_150\n      jumpi\n      mload(0x40)\n      0x08c379a000000000000000000000000000000000000000000000000000000000\n      dup2\n      mstore\n      0x04\n      add\n      tag_151\n      swap1\n      tag_71\n      jump\t// in\n    tag_151:\n      mload(0x40)\n      dup1\n      swap2\n      sub\n      swap1\n      revert\n    tag_150:\n        /* \"contracts/Voting.sol\":2531:2556  Election storage election */\n      0x00\n        /* \"contracts/Voting.sol\":2559:2568  elections */\n      0x02\n        /* \"contracts/Voting.sol\":2559:2581  elections[_electionId] */\n      0x00\n        /* \"contracts/Voting.sol\":2569:2580  _electionId */\n      dup7\n        /* \"contracts/Voting.sol\":2559:2581  elections[_electionId] */\n      dup2\n      mstore\n      0x20\n      add\n      swap1\n      dup2\n      mstore\n      0x20\n      add\n      0x00\n      keccak256\n        /* \"contracts/Voting.sol\":2531:2581  Election storage election = elections[_electionId] */\n      swap1\n      pop\n        /* \"contracts/Voting.sol\":2601:2609  election */\n      dup1\n        /* \"contracts/Voting.sol\":2601:2618  election.hasVoted */\n      0x06\n      add\n        /* \"contracts/Voting.sol\":2601:2630  election.hasVoted[msg.sender] */\n      0x00\n        /* \"contracts/Voting.sol\":2619:2629  msg.sender */\n      caller\n        /* \"contracts/Voting.sol\":2601:2630  election.hasVoted[msg.sender] */\n      0xffffffffffffffffffffffffffffffffffffffff\n      and\n      0xffffffffffffffffffffffffffffffffffffffff\n      and\n      dup2\n      mstore\n      0x20\n      add\n      swap1\n      dup2\n      mstore\n      0x20\n      add\n      0x00\n      keccak256\n      0x00\n      swap1\n      sload\n      swap1\n      0x0100\n      exp\n      swap1\n      div\n      0xff\n      and\n        /* \"contracts/Voting.sol\":2600:2630  !election.hasVoted[msg.sender] */\n      iszero\n        /* \"contracts/Voting.sol\":2592:2657  require(!election.hasVoted[msg.sender], \"You have voted already\") */\n      tag_153\n      jumpi\n      mload(0x40)\n      0x08c379a000000000000000000000000000000000000000000000000000000000\n      dup2\n      mstore\n      0x04\n      add\n      tag_154\n      swap1\n      tag_155\n      jump\t// in\n    tag_154:\n      mload(0x40)\n      dup1\n      swap2\n      sub\n      swap1\n      revert\n    tag_153:\n        /* \"contracts/Voting.sol\":2691:2692  0 */\n      0x00\n        /* \"contracts/Voting.sol\":2676:2688  _candidateId */\n      dup5\n        /* \"contracts/Voting.sol\":2676:2692  _candidateId > 0 */\n      gt\n        /* \"contracts/Voting.sol\":2676:2735  _candidateId > 0 && _candidateId <= election.candidateCount */\n      dup1\n      iszero\n      tag_156\n      jumpi\n      pop\n        /* \"contracts/Voting.sol\":2712:2720  election */\n      dup1\n        /* \"contracts/Voting.sol\":2712:2735  election.candidateCount */\n      0x05\n      add\n      sload\n        /* \"contracts/Voting.sol\":2696:2708  _candidateId */\n      dup5\n        /* \"contracts/Voting.sol\":2696:2735  _candidateId <= election.candidateCount */\n      gt\n      iszero\n        /* \"contracts/Voting.sol\":2676:2735  _candidateId > 0 && _candidateId <= election.candidateCount */\n    tag_156:\n        /* \"contracts/Voting.sol\":2668:2772  require(_candidateId > 0 && _candidateId <= election.candidateCount, \"You have choosen wrong candidate\") */\n      tag_157\n      jumpi\n      mload(0x40)\n      0x08c379a000000000000000000000000000000000000000000000000000000000\n      dup2\n      mstore\n      0x04\n      add\n      tag_158\n      swap1\n      tag_159\n      jump\t// in\n    tag_158:\n      mload(0x40)\n      dup1\n      swap2\n      sub\n      swap1\n      revert\n    tag_157:\n        /* \"contracts/Voting.sol\":2817:2821  true */\n      0x01\n        /* \"contracts/Voting.sol\":2785:2793  election */\n      dup2\n        /* \"contracts/Voting.sol\":2785:2802  election.hasVoted */\n      0x06\n      add\n        /* \"contracts/Voting.sol\":2785:2814  election.hasVoted[msg.sender] */\n      0x00\n        /* \"contracts/Voting.sol\":2803:2813  msg.sender */\n      caller\n        /* \"contracts/Voting.sol\":2785:2814  election.hasVoted[msg.sender] */\n      0xffffffffffffffffffffffffffffffffffffffff\n      and\n      0xffffffffffffffffffffffffffffffffffffffff\n      and\n      dup2\n      mstore\n      0x20\n      add\n      swap1\n      dup2\n      mstore\n      0x20\n      add\n      0x00\n      keccak256\n      0x00\n        /* \"contracts/Voting.sol\":2785:2821  election.hasVoted[msg.sender] = true */\n      0x0100\n      exp\n      dup2\n      sload\n      dup2\n      0xff\n      mul\n      not\n      and\n      swap1\n      dup4\n      iszero\n      iszero\n      mul\n      or\n      swap1\n      sstore\n      pop\n        /* \"contracts/Voting.sol\":2832:2840  election */\n      dup1\n        /* \"contracts/Voting.sol\":2832:2851  election.candidates */\n      0x04\n      add\n        /* \"contracts/Voting.sol\":2832:2865  election.candidates[_candidateId] */\n      0x00\n        /* \"contracts/Voting.sol\":2852:2864  _candidateId */\n      dup6\n        /* \"contracts/Voting.sol\":2832:2865  election.candidates[_candidateId] */\n      dup2\n      mstore\n      0x20\n      add\n      swap1\n      dup2\n      mstore\n      0x20\n      add\n      0x00\n      keccak256\n        /* \"contracts/Voting.sol\":2832:2875  election.candidates[_candidateId].voteCount */\n      0x02\n      add\n      0x00\n        /* \"contracts/Voting.sol\":2832:2877  election.candidates[_candidateId].voteCount++ */\n      dup2\n      sload\n      dup1\n      swap3\n      swap2\n      swap1\n      tag_160\n      swap1\n      tag_74\n      jump\t// in\n    tag_160:\n      swap2\n      swap1\n      pop\n      sstore\n      pop\n        /* \"contracts/Voting.sol\":2888:2896  election */\n      dup1\n        /* \"contracts/Voting.sol\":2888:2907  election.totalVotes */\n      0x07\n      add\n      0x00\n        /* \"contracts/Voting.sol\":2888:2909  election.totalVotes++ */\n      dup2\n      sload\n      dup1\n      swap3\n      swap2\n      swap1\n      tag_161\n      swap1\n      tag_74\n      jump\t// in\n    tag_161:\n      swap2\n      swap1\n      pop\n      sstore\n      pop\n        /* \"contracts/Voting.sol\":2949:2961  _candidateId */\n      dup4\n        /* \"contracts/Voting.sol\":2936:2947  _electionId */\n      dup6\n        /* \"contracts/Voting.sol\":2927:2962  VoteCast(_electionId, _candidateId) */\n      0xc31875ef3ed5138b71a0c1da7e494bc4d2ba4f567084ea481ec9c45f3a93948b\n      mload(0x40)\n      mload(0x40)\n      dup1\n      swap2\n      sub\n      swap1\n      log3\n        /* \"contracts/Voting.sol\":2520:2970  {... */\n      pop\n        /* \"contracts/Voting.sol\":1256:1257  _ */\n      pop\n        /* \"contracts/Voting.sol\":2408:2970  function vote(uint _electionId, uint _candidateId) public electionExist(_electionId) electionActive(_electionId){... */\n      pop\n      pop\n      pop\n      jump\t// out\n        /* \"contracts/Voting.sol\":519:539  address public admin */\n    tag_53:\n      0x00\n      dup1\n      sload\n      swap1\n      0x0100\n      exp\n      swap1\n      div\n      0xffffffffffffffffffffffffffffffffffffffff\n      and\n      dup2\n      jump\t// out\n        /* \"#utility.yul\":7:82   */\n    tag_162:\n        /* \"#utility.yul\":40:46   */\n      0x00\n        /* \"#utility.yul\":73:75   */\n      0x40\n        /* \"#utility.yul\":67:76   */\n      mload\n        /* \"#utility.yul\":57:76   */\n      swap1\n      pop\n        /* \"#utility.yul\":7:82   */\n      swap1\n      jump\t// out\n        /* \"#utility.yul\":88:205   */\n    tag_163:\n        /* \"#utility.yul\":197:198   */\n      0x00\n        /* \"#utility.yul\":194:195   */\n      dup1\n        /* \"#utility.yul\":187:199   */\n      revert\n        /* \"#utility.yul\":211:328   */\n    tag_164:\n        /* \"#utility.yul\":320:321   */\n      0x00\n        /* \"#utility.yul\":317:318   */\n      dup1\n        /* \"#utility.yul\":310:322   */\n      revert\n        /* \"#utility.yul\":334:411   */\n    tag_165:\n        /* \"#utility.yul\":371:378   */\n      0x00\n        /* \"#utility.yul\":400:405   */\n      dup2\n        /* \"#utility.yul\":389:405   */\n      swap1\n      pop\n        /* \"#utility.yul\":334:411   */\n      swap2\n      swap1\n      pop\n      jump\t// out\n        /* \"#utility.yul\":417:539   */\n    tag_166:\n        /* \"#utility.yul\":490:514   */\n      tag_224\n        /* \"#utility.yul\":508:513   */\n      dup2\n        /* \"#utility.yul\":490:514   */\n      tag_165\n      jump\t// in\n    tag_224:\n        /* \"#utility.yul\":483:488   */\n      dup2\n        /* \"#utility.yul\":480:515   */\n      eq\n        /* \"#utility.yul\":470:533   */\n      tag_225\n      jumpi\n        /* \"#utility.yul\":529:530   */\n      0x00\n        /* \"#utility.yul\":526:527   */\n      dup1\n        /* \"#utility.yul\":519:531   */\n      revert\n        /* \"#utility.yul\":470:533   */\n    tag_225:\n        /* \"#utility.yul\":417:539   */\n      pop\n      jump\t// out\n        /* \"#utility.yul\":545:684   */\n    tag_167:\n        /* \"#utility.yul\":591:596   */\n      0x00\n        /* \"#utility.yul\":629:635   */\n      dup2\n        /* \"#utility.yul\":616:636   */\n      calldataload\n        /* \"#utility.yul\":607:636   */\n      swap1\n      pop\n        /* \"#utility.yul\":645:678   */\n      tag_227\n        /* \"#utility.yul\":672:677   */\n      dup2\n        /* \"#utility.yul\":645:678   */\n      tag_166\n      jump\t// in\n    tag_227:\n        /* \"#utility.yul\":545:684   */\n      swap3\n      swap2\n      pop\n      pop\n      jump\t// out\n        /* \"#utility.yul\":690:807   */\n    tag_168:\n        /* \"#utility.yul\":799:800   */\n      0x00\n        /* \"#utility.yul\":796:797   */\n      dup1\n        /* \"#utility.yul\":789:801   */\n      revert\n        /* \"#utility.yul\":813:930   */\n    tag_169:\n        /* \"#utility.yul\":922:923   */\n      0x00\n        /* \"#utility.yul\":919:920   */\n      dup1\n        /* \"#utility.yul\":912:924   */\n      revert\n        /* \"#utility.yul\":936:1038   */\n    tag_170:\n        /* \"#utility.yul\":977:983   */\n      0x00\n        /* \"#utility.yul\":1028:1030   */\n      0x1f\n        /* \"#utility.yul\":1024:1031   */\n      not\n        /* \"#utility.yul\":1019:1021   */\n      0x1f\n        /* \"#utility.yul\":1012:1017   */\n      dup4\n        /* \"#utility.yul\":1008:1022   */\n      add\n        /* \"#utility.yul\":1004:1032   */\n      and\n        /* \"#utility.yul\":994:1032   */\n      swap1\n      pop\n        /* \"#utility.yul\":936:1038   */\n      swap2\n      swap1\n      pop\n      jump\t// out\n        /* \"#utility.yul\":1044:1224   */\n    tag_171:\n        /* \"#utility.yul\":1092:1169   */\n      0x4e487b7100000000000000000000000000000000000000000000000000000000\n        /* \"#utility.yul\":1089:1090   */\n      0x00\n        /* \"#utility.yul\":1082:1170   */\n      mstore\n        /* \"#utility.yul\":1189:1193   */\n      0x41\n        /* \"#utility.yul\":1186:1187   */\n      0x04\n        /* \"#utility.yul\":1179:1194   */\n      mstore\n        /* \"#utility.yul\":1213:1217   */\n      0x24\n        /* \"#utility.yul\":1210:1211   */\n      0x00\n        /* \"#utility.yul\":1203:1218   */\n      revert\n        /* \"#utility.yul\":1230:1511   */\n    tag_172:\n        /* \"#utility.yul\":1313:1340   */\n      tag_233\n        /* \"#utility.yul\":1335:1339   */\n      dup3\n        /* \"#utility.yul\":1313:1340   */\n      tag_170\n      jump\t// in\n    tag_233:\n        /* \"#utility.yul\":1305:1311   */\n      dup2\n        /* \"#utility.yul\":1301:1341   */\n      add\n        /* \"#utility.yul\":1443:1449   */\n      dup2\n        /* \"#utility.yul\":1431:1441   */\n      dup2\n        /* \"#utility.yul\":1428:1450   */\n      lt\n        /* \"#utility.yul\":1407:1425   */\n      0xffffffffffffffff\n        /* \"#utility.yul\":1395:1405   */\n      dup3\n        /* \"#utility.yul\":1392:1426   */\n      gt\n        /* \"#utility.yul\":1389:1451   */\n      or\n        /* \"#utility.yul\":1386:1474   */\n      iszero\n      tag_234\n      jumpi\n        /* \"#utility.yul\":1454:1472   */\n      tag_235\n      tag_171\n      jump\t// in\n    tag_235:\n        /* \"#utility.yul\":1386:1474   */\n    tag_234:\n        /* \"#utility.yul\":1494:1504   */\n      dup1\n        /* \"#utility.yul\":1490:1492   */\n      0x40\n        /* \"#utility.yul\":1483:1505   */\n      mstore\n        /* \"#utility.yul\":1273:1511   */\n      pop\n        /* \"#utility.yul\":1230:1511   */\n      pop\n      pop\n      jump\t// out\n        /* \"#utility.yul\":1517:1646   */\n    tag_173:\n        /* \"#utility.yul\":1551:1557   */\n      0x00\n        /* \"#utility.yul\":1578:1598   */\n      tag_237\n      tag_162\n      jump\t// in\n    tag_237:\n        /* \"#utility.yul\":1568:1598   */\n      swap1\n      pop\n        /* \"#utility.yul\":1607:1640   */\n      tag_238\n        /* \"#utility.yul\":1635:1639   */\n      dup3\n        /* \"#utility.yul\":1627:1633   */\n      dup3\n        /* \"#utility.yul\":1607:1640   */\n      tag_172\n      jump\t// in\n    tag_238:\n        /* \"#utility.yul\":1517:1646   */\n      swap2\n      swap1\n      pop\n      jump\t// out\n        /* \"#utility.yul\":1652:1960   */\n    tag_174:\n        /* \"#utility.yul\":1714:1718   */\n      0x00\n        /* \"#utility.yul\":1804:1822   */\n      0xffffffffffffffff\n        /* \"#utility.yul\":1796:1802   */\n      dup3\n        /* \"#utility.yul\":1793:1823   */\n      gt\n        /* \"#utility.yul\":1790:1846   */\n      iszero\n      tag_240\n      jumpi\n        /* \"#utility.yul\":1826:1844   */\n      tag_241\n      tag_171\n      jump\t// in\n    tag_241:\n        /* \"#utility.yul\":1790:1846   */\n    tag_240:\n        /* \"#utility.yul\":1864:1893   */\n      tag_242\n        /* \"#utility.yul\":1886:1892   */\n      dup3\n        /* \"#utility.yul\":1864:1893   */\n      tag_170\n      jump\t// in\n    tag_242:\n        /* \"#utility.yul\":1856:1893   */\n      swap1\n      pop\n        /* \"#utility.yul\":1948:1952   */\n      0x20\n        /* \"#utility.yul\":1942:1946   */\n      dup2\n        /* \"#utility.yul\":1938:1953   */\n      add\n        /* \"#utility.yul\":1930:1953   */\n      swap1\n      pop\n        /* \"#utility.yul\":1652:1960   */\n      swap2\n      swap1\n      pop\n      jump\t// out\n        /* \"#utility.yul\":1966:2114   */\n    tag_175:\n        /* \"#utility.yul\":2064:2070   */\n      dup3\n        /* \"#utility.yul\":2059:2062   */\n      dup2\n        /* \"#utility.yul\":2054:2057   */\n      dup4\n        /* \"#utility.yul\":2041:2071   */\n      calldatacopy\n        /* \"#utility.yul\":2105:2106   */\n      0x00\n        /* \"#utility.yul\":2096:2102   */\n      dup4\n        /* \"#utility.yul\":2091:2094   */\n      dup4\n        /* \"#utility.yul\":2087:2103   */\n      add\n        /* \"#utility.yul\":2080:2107   */\n      mstore\n        /* \"#utility.yul\":1966:2114   */\n      pop\n      pop\n      pop\n      jump\t// out\n        /* \"#utility.yul\":2120:2545   */\n    tag_176:\n        /* \"#utility.yul\":2198:2203   */\n      0x00\n        /* \"#utility.yul\":2223:2289   */\n      tag_245\n        /* \"#utility.yul\":2239:2288   */\n      tag_246\n        /* \"#utility.yul\":2281:2287   */\n      dup5\n        /* \"#utility.yul\":2239:2288   */\n      tag_174\n      jump\t// in\n    tag_246:\n        /* \"#utility.yul\":2223:2289   */\n      tag_173\n      jump\t// in\n    tag_245:\n        /* \"#utility.yul\":2214:2289   */\n      swap1\n      pop\n        /* \"#utility.yul\":2312:2318   */\n      dup3\n        /* \"#utility.yul\":2305:2310   */\n      dup2\n        /* \"#utility.yul\":2298:2319   */\n      mstore\n        /* \"#utility.yul\":2350:2354   */\n      0x20\n        /* \"#utility.yul\":2343:2348   */\n      dup2\n        /* \"#utility.yul\":2339:2355   */\n      add\n        /* \"#utility.yul\":2388:2391   */\n      dup5\n        /* \"#utility.yul\":2379:2385   */\n      dup5\n        /* \"#utility.yul\":2374:2377   */\n      dup5\n        /* \"#utility.yul\":2370:2386   */\n      add\n        /* \"#utility.yul\":2367:2392   */\n      gt\n        /* \"#utility.yul\":2364:2476   */\n      iszero\n      tag_247\n      jumpi\n        /* \"#utility.yul\":2395:2474   */\n      tag_248\n      tag_169\n      jump\t// in\n    tag_248:\n        /* \"#utility.yul\":2364:2476   */\n    tag_247:\n        /* \"#utility.yul\":2485:2539   */\n      tag_249\n        /* \"#utility.yul\":2532:2538   */\n      dup5\n        /* \"#utility.yul\":2527:2530   */\n      dup3\n        /* \"#utility.yul\":2522:2525   */\n      dup6\n        /* \"#utility.yul\":2485:2539   */\n      tag_175\n      jump\t// in\n    tag_249:\n        /* \"#utility.yul\":2204:2545   */\n      pop\n        /* \"#utility.yul\":2120:2545   */\n      swap4\n      swap3\n      pop\n      pop\n      pop\n      jump\t// out\n        /* \"#utility.yul\":2565:2905   */\n    tag_177:\n        /* \"#utility.yul\":2621:2626   */\n      0x00\n        /* \"#utility.yul\":2670:2673   */\n      dup3\n        /* \"#utility.yul\":2663:2667   */\n      0x1f\n        /* \"#utility.yul\":2655:2661   */\n      dup4\n        /* \"#utility.yul\":2651:2668   */\n      add\n        /* \"#utility.yul\":2647:2674   */\n      slt\n        /* \"#utility.yul\":2637:2759   */\n      tag_251\n      jumpi\n        /* \"#utility.yul\":2678:2757   */\n      tag_252\n      tag_168\n      jump\t// in\n    tag_252:\n        /* \"#utility.yul\":2637:2759   */\n    tag_251:\n        /* \"#utility.yul\":2795:2801   */\n      dup2\n        /* \"#utility.yul\":2782:2802   */\n      calldataload\n        /* \"#utility.yul\":2820:2899   */\n      tag_253\n        /* \"#utility.yul\":2895:2898   */\n      dup5\n        /* \"#utility.yul\":2887:2893   */\n      dup3\n        /* \"#utility.yul\":2880:2884   */\n      0x20\n        /* \"#utility.yul\":2872:2878   */\n      dup7\n        /* \"#utility.yul\":2868:2885   */\n      add\n        /* \"#utility.yul\":2820:2899   */\n      tag_176\n      jump\t// in\n    tag_253:\n        /* \"#utility.yul\":2811:2899   */\n      swap2\n      pop\n        /* \"#utility.yul\":2627:2905   */\n      pop\n        /* \"#utility.yul\":2565:2905   */\n      swap3\n      swap2\n      pop\n      pop\n      jump\t// out\n        /* \"#utility.yul\":2911:3565   */\n    tag_16:\n        /* \"#utility.yul\":2989:2995   */\n      0x00\n        /* \"#utility.yul\":2997:3003   */\n      dup1\n        /* \"#utility.yul\":3046:3048   */\n      0x40\n        /* \"#utility.yul\":3034:3043   */\n      dup4\n        /* \"#utility.yul\":3025:3032   */\n      dup6\n        /* \"#utility.yul\":3021:3044   */\n      sub\n        /* \"#utility.yul\":3017:3049   */\n      slt\n        /* \"#utility.yul\":3014:3133   */\n      iszero\n      tag_255\n      jumpi\n        /* \"#utility.yul\":3052:3131   */\n      tag_256\n      tag_163\n      jump\t// in\n    tag_256:\n        /* \"#utility.yul\":3014:3133   */\n    tag_255:\n        /* \"#utility.yul\":3172:3173   */\n      0x00\n        /* \"#utility.yul\":3197:3250   */\n      tag_257\n        /* \"#utility.yul\":3242:3249   */\n      dup6\n        /* \"#utility.yul\":3233:3239   */\n      dup3\n        /* \"#utility.yul\":3222:3231   */\n      dup7\n        /* \"#utility.yul\":3218:3240   */\n      add\n        /* \"#utility.yul\":3197:3250   */\n      tag_167\n      jump\t// in\n    tag_257:\n        /* \"#utility.yul\":3187:3250   */\n      swap3\n      pop\n        /* \"#utility.yul\":3143:3260   */\n      pop\n        /* \"#utility.yul\":3327:3329   */\n      0x20\n        /* \"#utility.yul\":3316:3325   */\n      dup4\n        /* \"#utility.yul\":3312:3330   */\n      add\n        /* \"#utility.yul\":3299:3331   */\n      calldataload\n        /* \"#utility.yul\":3358:3376   */\n      0xffffffffffffffff\n        /* \"#utility.yul\":3350:3356   */\n      dup2\n        /* \"#utility.yul\":3347:3377   */\n      gt\n        /* \"#utility.yul\":3344:3461   */\n      iszero\n      tag_258\n      jumpi\n        /* \"#utility.yul\":3380:3459   */\n      tag_259\n      tag_164\n      jump\t// in\n    tag_259:\n        /* \"#utility.yul\":3344:3461   */\n    tag_258:\n        /* \"#utility.yul\":3485:3548   */\n      tag_260\n        /* \"#utility.yul\":3540:3547   */\n      dup6\n        /* \"#utility.yul\":3531:3537   */\n      dup3\n        /* \"#utility.yul\":3520:3529   */\n      dup7\n        /* \"#utility.yul\":3516:3538   */\n      add\n        /* \"#utility.yul\":3485:3548   */\n      tag_177\n      jump\t// in\n    tag_260:\n        /* \"#utility.yul\":3475:3548   */\n      swap2\n      pop\n        /* \"#utility.yul\":3270:3558   */\n      pop\n        /* \"#utility.yul\":2911:3565   */\n      swap3\n      pop\n      swap3\n      swap1\n      pop\n      jump\t// out\n        /* \"#utility.yul\":3571:3900   */\n    tag_20:\n        /* \"#utility.yul\":3630:3636   */\n      0x00\n        /* \"#utility.yul\":3679:3681   */\n      0x20\n        /* \"#utility.yul\":3667:3676   */\n      dup3\n        /* \"#utility.yul\":3658:3665   */\n      dup5\n        /* \"#utility.yul\":3654:3677   */\n      sub\n        /* \"#utility.yul\":3650:3682   */\n      slt\n        /* \"#utility.yul\":3647:3766   */\n      iszero\n      tag_262\n      jumpi\n        /* \"#utility.yul\":3685:3764   */\n      tag_263\n      tag_163\n      jump\t// in\n    tag_263:\n        /* \"#utility.yul\":3647:3766   */\n    tag_262:\n        /* \"#utility.yul\":3805:3806   */\n      0x00\n        /* \"#utility.yul\":3830:3883   */\n      tag_264\n        /* \"#utility.yul\":3875:3882   */\n      dup5\n        /* \"#utility.yul\":3866:3872   */\n      dup3\n        /* \"#utility.yul\":3855:3864   */\n      dup6\n        /* \"#utility.yul\":3851:3873   */\n      add\n        /* \"#utility.yul\":3830:3883   */\n      tag_167\n      jump\t// in\n    tag_264:\n        /* \"#utility.yul\":3820:3883   */\n      swap2\n      pop\n        /* \"#utility.yul\":3776:3893   */\n      pop\n        /* \"#utility.yul\":3571:3900   */\n      swap3\n      swap2\n      pop\n      pop\n      jump\t// out\n        /* \"#utility.yul\":3906:4024   */\n    tag_178:\n        /* \"#utility.yul\":3993:4017   */\n      tag_266\n        /* \"#utility.yul\":4011:4016   */\n      dup2\n        /* \"#utility.yul\":3993:4017   */\n      tag_165\n      jump\t// in\n    tag_266:\n        /* \"#utility.yul\":3988:3991   */\n      dup3\n        /* \"#utility.yul\":3981:4018   */\n      mstore\n        /* \"#utility.yul\":3906:4024   */\n      pop\n      pop\n      jump\t// out\n        /* \"#utility.yul\":4030:4252   */\n    tag_23:\n        /* \"#utility.yul\":4123:4127   */\n      0x00\n        /* \"#utility.yul\":4161:4163   */\n      0x20\n        /* \"#utility.yul\":4150:4159   */\n      dup3\n        /* \"#utility.yul\":4146:4164   */\n      add\n        /* \"#utility.yul\":4138:4164   */\n      swap1\n      pop\n        /* \"#utility.yul\":4174:4245   */\n      tag_268\n        /* \"#utility.yul\":4242:4243   */\n      0x00\n        /* \"#utility.yul\":4231:4240   */\n      dup4\n        /* \"#utility.yul\":4227:4244   */\n      add\n        /* \"#utility.yul\":4218:4224   */\n      dup5\n        /* \"#utility.yul\":4174:4245   */\n      tag_178\n      jump\t// in\n    tag_268:\n        /* \"#utility.yul\":4030:4252   */\n      swap3\n      swap2\n      pop\n      pop\n      jump\t// out\n        /* \"#utility.yul\":4258:4357   */\n    tag_179:\n        /* \"#utility.yul\":4310:4316   */\n      0x00\n        /* \"#utility.yul\":4344:4349   */\n      dup2\n        /* \"#utility.yul\":4338:4350   */\n      mload\n        /* \"#utility.yul\":4328:4350   */\n      swap1\n      pop\n        /* \"#utility.yul\":4258:4357   */\n      swap2\n      swap1\n      pop\n      jump\t// out\n        /* \"#utility.yul\":4363:4532   */\n    tag_180:\n        /* \"#utility.yul\":4447:4458   */\n      0x00\n        /* \"#utility.yul\":4481:4487   */\n      dup3\n        /* \"#utility.yul\":4476:4479   */\n      dup3\n        /* \"#utility.yul\":4469:4488   */\n      mstore\n        /* \"#utility.yul\":4521:4525   */\n      0x20\n        /* \"#utility.yul\":4516:4519   */\n      dup3\n        /* \"#utility.yul\":4512:4526   */\n      add\n        /* \"#utility.yul\":4497:4526   */\n      swap1\n      pop\n        /* \"#utility.yul\":4363:4532   */\n      swap3\n      swap2\n      pop\n      pop\n      jump\t// out\n        /* \"#utility.yul\":4538:4677   */\n    tag_181:\n        /* \"#utility.yul\":4627:4633   */\n      dup3\n        /* \"#utility.yul\":4622:4625   */\n      dup2\n        /* \"#utility.yul\":4617:4620   */\n      dup4\n        /* \"#utility.yul\":4611:4634   */\n      mcopy\n        /* \"#utility.yul\":4668:4669   */\n      0x00\n        /* \"#utility.yul\":4659:4665   */\n      dup4\n        /* \"#utility.yul\":4654:4657   */\n      dup4\n        /* \"#utility.yul\":4650:4666   */\n      add\n        /* \"#utility.yul\":4643:4670   */\n      mstore\n        /* \"#utility.yul\":4538:4677   */\n      pop\n      pop\n      pop\n      jump\t// out\n        /* \"#utility.yul\":4683:5060   */\n    tag_182:\n        /* \"#utility.yul\":4771:4774   */\n      0x00\n        /* \"#utility.yul\":4799:4838   */\n      tag_273\n        /* \"#utility.yul\":4832:4837   */\n      dup3\n        /* \"#utility.yul\":4799:4838   */\n      tag_179\n      jump\t// in\n    tag_273:\n        /* \"#utility.yul\":4854:4925   */\n      tag_274\n        /* \"#utility.yul\":4918:4924   */\n      dup2\n        /* \"#utility.yul\":4913:4916   */\n      dup6\n        /* \"#utility.yul\":4854:4925   */\n      tag_180\n      jump\t// in\n    tag_274:\n        /* \"#utility.yul\":4847:4925   */\n      swap4\n      pop\n        /* \"#utility.yul\":4934:4999   */\n      tag_275\n        /* \"#utility.yul\":4992:4998   */\n      dup2\n        /* \"#utility.yul\":4987:4990   */\n      dup6\n        /* \"#utility.yul\":4980:4984   */\n      0x20\n        /* \"#utility.yul\":4973:4978   */\n      dup7\n        /* \"#utility.yul\":4969:4985   */\n      add\n        /* \"#utility.yul\":4934:4999   */\n      tag_181\n      jump\t// in\n    tag_275:\n        /* \"#utility.yul\":5024:5053   */\n      tag_276\n        /* \"#utility.yul\":5046:5052   */\n      dup2\n        /* \"#utility.yul\":5024:5053   */\n      tag_170\n      jump\t// in\n    tag_276:\n        /* \"#utility.yul\":5019:5022   */\n      dup5\n        /* \"#utility.yul\":5015:5054   */\n      add\n        /* \"#utility.yul\":5008:5054   */\n      swap2\n      pop\n        /* \"#utility.yul\":4775:5060   */\n      pop\n        /* \"#utility.yul\":4683:5060   */\n      swap3\n      swap2\n      pop\n      pop\n      jump\t// out\n        /* \"#utility.yul\":5066:5489   */\n    tag_28:\n        /* \"#utility.yul\":5207:5211   */\n      0x00\n        /* \"#utility.yul\":5245:5247   */\n      0x40\n        /* \"#utility.yul\":5234:5243   */\n      dup3\n        /* \"#utility.yul\":5230:5248   */\n      add\n        /* \"#utility.yul\":5222:5248   */\n      swap1\n      pop\n        /* \"#utility.yul\":5294:5303   */\n      dup2\n        /* \"#utility.yul\":5288:5292   */\n      dup2\n        /* \"#utility.yul\":5284:5304   */\n      sub\n        /* \"#utility.yul\":5280:5281   */\n      0x00\n        /* \"#utility.yul\":5269:5278   */\n      dup4\n        /* \"#utility.yul\":5265:5282   */\n      add\n        /* \"#utility.yul\":5258:5305   */\n      mstore\n        /* \"#utility.yul\":5322:5400   */\n      tag_278\n        /* \"#utility.yul\":5395:5399   */\n      dup2\n        /* \"#utility.yul\":5386:5392   */\n      dup6\n        /* \"#utility.yul\":5322:5400   */\n      tag_182\n      jump\t// in\n    tag_278:\n        /* \"#utility.yul\":5314:5400   */\n      swap1\n      pop\n        /* \"#utility.yul\":5410:5482   */\n      tag_279\n        /* \"#utility.yul\":5478:5480   */\n      0x20\n        /* \"#utility.yul\":5467:5476   */\n      dup4\n        /* \"#utility.yul\":5463:5481   */\n      add\n        /* \"#utility.yul\":5454:5460   */\n      dup5\n        /* \"#utility.yul\":5410:5482   */\n      tag_178\n      jump\t// in\n    tag_279:\n        /* \"#utility.yul\":5066:5489   */\n      swap4\n      swap3\n      pop\n      pop\n      pop\n      jump\t// out\n        /* \"#utility.yul\":5495:6149   */\n    tag_31:\n        /* \"#utility.yul\":5573:5579   */\n      0x00\n        /* \"#utility.yul\":5581:5587   */\n      dup1\n        /* \"#utility.yul\":5630:5632   */\n      0x40\n        /* \"#utility.yul\":5618:5627   */\n      dup4\n        /* \"#utility.yul\":5609:5616   */\n      dup6\n        /* \"#utility.yul\":5605:5628   */\n      sub\n        /* \"#utility.yul\":5601:5633   */\n      slt\n        /* \"#utility.yul\":5598:5717   */\n      iszero\n      tag_281\n      jumpi\n        /* \"#utility.yul\":5636:5715   */\n      tag_282\n      tag_163\n      jump\t// in\n    tag_282:\n        /* \"#utility.yul\":5598:5717   */\n    tag_281:\n        /* \"#utility.yul\":5784:5785   */\n      0x00\n        /* \"#utility.yul\":5773:5782   */\n      dup4\n        /* \"#utility.yul\":5769:5786   */\n      add\n        /* \"#utility.yul\":5756:5787   */\n      calldataload\n        /* \"#utility.yul\":5814:5832   */\n      0xffffffffffffffff\n        /* \"#utility.yul\":5806:5812   */\n      dup2\n        /* \"#utility.yul\":5803:5833   */\n      gt\n        /* \"#utility.yul\":5800:5917   */\n      iszero\n      tag_283\n      jumpi\n        /* \"#utility.yul\":5836:5915   */\n      tag_284\n      tag_164\n      jump\t// in\n    tag_284:\n        /* \"#utility.yul\":5800:5917   */\n    tag_283:\n        /* \"#utility.yul\":5941:6004   */\n      tag_285\n        /* \"#utility.yul\":5996:6003   */\n      dup6\n        /* \"#utility.yul\":5987:5993   */\n      dup3\n        /* \"#utility.yul\":5976:5985   */\n      dup7\n        /* \"#utility.yul\":5972:5994   */\n      add\n        /* \"#utility.yul\":5941:6004   */\n      tag_177\n      jump\t// in\n    tag_285:\n        /* \"#utility.yul\":5931:6004   */\n      swap3\n      pop\n        /* \"#utility.yul\":5727:6014   */\n      pop\n        /* \"#utility.yul\":6053:6055   */\n      0x20\n        /* \"#utility.yul\":6079:6132   */\n      tag_286\n        /* \"#utility.yul\":6124:6131   */\n      dup6\n        /* \"#utility.yul\":6115:6121   */\n      dup3\n        /* \"#utility.yul\":6104:6113   */\n      dup7\n        /* \"#utility.yul\":6100:6122   */\n      add\n        /* \"#utility.yul\":6079:6132   */\n      tag_167\n      jump\t// in\n    tag_286:\n        /* \"#utility.yul\":6069:6132   */\n      swap2\n      pop\n        /* \"#utility.yul\":6024:6142   */\n      pop\n        /* \"#utility.yul\":5495:6149   */\n      swap3\n      pop\n      swap3\n      swap1\n      pop\n      jump\t// out\n        /* \"#utility.yul\":6155:6629   */\n    tag_35:\n        /* \"#utility.yul\":6223:6229   */\n      0x00\n        /* \"#utility.yul\":6231:6237   */\n      dup1\n        /* \"#utility.yul\":6280:6282   */\n      0x40\n        /* \"#utility.yul\":6268:6277   */\n      dup4\n        /* \"#utility.yul\":6259:6266   */\n      dup6\n        /* \"#utility.yul\":6255:6278   */\n      sub\n        /* \"#utility.yul\":6251:6283   */\n      slt\n        /* \"#utility.yul\":6248:6367   */\n      iszero\n      tag_288\n      jumpi\n        /* \"#utility.yul\":6286:6365   */\n      tag_289\n      tag_163\n      jump\t// in\n    tag_289:\n        /* \"#utility.yul\":6248:6367   */\n    tag_288:\n        /* \"#utility.yul\":6406:6407   */\n      0x00\n        /* \"#utility.yul\":6431:6484   */\n      tag_290\n        /* \"#utility.yul\":6476:6483   */\n      dup6\n        /* \"#utility.yul\":6467:6473   */\n      dup3\n        /* \"#utility.yul\":6456:6465   */\n      dup7\n        /* \"#utility.yul\":6452:6474   */\n      add\n        /* \"#utility.yul\":6431:6484   */\n      tag_167\n      jump\t// in\n    tag_290:\n        /* \"#utility.yul\":6421:6484   */\n      swap3\n      pop\n        /* \"#utility.yul\":6377:6494   */\n      pop\n        /* \"#utility.yul\":6533:6535   */\n      0x20\n        /* \"#utility.yul\":6559:6612   */\n      tag_291\n        /* \"#utility.yul\":6604:6611   */\n      dup6\n        /* \"#utility.yul\":6595:6601   */\n      dup3\n        /* \"#utility.yul\":6584:6593   */\n      dup7\n        /* \"#utility.yul\":6580:6602   */\n      add\n        /* \"#utility.yul\":6559:6612   */\n      tag_167\n      jump\t// in\n    tag_291:\n        /* \"#utility.yul\":6549:6612   */\n      swap2\n      pop\n        /* \"#utility.yul\":6504:6622   */\n      pop\n        /* \"#utility.yul\":6155:6629   */\n      swap3\n      pop\n      swap3\n      swap1\n      pop\n      jump\t// out\n        /* \"#utility.yul\":6635:6725   */\n    tag_183:\n        /* \"#utility.yul\":6669:6676   */\n      0x00\n        /* \"#utility.yul\":6712:6717   */\n      dup2\n        /* \"#utility.yul\":6705:6718   */\n      iszero\n        /* \"#utility.yul\":6698:6719   */\n      iszero\n        /* \"#utility.yul\":6687:6719   */\n      swap1\n      pop\n        /* \"#utility.yul\":6635:6725   */\n      swap2\n      swap1\n      pop\n      jump\t// out\n        /* \"#utility.yul\":6731:6840   */\n    tag_184:\n        /* \"#utility.yul\":6812:6833   */\n      tag_294\n        /* \"#utility.yul\":6827:6832   */\n      dup2\n        /* \"#utility.yul\":6812:6833   */\n      tag_183\n      jump\t// in\n    tag_294:\n        /* \"#utility.yul\":6807:6810   */\n      dup3\n        /* \"#utility.yul\":6800:6834   */\n      mstore\n        /* \"#utility.yul\":6731:6840   */\n      pop\n      pop\n      jump\t// out\n        /* \"#utility.yul\":6846:7700   */\n    tag_42:\n        /* \"#utility.yul\":7093:7097   */\n      0x00\n        /* \"#utility.yul\":7131:7134   */\n      0xc0\n        /* \"#utility.yul\":7120:7129   */\n      dup3\n        /* \"#utility.yul\":7116:7135   */\n      add\n        /* \"#utility.yul\":7108:7135   */\n      swap1\n      pop\n        /* \"#utility.yul\":7145:7216   */\n      tag_296\n        /* \"#utility.yul\":7213:7214   */\n      0x00\n        /* \"#utility.yul\":7202:7211   */\n      dup4\n        /* \"#utility.yul\":7198:7215   */\n      add\n        /* \"#utility.yul\":7189:7195   */\n      dup10\n        /* \"#utility.yul\":7145:7216   */\n      tag_178\n      jump\t// in\n    tag_296:\n        /* \"#utility.yul\":7263:7272   */\n      dup2\n        /* \"#utility.yul\":7257:7261   */\n      dup2\n        /* \"#utility.yul\":7253:7273   */\n      sub\n        /* \"#utility.yul\":7248:7250   */\n      0x20\n        /* \"#utility.yul\":7237:7246   */\n      dup4\n        /* \"#utility.yul\":7233:7251   */\n      add\n        /* \"#utility.yul\":7226:7274   */\n      mstore\n        /* \"#utility.yul\":7291:7369   */\n      tag_297\n        /* \"#utility.yul\":7364:7368   */\n      dup2\n        /* \"#utility.yul\":7355:7361   */\n      dup9\n        /* \"#utility.yul\":7291:7369   */\n      tag_182\n      jump\t// in\n    tag_297:\n        /* \"#utility.yul\":7283:7369   */\n      swap1\n      pop\n        /* \"#utility.yul\":7379:7445   */\n      tag_298\n        /* \"#utility.yul\":7441:7443   */\n      0x40\n        /* \"#utility.yul\":7430:7439   */\n      dup4\n        /* \"#utility.yul\":7426:7444   */\n      add\n        /* \"#utility.yul\":7417:7423   */\n      dup8\n        /* \"#utility.yul\":7379:7445   */\n      tag_184\n      jump\t// in\n    tag_298:\n        /* \"#utility.yul\":7455:7527   */\n      tag_299\n        /* \"#utility.yul\":7523:7525   */\n      0x60\n        /* \"#utility.yul\":7512:7521   */\n      dup4\n        /* \"#utility.yul\":7508:7526   */\n      add\n        /* \"#utility.yul\":7499:7505   */\n      dup7\n        /* \"#utility.yul\":7455:7527   */\n      tag_178\n      jump\t// in\n    tag_299:\n        /* \"#utility.yul\":7537:7610   */\n      tag_300\n        /* \"#utility.yul\":7605:7608   */\n      0x80\n        /* \"#utility.yul\":7594:7603   */\n      dup4\n        /* \"#utility.yul\":7590:7609   */\n      add\n        /* \"#utility.yul\":7581:7587   */\n      dup6\n        /* \"#utility.yul\":7537:7610   */\n      tag_178\n      jump\t// in\n    tag_300:\n        /* \"#utility.yul\":7620:7693   */\n      tag_301\n        /* \"#utility.yul\":7688:7691   */\n      0xa0\n        /* \"#utility.yul\":7677:7686   */\n      dup4\n        /* \"#utility.yul\":7673:7692   */\n      add\n        /* \"#utility.yul\":7664:7670   */\n      dup5\n        /* \"#utility.yul\":7620:7693   */\n      tag_178\n      jump\t// in\n    tag_301:\n        /* \"#utility.yul\":6846:7700   */\n      swap8\n      swap7\n      pop\n      pop\n      pop\n      pop\n      pop\n      pop\n      pop\n      jump\t// out\n        /* \"#utility.yul\":7706:7832   */\n    tag_185:\n        /* \"#utility.yul\":7743:7750   */\n      0x00\n        /* \"#utility.yul\":7783:7825   */\n      0xffffffffffffffffffffffffffffffffffffffff\n        /* \"#utility.yul\":7776:7781   */\n      dup3\n        /* \"#utility.yul\":7772:7826   */\n      and\n        /* \"#utility.yul\":7761:7826   */\n      swap1\n      pop\n        /* \"#utility.yul\":7706:7832   */\n      swap2\n      swap1\n      pop\n      jump\t// out\n        /* \"#utility.yul\":7838:7934   */\n    tag_186:\n        /* \"#utility.yul\":7875:7882   */\n      0x00\n        /* \"#utility.yul\":7904:7928   */\n      tag_304\n        /* \"#utility.yul\":7922:7927   */\n      dup3\n        /* \"#utility.yul\":7904:7928   */\n      tag_185\n      jump\t// in\n    tag_304:\n        /* \"#utility.yul\":7893:7928   */\n      swap1\n      pop\n        /* \"#utility.yul\":7838:7934   */\n      swap2\n      swap1\n      pop\n      jump\t// out\n        /* \"#utility.yul\":7940:8058   */\n    tag_187:\n        /* \"#utility.yul\":8027:8051   */\n      tag_306\n        /* \"#utility.yul\":8045:8050   */\n      dup2\n        /* \"#utility.yul\":8027:8051   */\n      tag_186\n      jump\t// in\n    tag_306:\n        /* \"#utility.yul\":8022:8025   */\n      dup3\n        /* \"#utility.yul\":8015:8052   */\n      mstore\n        /* \"#utility.yul\":7940:8058   */\n      pop\n      pop\n      jump\t// out\n        /* \"#utility.yul\":8064:8286   */\n    tag_55:\n        /* \"#utility.yul\":8157:8161   */\n      0x00\n        /* \"#utility.yul\":8195:8197   */\n      0x20\n        /* \"#utility.yul\":8184:8193   */\n      dup3\n        /* \"#utility.yul\":8180:8198   */\n      add\n        /* \"#utility.yul\":8172:8198   */\n      swap1\n      pop\n        /* \"#utility.yul\":8208:8279   */\n      tag_308\n        /* \"#utility.yul\":8276:8277   */\n      0x00\n        /* \"#utility.yul\":8265:8274   */\n      dup4\n        /* \"#utility.yul\":8261:8278   */\n      add\n        /* \"#utility.yul\":8252:8258   */\n      dup5\n        /* \"#utility.yul\":8208:8279   */\n      tag_187\n      jump\t// in\n    tag_308:\n        /* \"#utility.yul\":8064:8286   */\n      swap3\n      swap2\n      pop\n      pop\n      jump\t// out\n        /* \"#utility.yul\":8292:8516   */\n    tag_188:\n        /* \"#utility.yul\":8432:8466   */\n      0x4f6e6c792061646d696e2063616e20706572666f726d2074686973206f706572\n        /* \"#utility.yul\":8428:8429   */\n      0x00\n        /* \"#utility.yul\":8420:8426   */\n      dup3\n        /* \"#utility.yul\":8416:8430   */\n      add\n        /* \"#utility.yul\":8409:8467   */\n      mstore\n        /* \"#utility.yul\":8501:8508   */\n      0x6174696f6e000000000000000000000000000000000000000000000000000000\n        /* \"#utility.yul\":8496:8498   */\n      0x20\n        /* \"#utility.yul\":8488:8494   */\n      dup3\n        /* \"#utility.yul\":8484:8499   */\n      add\n        /* \"#utility.yul\":8477:8509   */\n      mstore\n        /* \"#utility.yul\":8292:8516   */\n      pop\n      jump\t// out\n        /* \"#utility.yul\":8522:8888   */\n    tag_189:\n        /* \"#utility.yul\":8664:8667   */\n      0x00\n        /* \"#utility.yul\":8685:8752   */\n      tag_311\n        /* \"#utility.yul\":8749:8751   */\n      0x25\n        /* \"#utility.yul\":8744:8747   */\n      dup4\n        /* \"#utility.yul\":8685:8752   */\n      tag_180\n      jump\t// in\n    tag_311:\n        /* \"#utility.yul\":8678:8752   */\n      swap2\n      pop\n        /* \"#utility.yul\":8761:8854   */\n      tag_312\n        /* \"#utility.yul\":8850:8853   */\n      dup3\n        /* \"#utility.yul\":8761:8854   */\n      tag_188\n      jump\t// in\n    tag_312:\n        /* \"#utility.yul\":8879:8881   */\n      0x40\n        /* \"#utility.yul\":8874:8877   */\n      dup3\n        /* \"#utility.yul\":8870:8882   */\n      add\n        /* \"#utility.yul\":8863:8882   */\n      swap1\n      pop\n        /* \"#utility.yul\":8522:8888   */\n      swap2\n      swap1\n      pop\n      jump\t// out\n        /* \"#utility.yul\":8894:9313   */\n    tag_59:\n        /* \"#utility.yul\":9060:9064   */\n      0x00\n        /* \"#utility.yul\":9098:9100   */\n      0x20\n        /* \"#utility.yul\":9087:9096   */\n      dup3\n        /* \"#utility.yul\":9083:9101   */\n      add\n        /* \"#utility.yul\":9075:9101   */\n      swap1\n      pop\n        /* \"#utility.yul\":9147:9156   */\n      dup2\n        /* \"#utility.yul\":9141:9145   */\n      dup2\n        /* \"#utility.yul\":9137:9157   */\n      sub\n        /* \"#utility.yul\":9133:9134   */\n      0x00\n        /* \"#utility.yul\":9122:9131   */\n      dup4\n        /* \"#utility.yul\":9118:9135   */\n      add\n        /* \"#utility.yul\":9111:9158   */\n      mstore\n        /* \"#utility.yul\":9175:9306   */\n      tag_314\n        /* \"#utility.yul\":9301:9305   */\n      dup2\n        /* \"#utility.yul\":9175:9306   */\n      tag_189\n      jump\t// in\n    tag_314:\n        /* \"#utility.yul\":9167:9306   */\n      swap1\n      pop\n        /* \"#utility.yul\":8894:9313   */\n      swap2\n      swap1\n      pop\n      jump\t// out\n        /* \"#utility.yul\":9319:9491   */\n    tag_190:\n        /* \"#utility.yul\":9459:9483   */\n      0x456c656374696f6e20646f65736e277420657869737400000000000000000000\n        /* \"#utility.yul\":9455:9456   */\n      0x00\n        /* \"#utility.yul\":9447:9453   */\n      dup3\n        /* \"#utility.yul\":9443:9457   */\n      add\n        /* \"#utility.yul\":9436:9484   */\n      mstore\n        /* \"#utility.yul\":9319:9491   */\n      pop\n      jump\t// out\n        /* \"#utility.yul\":9497:9863   */\n    tag_191:\n        /* \"#utility.yul\":9639:9642   */\n      0x00\n        /* \"#utility.yul\":9660:9727   */\n      tag_317\n        /* \"#utility.yul\":9724:9726   */\n      0x16\n        /* \"#utility.yul\":9719:9722   */\n      dup4\n        /* \"#utility.yul\":9660:9727   */\n      tag_180\n      jump\t// in\n    tag_317:\n        /* \"#utility.yul\":9653:9727   */\n      swap2\n      pop\n        /* \"#utility.yul\":9736:9829   */\n      tag_318\n        /* \"#utility.yul\":9825:9828   */\n      dup3\n        /* \"#utility.yul\":9736:9829   */\n      tag_190\n      jump\t// in\n    tag_318:\n        /* \"#utility.yul\":9854:9856   */\n      0x20\n        /* \"#utility.yul\":9849:9852   */\n      dup3\n        /* \"#utility.yul\":9845:9857   */\n      add\n        /* \"#utility.yul\":9838:9857   */\n      swap1\n      pop\n        /* \"#utility.yul\":9497:9863   */\n      swap2\n      swap1\n      pop\n      jump\t// out\n        /* \"#utility.yul\":9869:10288   */\n    tag_64:\n        /* \"#utility.yul\":10035:10039   */\n      0x00\n        /* \"#utility.yul\":10073:10075   */\n      0x20\n        /* \"#utility.yul\":10062:10071   */\n      dup3\n        /* \"#utility.yul\":10058:10076   */\n      add\n        /* \"#utility.yul\":10050:10076   */\n      swap1\n      pop\n        /* \"#utility.yul\":10122:10131   */\n      dup2\n        /* \"#utility.yul\":10116:10120   */\n      dup2\n        /* \"#utility.yul\":10112:10132   */\n      sub\n        /* \"#utility.yul\":10108:10109   */\n      0x00\n        /* \"#utility.yul\":10097:10106   */\n      dup4\n        /* \"#utility.yul\":10093:10110   */\n      add\n        /* \"#utility.yul\":10086:10133   */\n      mstore\n        /* \"#utility.yul\":10150:10281   */\n      tag_320\n        /* \"#utility.yul\":10276:10280   */\n      dup2\n        /* \"#utility.yul\":10150:10281   */\n      tag_191\n      jump\t// in\n    tag_320:\n        /* \"#utility.yul\":10142:10281   */\n      swap1\n      pop\n        /* \"#utility.yul\":9869:10288   */\n      swap2\n      swap1\n      pop\n      jump\t// out\n        /* \"#utility.yul\":10294:10466   */\n    tag_192:\n        /* \"#utility.yul\":10434:10458   */\n      0x456c656374696f6e206973206e6f742061637469766500000000000000000000\n        /* \"#utility.yul\":10430:10431   */\n      0x00\n        /* \"#utility.yul\":10422:10428   */\n      dup3\n        /* \"#utility.yul\":10418:10432   */\n      add\n        /* \"#utility.yul\":10411:10459   */\n      mstore\n        /* \"#utility.yul\":10294:10466   */\n      pop\n      jump\t// out\n        /* \"#utility.yul\":10472:10838   */\n    tag_193:\n        /* \"#utility.yul\":10614:10617   */\n      0x00\n        /* \"#utility.yul\":10635:10702   */\n      tag_323\n        /* \"#utility.yul\":10699:10701   */\n      0x16\n        /* \"#utility.yul\":10694:10697   */\n      dup4\n        /* \"#utility.yul\":10635:10702   */\n      tag_180\n      jump\t// in\n    tag_323:\n        /* \"#utility.yul\":10628:10702   */\n      swap2\n      pop\n        /* \"#utility.yul\":10711:10804   */\n      tag_324\n        /* \"#utility.yul\":10800:10803   */\n      dup3\n        /* \"#utility.yul\":10711:10804   */\n      tag_192\n      jump\t// in\n    tag_324:\n        /* \"#utility.yul\":10829:10831   */\n      0x20\n        /* \"#utility.yul\":10824:10827   */\n      dup3\n        /* \"#utility.yul\":10820:10832   */\n      add\n        /* \"#utility.yul\":10813:10832   */\n      swap1\n      pop\n        /* \"#utility.yul\":10472:10838   */\n      swap2\n      swap1\n      pop\n      jump\t// out\n        /* \"#utility.yul\":10844:11263   */\n    tag_68:\n        /* \"#utility.yul\":11010:11014   */\n      0x00\n        /* \"#utility.yul\":11048:11050   */\n      0x20\n        /* \"#utility.yul\":11037:11046   */\n      dup3\n        /* \"#utility.yul\":11033:11051   */\n      add\n        /* \"#utility.yul\":11025:11051   */\n      swap1\n      pop\n        /* \"#utility.yul\":11097:11106   */\n      dup2\n        /* \"#utility.yul\":11091:11095   */\n      dup2\n        /* \"#utility.yul\":11087:11107   */\n      sub\n        /* \"#utility.yul\":11083:11084   */\n      0x00\n        /* \"#utility.yul\":11072:11081   */\n      dup4\n        /* \"#utility.yul\":11068:11085   */\n      add\n        /* \"#utility.yul\":11061:11108   */\n      mstore\n        /* \"#utility.yul\":11125:11256   */\n      tag_326\n        /* \"#utility.yul\":11251:11255   */\n      dup2\n        /* \"#utility.yul\":11125:11256   */\n      tag_193\n      jump\t// in\n    tag_326:\n        /* \"#utility.yul\":11117:11256   */\n      swap1\n      pop\n        /* \"#utility.yul\":10844:11263   */\n      swap2\n      swap1\n      pop\n      jump\t// out\n        /* \"#utility.yul\":11269:11437   */\n    tag_194:\n        /* \"#utility.yul\":11409:11429   */\n      0x456c656374696f6e2068617320656e6465640000000000000000000000000000\n        /* \"#utility.yul\":11405:11406   */\n      0x00\n        /* \"#utility.yul\":11397:11403   */\n      dup3\n        /* \"#utility.yul\":11393:11407   */\n      add\n        /* \"#utility.yul\":11386:11430   */\n      mstore\n        /* \"#utility.yul\":11269:11437   */\n      pop\n      jump\t// out\n        /* \"#utility.yul\":11443:11809   */\n    tag_195:\n        /* \"#utility.yul\":11585:11588   */\n      0x00\n        /* \"#utility.yul\":11606:11673   */\n      tag_329\n        /* \"#utility.yul\":11670:11672   */\n      0x12\n        /* \"#utility.yul\":11665:11668   */\n      dup4\n        /* \"#utility.yul\":11606:11673   */\n      tag_180\n      jump\t// in\n    tag_329:\n        /* \"#utility.yul\":11599:11673   */\n      swap2\n      pop\n        /* \"#utility.yul\":11682:11775   */\n      tag_330\n        /* \"#utility.yul\":11771:11774   */\n      dup3\n        /* \"#utility.yul\":11682:11775   */\n      tag_194\n      jump\t// in\n    tag_330:\n        /* \"#utility.yul\":11800:11802   */\n      0x20\n        /* \"#utility.yul\":11795:11798   */\n      dup3\n        /* \"#utility.yul\":11791:11803   */\n      add\n        /* \"#utility.yul\":11784:11803   */\n      swap1\n      pop\n        /* \"#utility.yul\":11443:11809   */\n      swap2\n      swap1\n      pop\n      jump\t// out\n        /* \"#utility.yul\":11815:12234   */\n    tag_71:\n        /* \"#utility.yul\":11981:11985   */\n      0x00\n        /* \"#utility.yul\":12019:12021   */\n      0x20\n        /* \"#utility.yul\":12008:12017   */\n      dup3\n        /* \"#utility.yul\":12004:12022   */\n      add\n        /* \"#utility.yul\":11996:12022   */\n      swap1\n      pop\n        /* \"#utility.yul\":12068:12077   */\n      dup2\n        /* \"#utility.yul\":12062:12066   */\n      dup2\n        /* \"#utility.yul\":12058:12078   */\n      sub\n        /* \"#utility.yul\":12054:12055   */\n      0x00\n        /* \"#utility.yul\":12043:12052   */\n      dup4\n        /* \"#utility.yul\":12039:12056   */\n      add\n        /* \"#utility.yul\":12032:12079   */\n      mstore\n        /* \"#utility.yul\":12096:12227   */\n      tag_332\n        /* \"#utility.yul\":12222:12226   */\n      dup2\n        /* \"#utility.yul\":12096:12227   */\n      tag_195\n      jump\t// in\n    tag_332:\n        /* \"#utility.yul\":12088:12227   */\n      swap1\n      pop\n        /* \"#utility.yul\":11815:12234   */\n      swap2\n      swap1\n      pop\n      jump\t// out\n        /* \"#utility.yul\":12240:12420   */\n    tag_196:\n        /* \"#utility.yul\":12288:12365   */\n      0x4e487b7100000000000000000000000000000000000000000000000000000000\n        /* \"#utility.yul\":12285:12286   */\n      0x00\n        /* \"#utility.yul\":12278:12366   */\n      mstore\n        /* \"#utility.yul\":12385:12389   */\n      0x11\n        /* \"#utility.yul\":12382:12383   */\n      0x04\n        /* \"#utility.yul\":12375:12390   */\n      mstore\n        /* \"#utility.yul\":12409:12413   */\n      0x24\n        /* \"#utility.yul\":12406:12407   */\n      0x00\n        /* \"#utility.yul\":12399:12414   */\n      revert\n        /* \"#utility.yul\":12426:12659   */\n    tag_74:\n        /* \"#utility.yul\":12465:12468   */\n      0x00\n        /* \"#utility.yul\":12488:12512   */\n      tag_335\n        /* \"#utility.yul\":12506:12511   */\n      dup3\n        /* \"#utility.yul\":12488:12512   */\n      tag_165\n      jump\t// in\n    tag_335:\n        /* \"#utility.yul\":12479:12512   */\n      swap2\n      pop\n        /* \"#utility.yul\":12534:12600   */\n      0xffffffffffffffffffffffffffffffffffffffffffffffffffffffffffffffff\n        /* \"#utility.yul\":12527:12532   */\n      dup3\n        /* \"#utility.yul\":12524:12601   */\n      sub\n        /* \"#utility.yul\":12521:12624   */\n      tag_336\n      jumpi\n        /* \"#utility.yul\":12604:12622   */\n      tag_337\n      tag_196\n      jump\t// in\n    tag_337:\n        /* \"#utility.yul\":12521:12624   */\n    tag_336:\n        /* \"#utility.yul\":12651:12652   */\n      0x01\n        /* \"#utility.yul\":12644:12649   */\n      dup3\n        /* \"#utility.yul\":12640:12653   */\n      add\n        /* \"#utility.yul\":12633:12653   */\n      swap1\n      pop\n        /* \"#utility.yul\":12426:12659   */\n      swap2\n      swap1\n      pop\n      jump\t// out\n        /* \"#utility.yul\":12665:12845   */\n    tag_197:\n        /* \"#utility.yul\":12713:12790   */\n      0x4e487b7100000000000000000000000000000000000000000000000000000000\n        /* \"#utility.yul\":12710:12711   */\n      0x00\n        /* \"#utility.yul\":12703:12791   */\n      mstore\n        /* \"#utility.yul\":12810:12814   */\n      0x22\n        /* \"#utility.yul\":12807:12808   */\n      0x04\n        /* \"#utility.yul\":12800:12815   */\n      mstore\n        /* \"#utility.yul\":12834:12838   */\n      0x24\n        /* \"#utility.yul\":12831:12832   */\n      0x00\n        /* \"#utility.yul\":12824:12839   */\n      revert\n        /* \"#utility.yul\":12851:13171   */\n    tag_94:\n        /* \"#utility.yul\":12895:12901   */\n      0x00\n        /* \"#utility.yul\":12932:12933   */\n      0x02\n        /* \"#utility.yul\":12926:12930   */\n      dup3\n        /* \"#utility.yul\":12922:12934   */\n      div\n        /* \"#utility.yul\":12912:12934   */\n      swap1\n      pop\n        /* \"#utility.yul\":12979:12980   */\n      0x01\n        /* \"#utility.yul\":12973:12977   */\n      dup3\n        /* \"#utility.yul\":12969:12981   */\n      and\n        /* \"#utility.yul\":13000:13018   */\n      dup1\n        /* \"#utility.yul\":12990:13071   */\n      tag_340\n      jumpi\n        /* \"#utility.yul\":13056:13060   */\n      0x7f\n        /* \"#utility.yul\":13048:13054   */\n      dup3\n        /* \"#utility.yul\":13044:13061   */\n      and\n        /* \"#utility.yul\":13034:13061   */\n      swap2\n      pop\n        /* \"#utility.yul\":12990:13071   */\n    tag_340:\n        /* \"#utility.yul\":13118:13120   */\n      0x20\n        /* \"#utility.yul\":13110:13116   */\n      dup3\n        /* \"#utility.yul\":13107:13121   */\n      lt\n        /* \"#utility.yul\":13087:13105   */\n      dup2\n        /* \"#utility.yul\":13084:13122   */\n      sub\n        /* \"#utility.yul\":13081:13165   */\n      tag_341\n      jumpi\n        /* \"#utility.yul\":13137:13155   */\n      tag_342\n      tag_197\n      jump\t// in\n    tag_342:\n        /* \"#utility.yul\":13081:13165   */\n    tag_341:\n        /* \"#utility.yul\":12902:13171   */\n      pop\n        /* \"#utility.yul\":12851:13171   */\n      swap2\n      swap1\n      pop\n      jump\t// out\n        /* \"#utility.yul\":13177:13318   */\n    tag_198:\n        /* \"#utility.yul\":13226:13230   */\n      0x00\n        /* \"#utility.yul\":13249:13252   */\n      dup2\n        /* \"#utility.yul\":13241:13252   */\n      swap1\n      pop\n        /* \"#utility.yul\":13272:13275   */\n      dup2\n        /* \"#utility.yul\":13269:13270   */\n      0x00\n        /* \"#utility.yul\":13262:13276   */\n      mstore\n        /* \"#utility.yul\":13306:13310   */\n      0x20\n        /* \"#utility.yul\":13303:13304   */\n      0x00\n        /* \"#utility.yul\":13293:13311   */\n      keccak256\n        /* \"#utility.yul\":13285:13311   */\n      swap1\n      pop\n        /* \"#utility.yul\":13177:13318   */\n      swap2\n      swap1\n      pop\n      jump\t// out\n        /* \"#utility.yul\":13324:13417   */\n    tag_199:\n        /* \"#utility.yul\":13361:13367   */\n      0x00\n        /* \"#utility.yul\":13408:13410   */\n      0x20\n        /* \"#utility.yul\":13403:13405   */\n      0x1f\n        /* \"#utility.yul\":13396:13401   */\n      dup4\n        /* \"#utility.yul\":13392:13406   */\n      add\n        /* \"#utility.yul\":13388:13411   */\n      div\n        /* \"#utility.yul\":13378:13411   */\n      swap1\n      pop\n        /* \"#utility.yul\":13324:13417   */\n      swap2\n      swap1\n      pop\n      jump\t// out\n        /* \"#utility.yul\":13423:13530   */\n    tag_200:\n        /* \"#utility.yul\":13467:13475   */\n      0x00\n        /* \"#utility.yul\":13517:13522   */\n      dup3\n        /* \"#utility.yul\":13511:13515   */\n      dup3\n        /* \"#utility.yul\":13507:13523   */\n      shl\n        /* \"#utility.yul\":13486:13523   */\n      swap1\n      pop\n        /* \"#utility.yul\":13423:13530   */\n      swap3\n      swap2\n      pop\n      pop\n      jump\t// out\n        /* \"#utility.yul\":13536:13929   */\n    tag_201:\n        /* \"#utility.yul\":13605:13611   */\n      0x00\n        /* \"#utility.yul\":13655:13656   */\n      0x08\n        /* \"#utility.yul\":13643:13653   */\n      dup4\n        /* \"#utility.yul\":13639:13657   */\n      mul\n        /* \"#utility.yul\":13678:13775   */\n      tag_347\n        /* \"#utility.yul\":13708:13774   */\n      0xffffffffffffffffffffffffffffffffffffffffffffffffffffffffffffffff\n        /* \"#utility.yul\":13697:13706   */\n      dup3\n        /* \"#utility.yul\":13678:13775   */\n      tag_200\n      jump\t// in\n    tag_347:\n        /* \"#utility.yul\":13796:13835   */\n      tag_348\n        /* \"#utility.yul\":13826:13834   */\n      dup7\n        /* \"#utility.yul\":13815:13824   */\n      dup4\n        /* \"#utility.yul\":13796:13835   */\n      tag_200\n      jump\t// in\n    tag_348:\n        /* \"#utility.yul\":13784:13835   */\n      swap6\n      pop\n        /* \"#utility.yul\":13868:13872   */\n      dup1\n        /* \"#utility.yul\":13864:13873   */\n      not\n        /* \"#utility.yul\":13857:13862   */\n      dup5\n        /* \"#utility.yul\":13853:13874   */\n      and\n        /* \"#utility.yul\":13844:13874   */\n      swap4\n      pop\n        /* \"#utility.yul\":13917:13921   */\n      dup1\n        /* \"#utility.yul\":13907:13915   */\n      dup7\n        /* \"#utility.yul\":13903:13922   */\n      and\n        /* \"#utility.yul\":13896:13901   */\n      dup5\n        /* \"#utility.yul\":13893:13923   */\n      or\n        /* \"#utility.yul\":13883:13923   */\n      swap3\n      pop\n        /* \"#utility.yul\":13612:13929   */\n      pop\n      pop\n        /* \"#utility.yul\":13536:13929   */\n      swap4\n      swap3\n      pop\n      pop\n      pop\n      jump\t// out\n        /* \"#utility.yul\":13935:13995   */\n    tag_202:\n        /* \"#utility.yul\":13963:13966   */\n      0x00\n        /* \"#utility.yul\":13984:13989   */\n      dup2\n        /* \"#utility.yul\":13977:13989   */\n      swap1\n      pop\n        /* \"#utility.yul\":13935:13995   */\n      swap2\n      swap1\n      pop\n      jump\t// out\n        /* \"#utility.yul\":14001:14143   */\n    tag_203:\n        /* \"#utility.yul\":14051:14060   */\n      0x00\n        /* \"#utility.yul\":14084:14137   */\n      tag_351\n        /* \"#utility.yul\":14102:14136   */\n      tag_352\n        /* \"#utility.yul\":14111:14135   */\n      tag_353\n        /* \"#utility.yul\":14129:14134   */\n      dup5\n        /* \"#utility.yul\":14111:14135   */\n      tag_165\n      jump\t// in\n    tag_353:\n        /* \"#utility.yul\":14102:14136   */\n      tag_202\n      jump\t// in\n    tag_352:\n        /* \"#utility.yul\":14084:14137   */\n      tag_165\n      jump\t// in\n    tag_351:\n        /* \"#utility.yul\":14071:14137   */\n      swap1\n      pop\n        /* \"#utility.yul\":14001:14143   */\n      swap2\n      swap1\n      pop\n      jump\t// out\n        /* \"#utility.yul\":14149:14224   */\n    tag_204:\n        /* \"#utility.yul\":14192:14195   */\n      0x00\n        /* \"#utility.yul\":14213:14218   */\n      dup2\n        /* \"#utility.yul\":14206:14218   */\n      swap1\n      pop\n        /* \"#utility.yul\":14149:14224   */\n      swap2\n      swap1\n      pop\n      jump\t// out\n        /* \"#utility.yul\":14230:14499   */\n    tag_205:\n        /* \"#utility.yul\":14340:14379   */\n      tag_356\n        /* \"#utility.yul\":14371:14378   */\n      dup4\n        /* \"#utility.yul\":14340:14379   */\n      tag_203\n      jump\t// in\n    tag_356:\n        /* \"#utility.yul\":14401:14492   */\n      tag_357\n        /* \"#utility.yul\":14450:14491   */\n      tag_358\n        /* \"#utility.yul\":14474:14490   */\n      dup3\n        /* \"#utility.yul\":14450:14491   */\n      tag_204\n      jump\t// in\n    tag_358:\n        /* \"#utility.yul\":14442:14448   */\n      dup5\n        /* \"#utility.yul\":14435:14439   */\n      dup5\n        /* \"#utility.yul\":14429:14440   */\n      sload\n        /* \"#utility.yul\":14401:14492   */\n      tag_201\n      jump\t// in\n    tag_357:\n        /* \"#utility.yul\":14395:14399   */\n      dup3\n        /* \"#utility.yul\":14388:14493   */\n      sstore\n        /* \"#utility.yul\":14306:14499   */\n      pop\n        /* \"#utility.yul\":14230:14499   */\n      pop\n      pop\n      pop\n      jump\t// out\n        /* \"#utility.yul\":14505:14578   */\n    tag_206:\n        /* \"#utility.yul\":14550:14553   */\n      0x00\n        /* \"#utility.yul\":14505:14578   */\n      swap1\n      jump\t// out\n        /* \"#utility.yul\":14584:14773   */\n    tag_207:\n        /* \"#utility.yul\":14661:14693   */\n      tag_361\n      tag_206\n      jump\t// in\n    tag_361:\n        /* \"#utility.yul\":14702:14767   */\n      tag_362\n        /* \"#utility.yul\":14760:14766   */\n      dup2\n        /* \"#utility.yul\":14752:14758   */\n      dup5\n        /* \"#utility.yul\":14746:14750   */\n      dup5\n        /* \"#utility.yul\":14702:14767   */\n      tag_205\n      jump\t// in\n    tag_362:\n        /* \"#utility.yul\":14637:14773   */\n      pop\n        /* \"#utility.yul\":14584:14773   */\n      pop\n      pop\n      jump\t// out\n        /* \"#utility.yul\":14779:14965   */\n    tag_208:\n        /* \"#utility.yul\":14839:14959   */\n    tag_364:\n        /* \"#utility.yul\":14856:14859   */\n      dup2\n        /* \"#utility.yul\":14849:14854   */\n      dup2\n        /* \"#utility.yul\":14846:14860   */\n      lt\n        /* \"#utility.yul\":14839:14959   */\n      iszero\n      tag_366\n      jumpi\n        /* \"#utility.yul\":14910:14949   */\n      tag_367\n        /* \"#utility.yul\":14947:14948   */\n      0x00\n        /* \"#utility.yul\":14940:14945   */\n      dup3\n        /* \"#utility.yul\":14910:14949   */\n      tag_207\n      jump\t// in\n    tag_367:\n        /* \"#utility.yul\":14883:14884   */\n      0x01\n        /* \"#utility.yul\":14876:14881   */\n      dup2\n        /* \"#utility.yul\":14872:14885   */\n      add\n        /* \"#utility.yul\":14863:14885   */\n      swap1\n      pop\n        /* \"#utility.yul\":14839:14959   */\n      jump(tag_364)\n    tag_366:\n        /* \"#utility.yul\":14779:14965   */\n      pop\n      pop\n      jump\t// out\n        /* \"#utility.yul\":14971:15514   */\n    tag_209:\n        /* \"#utility.yul\":15072:15074   */\n      0x1f\n        /* \"#utility.yul\":15067:15070   */\n      dup3\n        /* \"#utility.yul\":15064:15075   */\n      gt\n        /* \"#utility.yul\":15061:15507   */\n      iszero\n      tag_369\n      jumpi\n        /* \"#utility.yul\":15106:15144   */\n      tag_370\n        /* \"#utility.yul\":15138:15143   */\n      dup2\n        /* \"#utility.yul\":15106:15144   */\n      tag_198\n      jump\t// in\n    tag_370:\n        /* \"#utility.yul\":15190:15219   */\n      tag_371\n        /* \"#utility.yul\":15208:15218   */\n      dup5\n        /* \"#utility.yul\":15190:15219   */\n      tag_199\n      jump\t// in\n    tag_371:\n        /* \"#utility.yul\":15180:15188   */\n      dup2\n        /* \"#utility.yul\":15176:15220   */\n      add\n        /* \"#utility.yul\":15373:15375   */\n      0x20\n        /* \"#utility.yul\":15361:15371   */\n      dup6\n        /* \"#utility.yul\":15358:15376   */\n      lt\n        /* \"#utility.yul\":15355:15404   */\n      iszero\n      tag_372\n      jumpi\n        /* \"#utility.yul\":15394:15402   */\n      dup2\n        /* \"#utility.yul\":15379:15402   */\n      swap1\n      pop\n        /* \"#utility.yul\":15355:15404   */\n    tag_372:\n        /* \"#utility.yul\":15417:15497   */\n      tag_373\n        /* \"#utility.yul\":15473:15495   */\n      tag_374\n        /* \"#utility.yul\":15491:15494   */\n      dup6\n        /* \"#utility.yul\":15473:15495   */\n      tag_199\n      jump\t// in\n    tag_374:\n        /* \"#utility.yul\":15463:15471   */\n      dup4\n        /* \"#utility.yul\":15459:15496   */\n      add\n        /* \"#utility.yul\":15446:15457   */\n      dup3\n        /* \"#utility.yul\":15417:15497   */\n      tag_208\n      jump\t// in\n    tag_373:\n        /* \"#utility.yul\":15076:15507   */\n      pop\n      pop\n        /* \"#utility.yul\":15061:15507   */\n    tag_369:\n        /* \"#utility.yul\":14971:15514   */\n      pop\n      pop\n      pop\n      jump\t// out\n        /* \"#utility.yul\":15520:15637   */\n    tag_210:\n        /* \"#utility.yul\":15574:15582   */\n      0x00\n        /* \"#utility.yul\":15624:15629   */\n      dup3\n        /* \"#utility.yul\":15618:15622   */\n      dup3\n        /* \"#utility.yul\":15614:15630   */\n      shr\n        /* \"#utility.yul\":15593:15630   */\n      swap1\n      pop\n        /* \"#utility.yul\":15520:15637   */\n      swap3\n      swap2\n      pop\n      pop\n      jump\t// out\n        /* \"#utility.yul\":15643:15812   */\n    tag_211:\n        /* \"#utility.yul\":15687:15693   */\n      0x00\n        /* \"#utility.yul\":15720:15771   */\n      tag_377\n        /* \"#utility.yul\":15768:15769   */\n      0x00\n        /* \"#utility.yul\":15764:15770   */\n      not\n        /* \"#utility.yul\":15756:15761   */\n      dup5\n        /* \"#utility.yul\":15753:15754   */\n      0x08\n        /* \"#utility.yul\":15749:15762   */\n      mul\n        /* \"#utility.yul\":15720:15771   */\n      tag_210\n      jump\t// in\n    tag_377:\n        /* \"#utility.yul\":15716:15772   */\n      not\n        /* \"#utility.yul\":15801:15805   */\n      dup1\n        /* \"#utility.yul\":15795:15799   */\n      dup4\n        /* \"#utility.yul\":15791:15806   */\n      and\n        /* \"#utility.yul\":15781:15806   */\n      swap2\n      pop\n        /* \"#utility.yul\":15694:15812   */\n      pop\n        /* \"#utility.yul\":15643:15812   */\n      swap3\n      swap2\n      pop\n      pop\n      jump\t// out\n        /* \"#utility.yul\":15817:16112   */\n    tag_212:\n        /* \"#utility.yul\":15893:15897   */\n      0x00\n        /* \"#utility.yul\":16039:16068   */\n      tag_379\n        /* \"#utility.yul\":16064:16067   */\n      dup4\n        /* \"#utility.yul\":16058:16062   */\n      dup4\n        /* \"#utility.yul\":16039:16068   */\n      tag_211\n      jump\t// in\n    tag_379:\n        /* \"#utility.yul\":16031:16068   */\n      swap2\n      pop\n        /* \"#utility.yul\":16101:16104   */\n      dup3\n        /* \"#utility.yul\":16098:16099   */\n      0x02\n        /* \"#utility.yul\":16094:16105   */\n      mul\n        /* \"#utility.yul\":16088:16092   */\n      dup3\n        /* \"#utility.yul\":16085:16106   */\n      or\n        /* \"#utility.yul\":16077:16106   */\n      swap1\n      pop\n        /* \"#utility.yul\":15817:16112   */\n      swap3\n      swap2\n      pop\n      pop\n      jump\t// out\n        /* \"#utility.yul\":16117:17512   */\n    tag_76:\n        /* \"#utility.yul\":16234:16271   */\n      tag_381\n        /* \"#utility.yul\":16267:16270   */\n      dup3\n        /* \"#utility.yul\":16234:16271   */\n      tag_179\n      jump\t// in\n    tag_381:\n        /* \"#utility.yul\":16336:16354   */\n      0xffffffffffffffff\n        /* \"#utility.yul\":16328:16334   */\n      dup2\n        /* \"#utility.yul\":16325:16355   */\n      gt\n        /* \"#utility.yul\":16322:16378   */\n      iszero\n      tag_382\n      jumpi\n        /* \"#utility.yul\":16358:16376   */\n      tag_383\n      tag_171\n      jump\t// in\n    tag_383:\n        /* \"#utility.yul\":16322:16378   */\n    tag_382:\n        /* \"#utility.yul\":16402:16440   */\n      tag_384\n        /* \"#utility.yul\":16434:16438   */\n      dup3\n        /* \"#utility.yul\":16428:16439   */\n      sload\n        /* \"#utility.yul\":16402:16440   */\n      tag_94\n      jump\t// in\n    tag_384:\n        /* \"#utility.yul\":16487:16554   */\n      tag_385\n        /* \"#utility.yul\":16547:16553   */\n      dup3\n        /* \"#utility.yul\":16539:16545   */\n      dup3\n        /* \"#utility.yul\":16533:16537   */\n      dup6\n        /* \"#utility.yul\":16487:16554   */\n      tag_209\n      jump\t// in\n    tag_385:\n        /* \"#utility.yul\":16581:16582   */\n      0x00\n        /* \"#utility.yul\":16605:16609   */\n      0x20\n        /* \"#utility.yul\":16592:16609   */\n      swap1\n      pop\n        /* \"#utility.yul\":16637:16639   */\n      0x1f\n        /* \"#utility.yul\":16629:16635   */\n      dup4\n        /* \"#utility.yul\":16626:16640   */\n      gt\n        /* \"#utility.yul\":16654:16655   */\n      0x01\n        /* \"#utility.yul\":16649:17267   */\n      dup2\n      eq\n      tag_387\n      jumpi\n        /* \"#utility.yul\":17311:17312   */\n      0x00\n        /* \"#utility.yul\":17328:17334   */\n      dup5\n        /* \"#utility.yul\":17325:17402   */\n      iszero\n      tag_388\n      jumpi\n        /* \"#utility.yul\":17377:17386   */\n      dup3\n        /* \"#utility.yul\":17372:17375   */\n      dup8\n        /* \"#utility.yul\":17368:17387   */\n      add\n        /* \"#utility.yul\":17362:17388   */\n      mload\n        /* \"#utility.yul\":17353:17388   */\n      swap1\n      pop\n        /* \"#utility.yul\":17325:17402   */\n    tag_388:\n        /* \"#utility.yul\":17428:17495   */\n      tag_389\n        /* \"#utility.yul\":17488:17494   */\n      dup6\n        /* \"#utility.yul\":17481:17486   */\n      dup3\n        /* \"#utility.yul\":17428:17495   */\n      tag_212\n      jump\t// in\n    tag_389:\n        /* \"#utility.yul\":17422:17426   */\n      dup7\n        /* \"#utility.yul\":17415:17496   */\n      sstore\n        /* \"#utility.yul\":17284:17506   */\n      pop\n        /* \"#utility.yul\":16619:17506   */\n      jump(tag_386)\n        /* \"#utility.yul\":16649:17267   */\n    tag_387:\n        /* \"#utility.yul\":16701:16705   */\n      0x1f\n        /* \"#utility.yul\":16697:16706   */\n      not\n        /* \"#utility.yul\":16689:16695   */\n      dup5\n        /* \"#utility.yul\":16685:16707   */\n      and\n        /* \"#utility.yul\":16735:16772   */\n      tag_390\n        /* \"#utility.yul\":16767:16771   */\n      dup7\n        /* \"#utility.yul\":16735:16772   */\n      tag_198\n      jump\t// in\n    tag_390:\n        /* \"#utility.yul\":16794:16795   */\n      0x00\n        /* \"#utility.yul\":16808:17016   */\n    tag_391:\n        /* \"#utility.yul\":16822:16829   */\n      dup3\n        /* \"#utility.yul\":16819:16820   */\n      dup2\n        /* \"#utility.yul\":16816:16830   */\n      lt\n        /* \"#utility.yul\":16808:17016   */\n      iszero\n      tag_393\n      jumpi\n        /* \"#utility.yul\":16901:16910   */\n      dup5\n        /* \"#utility.yul\":16896:16899   */\n      dup10\n        /* \"#utility.yul\":16892:16911   */\n      add\n        /* \"#utility.yul\":16886:16912   */\n      mload\n        /* \"#utility.yul\":16878:16884   */\n      dup3\n        /* \"#utility.yul\":16871:16913   */\n      sstore\n        /* \"#utility.yul\":16952:16953   */\n      0x01\n        /* \"#utility.yul\":16944:16950   */\n      dup3\n        /* \"#utility.yul\":16940:16954   */\n      add\n        /* \"#utility.yul\":16930:16954   */\n      swap2\n      pop\n        /* \"#utility.yul\":16999:17001   */\n      0x20\n        /* \"#utility.yul\":16988:16997   */\n      dup6\n        /* \"#utility.yul\":16984:17002   */\n      add\n        /* \"#utility.yul\":16971:17002   */\n      swap5\n      pop\n        /* \"#utility.yul\":16845:16849   */\n      0x20\n        /* \"#utility.yul\":16842:16843   */\n      dup2\n        /* \"#utility.yul\":16838:16850   */\n      add\n        /* \"#utility.yul\":16833:16850   */\n      swap1\n      pop\n        /* \"#utility.yul\":16808:17016   */\n      jump(tag_391)\n    tag_393:\n        /* \"#utility.yul\":17044:17050   */\n      dup7\n        /* \"#utility.yul\":17035:17042   */\n      dup4\n        /* \"#utility.yul\":17032:17051   */\n      lt\n        /* \"#utility.yul\":17029:17208   */\n      iszero\n      tag_394\n      jumpi\n        /* \"#utility.yul\":17102:17111   */\n      dup5\n        /* \"#utility.yul\":17097:17100   */\n      dup10\n        /* \"#utility.yul\":17093:17112   */\n      add\n        /* \"#utility.yul\":17087:17113   */\n      mload\n        /* \"#utility.yul\":17145:17193   */\n      tag_395\n        /* \"#utility.yul\":17187:17191   */\n      0x1f\n        /* \"#utility.yul\":17179:17185   */\n      dup10\n        /* \"#utility.yul\":17175:17192   */\n      and\n        /* \"#utility.yul\":17164:17173   */\n      dup3\n        /* \"#utility.yul\":17145:17193   */\n      tag_211\n      jump\t// in\n    tag_395:\n        /* \"#utility.yul\":17137:17143   */\n      dup4\n        /* \"#utility.yul\":17130:17194   */\n      sstore\n        /* \"#utility.yul\":17052:17208   */\n      pop\n        /* \"#utility.yul\":17029:17208   */\n    tag_394:\n        /* \"#utility.yul\":17254:17255   */\n      0x01\n        /* \"#utility.yul\":17250:17251   */\n      0x02\n        /* \"#utility.yul\":17242:17248   */\n      dup9\n        /* \"#utility.yul\":17238:17252   */\n      mul\n        /* \"#utility.yul\":17234:17256   */\n      add\n        /* \"#utility.yul\":17228:17232   */\n      dup9\n        /* \"#utility.yul\":17221:17257   */\n      sstore\n        /* \"#utility.yul\":16656:17267   */\n      pop\n      pop\n      pop\n        /* \"#utility.yul\":16619:17506   */\n    tag_386:\n      pop\n        /* \"#utility.yul\":16209:17512   */\n      pop\n      pop\n      pop\n        /* \"#utility.yul\":16117:17512   */\n      pop\n      pop\n      jump\t// out\n        /* \"#utility.yul\":17518:17831   */\n    tag_78:\n        /* \"#utility.yul\":17631:17635   */\n      0x00\n        /* \"#utility.yul\":17669:17671   */\n      0x20\n        /* \"#utility.yul\":17658:17667   */\n      dup3\n        /* \"#utility.yul\":17654:17672   */\n      add\n        /* \"#utility.yul\":17646:17672   */\n      swap1\n      pop\n        /* \"#utility.yul\":17718:17727   */\n      dup2\n        /* \"#utility.yul\":17712:17716   */\n      dup2\n        /* \"#utility.yul\":17708:17728   */\n      sub\n        /* \"#utility.yul\":17704:17705   */\n      0x00\n        /* \"#utility.yul\":17693:17702   */\n      dup4\n        /* \"#utility.yul\":17689:17706   */\n      add\n        /* \"#utility.yul\":17682:17729   */\n      mstore\n        /* \"#utility.yul\":17746:17824   */\n      tag_397\n        /* \"#utility.yul\":17819:17823   */\n      dup2\n        /* \"#utility.yul\":17810:17816   */\n      dup5\n        /* \"#utility.yul\":17746:17824   */\n      tag_182\n      jump\t// in\n    tag_397:\n        /* \"#utility.yul\":17738:17824   */\n      swap1\n      pop\n        /* \"#utility.yul\":17518:17831   */\n      swap3\n      swap2\n      pop\n      pop\n      jump\t// out\n        /* \"#utility.yul\":17837:18028   */\n    tag_107:\n        /* \"#utility.yul\":17877:17880   */\n      0x00\n        /* \"#utility.yul\":17896:17916   */\n      tag_399\n        /* \"#utility.yul\":17914:17915   */\n      dup3\n        /* \"#utility.yul\":17896:17916   */\n      tag_165\n      jump\t// in\n    tag_399:\n        /* \"#utility.yul\":17891:17916   */\n      swap2\n      pop\n        /* \"#utility.yul\":17930:17950   */\n      tag_400\n        /* \"#utility.yul\":17948:17949   */\n      dup4\n        /* \"#utility.yul\":17930:17950   */\n      tag_165\n      jump\t// in\n    tag_400:\n        /* \"#utility.yul\":17925:17950   */\n      swap3\n      pop\n        /* \"#utility.yul\":17973:17974   */\n      dup3\n        /* \"#utility.yul\":17970:17971   */\n      dup3\n        /* \"#utility.yul\":17966:17975   */\n      add\n        /* \"#utility.yul\":17959:17975   */\n      swap1\n      pop\n        /* \"#utility.yul\":17994:17997   */\n      dup1\n        /* \"#utility.yul\":17991:17992   */\n      dup3\n        /* \"#utility.yul\":17988:17998   */\n      gt\n        /* \"#utility.yul\":17985:18021   */\n      iszero\n      tag_401\n      jumpi\n        /* \"#utility.yul\":18001:18019   */\n      tag_402\n      tag_196\n      jump\t// in\n    tag_402:\n        /* \"#utility.yul\":17985:18021   */\n    tag_401:\n        /* \"#utility.yul\":17837:18028   */\n      swap3\n      swap2\n      pop\n      pop\n      jump\t// out\n        /* \"#utility.yul\":18058:18889   */\n    tag_213:\n        /* \"#utility.yul\":18143:18146   */\n      0x00\n        /* \"#utility.yul\":18180:18185   */\n      dup2\n        /* \"#utility.yul\":18174:18186   */\n      sload\n        /* \"#utility.yul\":18209:18245   */\n      tag_404\n        /* \"#utility.yul\":18235:18244   */\n      dup2\n        /* \"#utility.yul\":18209:18245   */\n      tag_94\n      jump\t// in\n    tag_404:\n        /* \"#utility.yul\":18261:18332   */\n      tag_405\n        /* \"#utility.yul\":18325:18331   */\n      dup2\n        /* \"#utility.yul\":18320:18323   */\n      dup7\n        /* \"#utility.yul\":18261:18332   */\n      tag_180\n      jump\t// in\n    tag_405:\n        /* \"#utility.yul\":18254:18332   */\n      swap5\n      pop\n        /* \"#utility.yul\":18363:18364   */\n      0x01\n        /* \"#utility.yul\":18352:18361   */\n      dup3\n        /* \"#utility.yul\":18348:18365   */\n      and\n        /* \"#utility.yul\":18379:18380   */\n      0x00\n        /* \"#utility.yul\":18374:18538   */\n      dup2\n      eq\n      tag_407\n      jumpi\n        /* \"#utility.yul\":18552:18553   */\n      0x01\n        /* \"#utility.yul\":18547:18883   */\n      dup2\n      eq\n      tag_408\n      jumpi\n        /* \"#utility.yul\":18341:18883   */\n      jump(tag_406)\n        /* \"#utility.yul\":18374:18538   */\n    tag_407:\n        /* \"#utility.yul\":18458:18462   */\n      0xff\n        /* \"#utility.yul\":18454:18463   */\n      not\n        /* \"#utility.yul\":18443:18452   */\n      dup4\n        /* \"#utility.yul\":18439:18464   */\n      and\n        /* \"#utility.yul\":18434:18437   */\n      dup7\n        /* \"#utility.yul\":18427:18465   */\n      mstore\n        /* \"#utility.yul\":18518:18524   */\n      dup2\n        /* \"#utility.yul\":18511:18525   */\n      iszero\n        /* \"#utility.yul\":18504:18526   */\n      iszero\n        /* \"#utility.yul\":18498:18502   */\n      0x20\n        /* \"#utility.yul\":18494:18527   */\n      mul\n        /* \"#utility.yul\":18489:18492   */\n      dup7\n        /* \"#utility.yul\":18485:18528   */\n      add\n        /* \"#utility.yul\":18478:18528   */\n      swap4\n      pop\n        /* \"#utility.yul\":18374:18538   */\n      jump(tag_406)\n        /* \"#utility.yul\":18547:18883   */\n    tag_408:\n        /* \"#utility.yul\":18614:18652   */\n      tag_409\n        /* \"#utility.yul\":18646:18651   */\n      dup6\n        /* \"#utility.yul\":18614:18652   */\n      tag_198\n      jump\t// in\n    tag_409:\n        /* \"#utility.yul\":18674:18675   */\n      0x00\n        /* \"#utility.yul\":18688:18842   */\n    tag_410:\n        /* \"#utility.yul\":18702:18708   */\n      dup4\n        /* \"#utility.yul\":18699:18700   */\n      dup2\n        /* \"#utility.yul\":18696:18709   */\n      lt\n        /* \"#utility.yul\":18688:18842   */\n      iszero\n      tag_412\n      jumpi\n        /* \"#utility.yul\":18776:18783   */\n      dup2\n        /* \"#utility.yul\":18770:18784   */\n      sload\n        /* \"#utility.yul\":18766:18767   */\n      dup2\n        /* \"#utility.yul\":18761:18764   */\n      dup10\n        /* \"#utility.yul\":18757:18768   */\n      add\n        /* \"#utility.yul\":18750:18785   */\n      mstore\n        /* \"#utility.yul\":18826:18827   */\n      0x01\n        /* \"#utility.yul\":18817:18824   */\n      dup3\n        /* \"#utility.yul\":18813:18828   */\n      add\n        /* \"#utility.yul\":18802:18828   */\n      swap2\n      pop\n        /* \"#utility.yul\":18724:18728   */\n      0x20\n        /* \"#utility.yul\":18721:18722   */\n      dup2\n        /* \"#utility.yul\":18717:18729   */\n      add\n        /* \"#utility.yul\":18712:18729   */\n      swap1\n      pop\n        /* \"#utility.yul\":18688:18842   */\n      jump(tag_410)\n    tag_412:\n        /* \"#utility.yul\":18871:18872   */\n      dup1\n        /* \"#utility.yul\":18866:18869   */\n      dup9\n        /* \"#utility.yul\":18862:18873   */\n      add\n        /* \"#utility.yul\":18855:18873   */\n      swap6\n      pop\n        /* \"#utility.yul\":18554:18883   */\n      pop\n      pop\n        /* \"#utility.yul\":18341:18883   */\n    tag_406:\n      pop\n        /* \"#utility.yul\":18147:18889   */\n      pop\n      pop\n        /* \"#utility.yul\":18058:18889   */\n      swap3\n      swap2\n      pop\n      pop\n      jump\t// out\n        /* \"#utility.yul\":18895:19312   */\n    tag_142:\n        /* \"#utility.yul\":19033:19037   */\n      0x00\n        /* \"#utility.yul\":19071:19073   */\n      0x40\n        /* \"#utility.yul\":19060:19069   */\n      dup3\n        /* \"#utility.yul\":19056:19074   */\n      add\n        /* \"#utility.yul\":19048:19074   */\n      swap1\n      pop\n        /* \"#utility.yul\":19120:19129   */\n      dup2\n        /* \"#utility.yul\":19114:19118   */\n      dup2\n        /* \"#utility.yul\":19110:19130   */\n      sub\n        /* \"#utility.yul\":19106:19107   */\n      0x00\n        /* \"#utility.yul\":19095:19104   */\n      dup4\n        /* \"#utility.yul\":19091:19108   */\n      add\n        /* \"#utility.yul\":19084:19131   */\n      mstore\n        /* \"#utility.yul\":19148:19223   */\n      tag_414\n        /* \"#utility.yul\":19218:19222   */\n      dup2\n        /* \"#utility.yul\":19209:19215   */\n      dup6\n        /* \"#utility.yul\":19148:19223   */\n      tag_213\n      jump\t// in\n    tag_414:\n        /* \"#utility.yul\":19140:19223   */\n      swap1\n      pop\n        /* \"#utility.yul\":19233:19305   */\n      tag_415\n        /* \"#utility.yul\":19301:19303   */\n      0x20\n        /* \"#utility.yul\":19290:19299   */\n      dup4\n        /* \"#utility.yul\":19286:19304   */\n      add\n        /* \"#utility.yul\":19277:19283   */\n      dup5\n        /* \"#utility.yul\":19233:19305   */\n      tag_178\n      jump\t// in\n    tag_415:\n        /* \"#utility.yul\":18895:19312   */\n      swap4\n      swap3\n      pop\n      pop\n      pop\n      jump\t// out\n        /* \"#utility.yul\":19318:19490   */\n    tag_214:\n        /* \"#utility.yul\":19458:19482   */\n      0x596f75206861766520766f74656420616c726561647900000000000000000000\n        /* \"#utility.yul\":19454:19455   */\n      0x00\n        /* \"#utility.yul\":19446:19452   */\n      dup3\n        /* \"#utility.yul\":19442:19456   */\n      add\n        /* \"#utility.yul\":19435:19483   */\n      mstore\n        /* \"#utility.yul\":19318:19490   */\n      pop\n      jump\t// out\n        /* \"#utility.yul\":19496:19862   */\n    tag_215:\n        /* \"#utility.yul\":19638:19641   */\n      0x00\n        /* \"#utility.yul\":19659:19726   */\n      tag_418\n        /* \"#utility.yul\":19723:19725   */\n      0x16\n        /* \"#utility.yul\":19718:19721   */\n      dup4\n        /* \"#utility.yul\":19659:19726   */\n      tag_180\n      jump\t// in\n    tag_418:\n        /* \"#utility.yul\":19652:19726   */\n      swap2\n      pop\n        /* \"#utility.yul\":19735:19828   */\n      tag_419\n        /* \"#utility.yul\":19824:19827   */\n      dup3\n        /* \"#utility.yul\":19735:19828   */\n      tag_214\n      jump\t// in\n    tag_419:\n        /* \"#utility.yul\":19853:19855   */\n      0x20\n        /* \"#utility.yul\":19848:19851   */\n      dup3\n        /* \"#utility.yul\":19844:19856   */\n      add\n        /* \"#utility.yul\":19837:19856   */\n      swap1\n      pop\n        /* \"#utility.yul\":19496:19862   */\n      swap2\n      swap1\n      pop\n      jump\t// out\n        /* \"#utility.yul\":19868:20287   */\n    tag_155:\n        /* \"#utility.yul\":20034:20038   */\n      0x00\n        /* \"#utility.yul\":20072:20074   */\n      0x20\n        /* \"#utility.yul\":20061:20070   */\n      dup3\n        /* \"#utility.yul\":20057:20075   */\n      add\n        /* \"#utility.yul\":20049:20075   */\n      swap1\n      pop\n        /* \"#utility.yul\":20121:20130   */\n      dup2\n        /* \"#utility.yul\":20115:20119   */\n      dup2\n        /* \"#utility.yul\":20111:20131   */\n      sub\n        /* \"#utility.yul\":20107:20108   */\n      0x00\n        /* \"#utility.yul\":20096:20105   */\n      dup4\n        /* \"#utility.yul\":20092:20109   */\n      add\n        /* \"#utility.yul\":20085:20132   */\n      mstore\n        /* \"#utility.yul\":20149:20280   */\n      tag_421\n        /* \"#utility.yul\":20275:20279   */\n      dup2\n        /* \"#utility.yul\":20149:20280   */\n      tag_215\n      jump\t// in\n    tag_421:\n        /* \"#utility.yul\":20141:20280   */\n      swap1\n      pop\n        /* \"#utility.yul\":19868:20287   */\n      swap2\n      swap1\n      pop\n      jump\t// out\n        /* \"#utility.yul\":20293:20475   */\n    tag_216:\n        /* \"#utility.yul\":20433:20467   */\n      0x596f7520686176652063686f6f73656e2077726f6e672063616e646964617465\n        /* \"#utility.yul\":20429:20430   */\n      0x00\n        /* \"#utility.yul\":20421:20427   */\n      dup3\n        /* \"#utility.yul\":20417:20431   */\n      add\n        /* \"#utility.yul\":20410:20468   */\n      mstore\n        /* \"#utility.yul\":20293:20475   */\n      pop\n      jump\t// out\n        /* \"#utility.yul\":20481:20847   */\n    tag_217:\n        /* \"#utility.yul\":20623:20626   */\n      0x00\n        /* \"#utility.yul\":20644:20711   */\n      tag_424\n        /* \"#utility.yul\":20708:20710   */\n      0x20\n        /* \"#utility.yul\":20703:20706   */\n      dup4\n        /* \"#utility.yul\":20644:20711   */\n      tag_180\n      jump\t// in\n    tag_424:\n        /* \"#utility.yul\":20637:20711   */\n      swap2\n      pop\n        /* \"#utility.yul\":20720:20813   */\n      tag_425\n        /* \"#utility.yul\":20809:20812   */\n      dup3\n        /* \"#utility.yul\":20720:20813   */\n      tag_216\n      jump\t// in\n    tag_425:\n        /* \"#utility.yul\":20838:20840   */\n      0x20\n        /* \"#utility.yul\":20833:20836   */\n      dup3\n        /* \"#utility.yul\":20829:20841   */\n      add\n        /* \"#utility.yul\":20822:20841   */\n      swap1\n      pop\n        /* \"#utility.yul\":20481:20847   */\n      swap2\n      swap1\n      pop\n      jump\t// out\n        /* \"#utility.yul\":20853:21272   */\n    tag_159:\n        /* \"#utility.yul\":21019:21023   */\n      0x00\n        /* \"#utility.yul\":21057:21059   */\n      0x20\n        /* \"#utility.yul\":21046:21055   */\n      dup3\n        /* \"#utility.yul\":21042:21060   */\n      add\n        /* \"#utility.yul\":21034:21060   */\n      swap1\n      pop\n        /* \"#utility.yul\":21106:21115   */\n      dup2\n        /* \"#utility.yul\":21100:21104   */\n      dup2\n        /* \"#utility.yul\":21096:21116   */\n      sub\n        /* \"#utility.yul\":21092:21093   */\n      0x00\n        /* \"#utility.yul\":21081:21090   */\n      dup4\n        /* \"#utility.yul\":21077:21094   */\n      add\n        /* \"#utility.yul\":21070:21117   */\n      mstore\n        /* \"#utility.yul\":21134:21265   */\n      tag_427\n        /* \"#utility.yul\":21260:21264   */\n      dup2\n        /* \"#utility.yul\":21134:21265   */\n      tag_217\n      jump\t// in\n    tag_427:\n        /* \"#utility.yul\":21126:21265   */\n      swap1\n      pop\n        /* \"#utility.yul\":20853:21272   */\n      swap2\n      swap1\n      pop\n      jump\t// out\n\n    auxdata: 0xa2646970667358221220b48806cd4f94dbb8d46e184bf12c1603f58e9fff4aad8f52ac260dd10b12394b64736f6c634300081a0033\n}\n",
				"bytecode": {
					"linkReferences": {},
					"object": "6080604052348015600e575f80fd5b50335f806101000a81548173ffffffffffffffffffffffffffffffffffffffff021916908373ffffffffffffffffffffffffffffffffffffffff160217905550611a2d8061005b5f395ff3fe608060405234801561000f575f80fd5b506004361061009c575f3560e01c80635e6fef01116100645780635e6fef011461016a578063997d28301461019f5780639c98bcbb146101bd578063b384abef146101d9578063f851a440146101f55761009c565b80631750a3d0146100a05780632ce35e11146100bc5780634129b2c9146100ec578063432cf2ce1461011d5780634bd4644814610139575b5f80fd5b6100ba60048036038101906100b59190611077565b610213565b005b6100d660048036038101906100d191906110d1565b61047a565b6040516100e3919061110b565b60405180910390f35b610106600480360381019061010191906110d1565b6104e9565b604051610114929190611184565b60405180910390f35b610137600480360381019061013291906111b2565b610657565b005b610153600480360381019061014e919061120c565b6107a2565b604051610161929190611184565b60405180910390f35b610184600480360381019061017f91906110d1565b6108c1565b60405161019696959493929190611264565b60405180910390f35b6101a761098b565b6040516101b4919061110b565b60405180910390f35b6101d760048036038101906101d291906110d1565b610991565b005b6101f360048036038101906101ee919061120c565b610c0a565b005b6101fd610ed4565b60405161020a9190611309565b60405180910390f35b5f8054906101000a900473ffffffffffffffffffffffffffffffffffffffff1673ffffffffffffffffffffffffffffffffffffffff163373ffffffffffffffffffffffffffffffffffffffff16146102a0576040517f08c379a000000000000000000000000000000000000000000000000000000000815260040161029790611392565b60405180910390fd5b815f811180156102b257506001548111155b6102f1576040517f08c379a00000000000000000000000000000000000000000000000000000000081526004016102e8906113fa565b60405180910390fd5b8260025f8281526020019081526020015f206002015f9054906101000a900460ff16610352576040517f08c379a000000000000000000000000000000000000000000000000000000000815260040161034990611462565b60405180910390fd5b60025f8281526020019081526020015f206003015442106103a8576040517f08c379a000000000000000000000000000000000000000000000000000000000815260040161039f906114ca565b60405180910390fd5b5f60025f8681526020019081526020015f209050806005015f8154809291906103d090611515565b91905055506040518060600160405280826005015481526020018581526020015f815250816004015f836005015481526020019081526020015f205f820151815f015560208201518160010190816104289190611756565b50604082015181600201559050508060050154857fed8911b3df733b7d5f75724158e54478ea12e30f49c9d31b5261879f5b76586f8660405161046b9190611825565b60405180910390a35050505050565b5f815f8111801561048d57506001548111155b6104cc576040517f08c379a00000000000000000000000000000000000000000000000000000000081526004016104c3906113fa565b60405180910390fd5b60025f8481526020019081526020015f2060070154915050919050565b60605f825f811180156104fe57506001548111155b61053d576040517f08c379a0000000000000000000000000000000000000000000000000000000008152600401610534906113fa565b60405180910390fd5b5f60025f8681526020019081526020015f2090505f805f600190508360050154811161064c5782846004015f8381526020019081526020015f2060020154111561059e57836004015f8281526020019081526020015f206002015492508091505b836004015f8381526020019081526020015f20600101838180546105c190611589565b80601f01602080910402602001604051908101604052809291908181526020018280546105ed90611589565b80156106385780601f1061060f57610100808354040283529160200191610638565b820191905f5260205f20905b81548152906001019060200180831161061b57829003601f168201915b505050505091509650965050505050610651565b505050505b50915091565b5f8054906101000a900473ffffffffffffffffffffffffffffffffffffffff1673ffffffffffffffffffffffffffffffffffffffff163373ffffffffffffffffffffffffffffffffffffffff16146106e4576040517f08c379a00000000000000000000000000000000000000000000000000000000081526004016106db90611392565b60405180910390fd5b60015f8154809291906106f690611515565b91905055505f60025f60015481526020019081526020015f209050600154815f01819055508281600101908161072c9190611756565b506001816002015f6101000a81548160ff02191690831515021790555081426107559190611845565b81600301819055506001547f43131521170c5b80ffe9526cfec987f5a24eb1f6c4bda47c41a5e4b8388afe5c848360030154604051610795929190611184565b60405180910390a2505050565b60605f835f811180156107b757506001548111155b6107f6576040517f08c379a00000000000000000000000000000000000000000000000000000000081526004016107ed906113fa565b60405180910390fd5b5f60025f8781526020019081526020015f2090505f816004015f8781526020019081526020015f20905080600101816002015481805461083590611589565b80601f016020809104026020016040519081016040528092919081815260200182805461086190611589565b80156108ac5780601f10610883576101008083540402835291602001916108ac565b820191905f5260205f20905b81548152906001019060200180831161088f57829003601f168201915b50505050509150945094505050509250929050565b6002602052805f5260405f205f91509050805f0154908060010180546108e690611589565b80601f016020809104026020016040519081016040528092919081815260200182805461091290611589565b801561095d5780601f106109345761010080835404028352916020019161095d565b820191905f5260205f20905b81548152906001019060200180831161094057829003601f168201915b505050505090806002015f9054906101000a900460ff16908060030154908060050154908060070154905086565b60015481565b5f8054906101000a900473ffffffffffffffffffffffffffffffffffffffff1673ffffffffffffffffffffffffffffffffffffffff163373ffffffffffffffffffffffffffffffffffffffff1614610a1e576040517f08c379a0000000000000000000000000000000000000000000000000000000008152600401610a1590611392565b60405180910390fd5b805f81118015610a3057506001548111155b610a6f576040517f08c379a0000000000000000000000000000000000000000000000000000000008152600401610a66906113fa565b60405180910390fd5b8160025f8281526020019081526020015f206002015f9054906101000a900460ff16610ad0576040517f08c379a0000000000000000000000000000000000000000000000000000000008152600401610ac790611462565b60405180910390fd5b60025f8281526020019081526020015f20600301544210610b26576040517f08c379a0000000000000000000000000000000000000000000000000000000008152600401610b1d906114ca565b60405180910390fd5b5f60025f8581526020019081526020015f2090505f816002015f6101000a81548160ff0219169083151502179055505f805f600190505b8360050154811015610bb15782846004015f8381526020019081526020015f20600201541115610ba457836004015f8281526020019081526020015f206002015492508091505b8080600101915050610b5d565b5080867fbc7baeb63e80142a062a698ade8544587dfc5fcda61ca4b964418a42e9a4a786856004015f8581526020019081526020015f2060010185604051610bfa9291906118f9565b60405180910390a3505050505050565b815f81118015610c1c57506001548111155b610c5b576040517f08c379a0000000000000000000000000000000000000000000000000000000008152600401610c52906113fa565b60405180910390fd5b8260025f8281526020019081526020015f206002015f9054906101000a900460ff16610cbc576040517f08c379a0000000000000000000000000000000000000000000000000000000008152600401610cb390611462565b60405180910390fd5b60025f8281526020019081526020015f20600301544210610d12576040517f08c379a0000000000000000000000000000000000000000000000000000000008152600401610d09906114ca565b60405180910390fd5b5f60025f8681526020019081526020015f209050806006015f3373ffffffffffffffffffffffffffffffffffffffff1673ffffffffffffffffffffffffffffffffffffffff1681526020019081526020015f205f9054906101000a900460ff1615610db2576040517f08c379a0000000000000000000000000000000000000000000000000000000008152600401610da990611971565b60405180910390fd5b5f84118015610dc5575080600501548411155b610e04576040517f08c379a0000000000000000000000000000000000000000000000000000000008152600401610dfb906119d9565b60405180910390fd5b6001816006015f3373ffffffffffffffffffffffffffffffffffffffff1673ffffffffffffffffffffffffffffffffffffffff1681526020019081526020015f205f6101000a81548160ff021916908315150217905550806004015f8581526020019081526020015f206002015f815480929190610e8190611515565b9190505550806007015f815480929190610e9a90611515565b919050555083857fc31875ef3ed5138b71a0c1da7e494bc4d2ba4f567084ea481ec9c45f3a93948b60405160405180910390a35050505050565b5f8054906101000a900473ffffffffffffffffffffffffffffffffffffffff1681565b5f604051905090565b5f80fd5b5f80fd5b5f819050919050565b610f1a81610f08565b8114610f24575f80fd5b50565b5f81359050610f3581610f11565b92915050565b5f80fd5b5f80fd5b5f601f19601f8301169050919050565b7f4e487b71000000000000000000000000000000000000000000000000000000005f52604160045260245ffd5b610f8982610f43565b810181811067ffffffffffffffff82111715610fa857610fa7610f53565b5b80604052505050565b5f610fba610ef7565b9050610fc68282610f80565b919050565b5f67ffffffffffffffff821115610fe557610fe4610f53565b5b610fee82610f43565b9050602081019050919050565b828183375f83830152505050565b5f61101b61101684610fcb565b610fb1565b90508281526020810184848401111561103757611036610f3f565b5b611042848285610ffb565b509392505050565b5f82601f83011261105e5761105d610f3b565b5b813561106e848260208601611009565b91505092915050565b5f806040838503121561108d5761108c610f00565b5b5f61109a85828601610f27565b925050602083013567ffffffffffffffff8111156110bb576110ba610f04565b5b6110c78582860161104a565b9150509250929050565b5f602082840312156110e6576110e5610f00565b5b5f6110f384828501610f27565b91505092915050565b61110581610f08565b82525050565b5f60208201905061111e5f8301846110fc565b92915050565b5f81519050919050565b5f82825260208201905092915050565b8281835e5f83830152505050565b5f61115682611124565b611160818561112e565b935061117081856020860161113e565b61117981610f43565b840191505092915050565b5f6040820190508181035f83015261119c818561114c565b90506111ab60208301846110fc565b9392505050565b5f80604083850312156111c8576111c7610f00565b5b5f83013567ffffffffffffffff8111156111e5576111e4610f04565b5b6111f18582860161104a565b925050602061120285828601610f27565b9150509250929050565b5f806040838503121561122257611221610f00565b5b5f61122f85828601610f27565b925050602061124085828601610f27565b9150509250929050565b5f8115159050919050565b61125e8161124a565b82525050565b5f60c0820190506112775f8301896110fc565b8181036020830152611289818861114c565b90506112986040830187611255565b6112a560608301866110fc565b6112b260808301856110fc565b6112bf60a08301846110fc565b979650505050505050565b5f73ffffffffffffffffffffffffffffffffffffffff82169050919050565b5f6112f3826112ca565b9050919050565b611303816112e9565b82525050565b5f60208201905061131c5f8301846112fa565b92915050565b7f4f6e6c792061646d696e2063616e20706572666f726d2074686973206f7065725f8201527f6174696f6e000000000000000000000000000000000000000000000000000000602082015250565b5f61137c60258361112e565b915061138782611322565b604082019050919050565b5f6020820190508181035f8301526113a981611370565b9050919050565b7f456c656374696f6e20646f65736e2774206578697374000000000000000000005f82015250565b5f6113e460168361112e565b91506113ef826113b0565b602082019050919050565b5f6020820190508181035f830152611411816113d8565b9050919050565b7f456c656374696f6e206973206e6f7420616374697665000000000000000000005f82015250565b5f61144c60168361112e565b915061145782611418565b602082019050919050565b5f6020820190508181035f83015261147981611440565b9050919050565b7f456c656374696f6e2068617320656e64656400000000000000000000000000005f82015250565b5f6114b460128361112e565b91506114bf82611480565b602082019050919050565b5f6020820190508181035f8301526114e1816114a8565b9050919050565b7f4e487b71000000000000000000000000000000000000000000000000000000005f52601160045260245ffd5b5f61151f82610f08565b91507fffffffffffffffffffffffffffffffffffffffffffffffffffffffffffffffff8203611551576115506114e8565b5b600182019050919050565b7f4e487b71000000000000000000000000000000000000000000000000000000005f52602260045260245ffd5b5f60028204905060018216806115a057607f821691505b6020821081036115b3576115b261155c565b5b50919050565b5f819050815f5260205f209050919050565b5f6020601f8301049050919050565b5f82821b905092915050565b5f600883026116157fffffffffffffffffffffffffffffffffffffffffffffffffffffffffffffffff826115da565b61161f86836115da565b95508019841693508086168417925050509392505050565b5f819050919050565b5f61165a61165561165084610f08565b611637565b610f08565b9050919050565b5f819050919050565b61167383611640565b61168761167f82611661565b8484546115e6565b825550505050565b5f90565b61169b61168f565b6116a681848461166a565b505050565b5b818110156116c9576116be5f82611693565b6001810190506116ac565b5050565b601f82111561170e576116df816115b9565b6116e8846115cb565b810160208510156116f7578190505b61170b611703856115cb565b8301826116ab565b50505b505050565b5f82821c905092915050565b5f61172e5f1984600802611713565b1980831691505092915050565b5f611746838361171f565b9150826002028217905092915050565b61175f82611124565b67ffffffffffffffff81111561177857611777610f53565b5b6117828254611589565b61178d8282856116cd565b5f60209050601f8311600181146117be575f84156117ac578287015190505b6117b6858261173b565b86555061181d565b601f1984166117cc866115b9565b5f5b828110156117f3578489015182556001820191506020850194506020810190506117ce565b86831015611810578489015161180c601f89168261171f565b8355505b6001600288020188555050505b505050505050565b5f6020820190508181035f83015261183d818461114c565b905092915050565b5f61184f82610f08565b915061185a83610f08565b9250828201905080821115611872576118716114e8565b5b92915050565b5f815461188481611589565b61188e818661112e565b9450600182165f81146118a857600181146118be576118f0565b60ff1983168652811515602002860193506118f0565b6118c7856115b9565b5f5b838110156118e8578154818901526001820191506020810190506118c9565b808801955050505b50505092915050565b5f6040820190508181035f8301526119118185611878565b905061192060208301846110fc565b9392505050565b7f596f75206861766520766f74656420616c7265616479000000000000000000005f82015250565b5f61195b60168361112e565b915061196682611927565b602082019050919050565b5f6020820190508181035f8301526119888161194f565b9050919050565b7f596f7520686176652063686f6f73656e2077726f6e672063616e6469646174655f82015250565b5f6119c360208361112e565b91506119ce8261198f565b602082019050919050565b5f6020820190508181035f8301526119f0816119b7565b905091905056fea2646970667358221220b48806cd4f94dbb8d46e184bf12c1603f58e9fff4aad8f52ac260dd10b12394b64736f6c634300081a0033",
					"opcodes": "PUSH1 0x80 PUSH1 0x40 MSTORE CALLVALUE DUP1 ISZERO PUSH1 0xE JUMPI PUSH0 DUP1 REVERT JUMPDEST POP CALLER PUSH0 DUP1 PUSH2 0x100 EXP DUP2 SLOAD DUP2 PUSH20 0xFFFFFFFFFFFFFFFFFFFFFFFFFFFFFFFFFFFFFFFF MUL NOT AND SWAP1 DUP4 PUSH20 0xFFFFFFFFFFFFFFFFFFFFFFFFFFFFFFFFFFFFFFFF AND MUL OR SWAP1 SSTORE POP PUSH2 0x1A2D DUP1 PUSH2 0x5B PUSH0 CODECOPY PUSH0 RETURN INVALID PUSH1 0x80 PUSH1 0x40 MSTORE CALLVALUE DUP1 ISZERO PUSH2 0xF JUMPI PUSH0 DUP1 REVERT JUMPDEST POP PUSH1 0x4 CALLDATASIZE LT PUSH2 0x9C JUMPI PUSH0 CALLDATALOAD PUSH1 0xE0 SHR DUP1 PUSH4 0x5E6FEF01 GT PUSH2 0x64 JUMPI DUP1 PUSH4 0x5E6FEF01 EQ PUSH2 0x16A JUMPI DUP1 PUSH4 0x997D2830 EQ PUSH2 0x19F JUMPI DUP1 PUSH4 0x9C98BCBB EQ PUSH2 0x1BD JUMPI DUP1 PUSH4 0xB384ABEF EQ PUSH2 0x1D9 JUMPI DUP1 PUSH4 0xF851A440 EQ PUSH2 0x1F5 JUMPI PUSH2 0x9C JUMP JUMPDEST DUP1 PUSH4 0x1750A3D0 EQ PUSH2 0xA0 JUMPI DUP1 PUSH4 0x2CE35E11 EQ PUSH2 0xBC JUMPI DUP1 PUSH4 0x4129B2C9 EQ PUSH2 0xEC JUMPI DUP1 PUSH4 0x432CF2CE EQ PUSH2 0x11D JUMPI DUP1 PUSH4 0x4BD46448 EQ PUSH2 0x139 JUMPI JUMPDEST PUSH0 DUP1 REVERT JUMPDEST PUSH2 0xBA PUSH1 0x4 DUP1 CALLDATASIZE SUB DUP2 ADD SWAP1 PUSH2 0xB5 SWAP2 SWAP1 PUSH2 0x1077 JUMP JUMPDEST PUSH2 0x213 JUMP JUMPDEST STOP JUMPDEST PUSH2 0xD6 PUSH1 0x4 DUP1 CALLDATASIZE SUB DUP2 ADD SWAP1 PUSH2 0xD1 SWAP2 SWAP1 PUSH2 0x10D1 JUMP JUMPDEST PUSH2 0x47A JUMP JUMPDEST PUSH1 0x40 MLOAD PUSH2 0xE3 SWAP2 SWAP1 PUSH2 0x110B JUMP JUMPDEST PUSH1 0x40 MLOAD DUP1 SWAP2 SUB SWAP1 RETURN JUMPDEST PUSH2 0x106 PUSH1 0x4 DUP1 CALLDATASIZE SUB DUP2 ADD SWAP1 PUSH2 0x101 SWAP2 SWAP1 PUSH2 0x10D1 JUMP JUMPDEST PUSH2 0x4E9 JUMP JUMPDEST PUSH1 0x40 MLOAD PUSH2 0x114 SWAP3 SWAP2 SWAP1 PUSH2 0x1184 JUMP JUMPDEST PUSH1 0x40 MLOAD DUP1 SWAP2 SUB SWAP1 RETURN JUMPDEST PUSH2 0x137 PUSH1 0x4 DUP1 CALLDATASIZE SUB DUP2 ADD SWAP1 PUSH2 0x132 SWAP2 SWAP1 PUSH2 0x11B2 JUMP JUMPDEST PUSH2 0x657 JUMP JUMPDEST STOP JUMPDEST PUSH2 0x153 PUSH1 0x4 DUP1 CALLDATASIZE SUB DUP2 ADD SWAP1 PUSH2 0x14E SWAP2 SWAP1 PUSH2 0x120C JUMP JUMPDEST PUSH2 0x7A2 JUMP JUMPDEST PUSH1 0x40 MLOAD PUSH2 0x161 SWAP3 SWAP2 SWAP1 PUSH2 0x1184 JUMP JUMPDEST PUSH1 0x40 MLOAD DUP1 SWAP2 SUB SWAP1 RETURN JUMPDEST PUSH2 0x184 PUSH1 0x4 DUP1 CALLDATASIZE SUB DUP2 ADD SWAP1 PUSH2 0x17F SWAP2 SWAP1 PUSH2 0x10D1 JUMP JUMPDEST PUSH2 0x8C1 JUMP JUMPDEST PUSH1 0x40 MLOAD PUSH2 0x196 SWAP7 SWAP6 SWAP5 SWAP4 SWAP3 SWAP2 SWAP1 PUSH2 0x1264 JUMP JUMPDEST PUSH1 0x40 MLOAD DUP1 SWAP2 SUB SWAP1 RETURN JUMPDEST PUSH2 0x1A7 PUSH2 0x98B JUMP JUMPDEST PUSH1 0x40 MLOAD PUSH2 0x1B4 SWAP2 SWAP1 PUSH2 0x110B JUMP JUMPDEST PUSH1 0x40 MLOAD DUP1 SWAP2 SUB SWAP1 RETURN JUMPDEST PUSH2 0x1D7 PUSH1 0x4 DUP1 CALLDATASIZE SUB DUP2 ADD SWAP1 PUSH2 0x1D2 SWAP2 SWAP1 PUSH2 0x10D1 JUMP JUMPDEST PUSH2 0x991 JUMP JUMPDEST STOP JUMPDEST PUSH2 0x1F3 PUSH1 0x4 DUP1 CALLDATASIZE SUB DUP2 ADD SWAP1 PUSH2 0x1EE SWAP2 SWAP1 PUSH2 0x120C JUMP JUMPDEST PUSH2 0xC0A JUMP JUMPDEST STOP JUMPDEST PUSH2 0x1FD PUSH2 0xED4 JUMP JUMPDEST PUSH1 0x40 MLOAD PUSH2 0x20A SWAP2 SWAP1 PUSH2 0x1309 JUMP JUMPDEST PUSH1 0x40 MLOAD DUP1 SWAP2 SUB SWAP1 RETURN JUMPDEST PUSH0 DUP1 SLOAD SWAP1 PUSH2 0x100 EXP SWAP1 DIV PUSH20 0xFFFFFFFFFFFFFFFFFFFFFFFFFFFFFFFFFFFFFFFF AND PUSH20 0xFFFFFFFFFFFFFFFFFFFFFFFFFFFFFFFFFFFFFFFF AND CALLER PUSH20 0xFFFFFFFFFFFFFFFFFFFFFFFFFFFFFFFFFFFFFFFF AND EQ PUSH2 0x2A0 JUMPI PUSH1 0x40 MLOAD PUSH32 0x8C379A000000000000000000000000000000000000000000000000000000000 DUP2 MSTORE PUSH1 0x4 ADD PUSH2 0x297 SWAP1 PUSH2 0x1392 JUMP JUMPDEST PUSH1 0x40 MLOAD DUP1 SWAP2 SUB SWAP1 REVERT JUMPDEST DUP2 PUSH0 DUP2 GT DUP1 ISZERO PUSH2 0x2B2 JUMPI POP PUSH1 0x1 SLOAD DUP2 GT ISZERO JUMPDEST PUSH2 0x2F1 JUMPI PUSH1 0x40 MLOAD PUSH32 0x8C379A000000000000000000000000000000000000000000000000000000000 DUP2 MSTORE PUSH1 0x4 ADD PUSH2 0x2E8 SWAP1 PUSH2 0x13FA JUMP JUMPDEST PUSH1 0x40 MLOAD DUP1 SWAP2 SUB SWAP1 REVERT JUMPDEST DUP3 PUSH1 0x2 PUSH0 DUP3 DUP2 MSTORE PUSH1 0x20 ADD SWAP1 DUP2 MSTORE PUSH1 0x20 ADD PUSH0 KECCAK256 PUSH1 0x2 ADD PUSH0 SWAP1 SLOAD SWAP1 PUSH2 0x100 EXP SWAP1 DIV PUSH1 0xFF AND PUSH2 0x352 JUMPI PUSH1 0x40 MLOAD PUSH32 0x8C379A000000000000000000000000000000000000000000000000000000000 DUP2 MSTORE PUSH1 0x4 ADD PUSH2 0x349 SWAP1 PUSH2 0x1462 JUMP JUMPDEST PUSH1 0x40 MLOAD DUP1 SWAP2 SUB SWAP1 REVERT JUMPDEST PUSH1 0x2 PUSH0 DUP3 DUP2 MSTORE PUSH1 0x20 ADD SWAP1 DUP2 MSTORE PUSH1 0x20 ADD PUSH0 KECCAK256 PUSH1 0x3 ADD SLOAD TIMESTAMP LT PUSH2 0x3A8 JUMPI PUSH1 0x40 MLOAD PUSH32 0x8C379A000000000000000000000000000000000000000000000000000000000 DUP2 MSTORE PUSH1 0x4 ADD PUSH2 0x39F SWAP1 PUSH2 0x14CA JUMP JUMPDEST PUSH1 0x40 MLOAD DUP1 SWAP2 SUB SWAP1 REVERT JUMPDEST PUSH0 PUSH1 0x2 PUSH0 DUP7 DUP2 MSTORE PUSH1 0x20 ADD SWAP1 DUP2 MSTORE PUSH1 0x20 ADD PUSH0 KECCAK256 SWAP1 POP DUP1 PUSH1 0x5 ADD PUSH0 DUP2 SLOAD DUP1 SWAP3 SWAP2 SWAP1 PUSH2 0x3D0 SWAP1 PUSH2 0x1515 JUMP JUMPDEST SWAP2 SWAP1 POP SSTORE POP PUSH1 0x40 MLOAD DUP1 PUSH1 0x60 ADD PUSH1 0x40 MSTORE DUP1 DUP3 PUSH1 0x5 ADD SLOAD DUP2 MSTORE PUSH1 0x20 ADD DUP6 DUP2 MSTORE PUSH1 0x20 ADD PUSH0 DUP2 MSTORE POP DUP2 PUSH1 0x4 ADD PUSH0 DUP4 PUSH1 0x5 ADD SLOAD DUP2 MSTORE PUSH1 0x20 ADD SWAP1 DUP2 MSTORE PUSH1 0x20 ADD PUSH0 KECCAK256 PUSH0 DUP3 ADD MLOAD DUP2 PUSH0 ADD SSTORE PUSH1 0x20 DUP3 ADD MLOAD DUP2 PUSH1 0x1 ADD SWAP1 DUP2 PUSH2 0x428 SWAP2 SWAP1 PUSH2 0x1756 JUMP JUMPDEST POP PUSH1 0x40 DUP3 ADD MLOAD DUP2 PUSH1 0x2 ADD SSTORE SWAP1 POP POP DUP1 PUSH1 0x5 ADD SLOAD DUP6 PUSH32 0xED8911B3DF733B7D5F75724158E54478EA12E30F49C9D31B5261879F5B76586F DUP7 PUSH1 0x40 MLOAD PUSH2 0x46B SWAP2 SWAP1 PUSH2 0x1825 JUMP JUMPDEST PUSH1 0x40 MLOAD DUP1 SWAP2 SUB SWAP1 LOG3 POP POP POP POP POP JUMP JUMPDEST PUSH0 DUP2 PUSH0 DUP2 GT DUP1 ISZERO PUSH2 0x48D JUMPI POP PUSH1 0x1 SLOAD DUP2 GT ISZERO JUMPDEST PUSH2 0x4CC JUMPI PUSH1 0x40 MLOAD PUSH32 0x8C379A000000000000000000000000000000000000000000000000000000000 DUP2 MSTORE PUSH1 0x4 ADD PUSH2 0x4C3 SWAP1 PUSH2 0x13FA JUMP JUMPDEST PUSH1 0x40 MLOAD DUP1 SWAP2 SUB SWAP1 REVERT JUMPDEST PUSH1 0x2 PUSH0 DUP5 DUP2 MSTORE PUSH1 0x20 ADD SWAP1 DUP2 MSTORE PUSH1 0x20 ADD PUSH0 KECCAK256 PUSH1 0x7 ADD SLOAD SWAP2 POP POP SWAP2 SWAP1 POP JUMP JUMPDEST PUSH1 0x60 PUSH0 DUP3 PUSH0 DUP2 GT DUP1 ISZERO PUSH2 0x4FE JUMPI POP PUSH1 0x1 SLOAD DUP2 GT ISZERO JUMPDEST PUSH2 0x53D JUMPI PUSH1 0x40 MLOAD PUSH32 0x8C379A000000000000000000000000000000000000000000000000000000000 DUP2 MSTORE PUSH1 0x4 ADD PUSH2 0x534 SWAP1 PUSH2 0x13FA JUMP JUMPDEST PUSH1 0x40 MLOAD DUP1 SWAP2 SUB SWAP1 REVERT JUMPDEST PUSH0 PUSH1 0x2 PUSH0 DUP7 DUP2 MSTORE PUSH1 0x20 ADD SWAP1 DUP2 MSTORE PUSH1 0x20 ADD PUSH0 KECCAK256 SWAP1 POP PUSH0 DUP1 PUSH0 PUSH1 0x1 SWAP1 POP DUP4 PUSH1 0x5 ADD SLOAD DUP2 GT PUSH2 0x64C JUMPI DUP3 DUP5 PUSH1 0x4 ADD PUSH0 DUP4 DUP2 MSTORE PUSH1 0x20 ADD SWAP1 DUP2 MSTORE PUSH1 0x20 ADD PUSH0 KECCAK256 PUSH1 0x2 ADD SLOAD GT ISZERO PUSH2 0x59E JUMPI DUP4 PUSH1 0x4 ADD PUSH0 DUP3 DUP2 MSTORE PUSH1 0x20 ADD SWAP1 DUP2 MSTORE PUSH1 0x20 ADD PUSH0 KECCAK256 PUSH1 0x2 ADD SLOAD SWAP3 POP DUP1 SWAP2 POP JUMPDEST DUP4 PUSH1 0x4 ADD PUSH0 DUP4 DUP2 MSTORE PUSH1 0x20 ADD SWAP1 DUP2 MSTORE PUSH1 0x20 ADD PUSH0 KECCAK256 PUSH1 0x1 ADD DUP4 DUP2 DUP1 SLOAD PUSH2 0x5C1 SWAP1 PUSH2 0x1589 JUMP JUMPDEST DUP1 PUSH1 0x1F ADD PUSH1 0x20 DUP1 SWAP2 DIV MUL PUSH1 0x20 ADD PUSH1 0x40 MLOAD SWAP1 DUP2 ADD PUSH1 0x40 MSTORE DUP1 SWAP3 SWAP2 SWAP1 DUP2 DUP2 MSTORE PUSH1 0x20 ADD DUP3 DUP1 SLOAD PUSH2 0x5ED SWAP1 PUSH2 0x1589 JUMP JUMPDEST DUP1 ISZERO PUSH2 0x638 JUMPI DUP1 PUSH1 0x1F LT PUSH2 0x60F JUMPI PUSH2 0x100 DUP1 DUP4 SLOAD DIV MUL DUP4 MSTORE SWAP2 PUSH1 0x20 ADD SWAP2 PUSH2 0x638 JUMP JUMPDEST DUP3 ADD SWAP2 SWAP1 PUSH0 MSTORE PUSH1 0x20 PUSH0 KECCAK256 SWAP1 JUMPDEST DUP2 SLOAD DUP2 MSTORE SWAP1 PUSH1 0x1 ADD SWAP1 PUSH1 0x20 ADD DUP1 DUP4 GT PUSH2 0x61B JUMPI DUP3 SWAP1 SUB PUSH1 0x1F AND DUP3 ADD SWAP2 JUMPDEST POP POP POP POP POP SWAP2 POP SWAP7 POP SWAP7 POP POP POP POP POP PUSH2 0x651 JUMP JUMPDEST POP POP POP POP JUMPDEST POP SWAP2 POP SWAP2 JUMP JUMPDEST PUSH0 DUP1 SLOAD SWAP1 PUSH2 0x100 EXP SWAP1 DIV PUSH20 0xFFFFFFFFFFFFFFFFFFFFFFFFFFFFFFFFFFFFFFFF AND PUSH20 0xFFFFFFFFFFFFFFFFFFFFFFFFFFFFFFFFFFFFFFFF AND CALLER PUSH20 0xFFFFFFFFFFFFFFFFFFFFFFFFFFFFFFFFFFFFFFFF AND EQ PUSH2 0x6E4 JUMPI PUSH1 0x40 MLOAD PUSH32 0x8C379A000000000000000000000000000000000000000000000000000000000 DUP2 MSTORE PUSH1 0x4 ADD PUSH2 0x6DB SWAP1 PUSH2 0x1392 JUMP JUMPDEST PUSH1 0x40 MLOAD DUP1 SWAP2 SUB SWAP1 REVERT JUMPDEST PUSH1 0x1 PUSH0 DUP2 SLOAD DUP1 SWAP3 SWAP2 SWAP1 PUSH2 0x6F6 SWAP1 PUSH2 0x1515 JUMP JUMPDEST SWAP2 SWAP1 POP SSTORE POP PUSH0 PUSH1 0x2 PUSH0 PUSH1 0x1 SLOAD DUP2 MSTORE PUSH1 0x20 ADD SWAP1 DUP2 MSTORE PUSH1 0x20 ADD PUSH0 KECCAK256 SWAP1 POP PUSH1 0x1 SLOAD DUP2 PUSH0 ADD DUP2 SWAP1 SSTORE POP DUP3 DUP2 PUSH1 0x1 ADD SWAP1 DUP2 PUSH2 0x72C SWAP2 SWAP1 PUSH2 0x1756 JUMP JUMPDEST POP PUSH1 0x1 DUP2 PUSH1 0x2 ADD PUSH0 PUSH2 0x100 EXP DUP2 SLOAD DUP2 PUSH1 0xFF MUL NOT AND SWAP1 DUP4 ISZERO ISZERO MUL OR SWAP1 SSTORE POP DUP2 TIMESTAMP PUSH2 0x755 SWAP2 SWAP1 PUSH2 0x1845 JUMP JUMPDEST DUP2 PUSH1 0x3 ADD DUP2 SWAP1 SSTORE POP PUSH1 0x1 SLOAD PUSH32 0x43131521170C5B80FFE9526CFEC987F5A24EB1F6C4BDA47C41A5E4B8388AFE5C DUP5 DUP4 PUSH1 0x3 ADD SLOAD PUSH1 0x40 MLOAD PUSH2 0x795 SWAP3 SWAP2 SWAP1 PUSH2 0x1184 JUMP JUMPDEST PUSH1 0x40 MLOAD DUP1 SWAP2 SUB SWAP1 LOG2 POP POP POP JUMP JUMPDEST PUSH1 0x60 PUSH0 DUP4 PUSH0 DUP2 GT DUP1 ISZERO PUSH2 0x7B7 JUMPI POP PUSH1 0x1 SLOAD DUP2 GT ISZERO JUMPDEST PUSH2 0x7F6 JUMPI PUSH1 0x40 MLOAD PUSH32 0x8C379A000000000000000000000000000000000000000000000000000000000 DUP2 MSTORE PUSH1 0x4 ADD PUSH2 0x7ED SWAP1 PUSH2 0x13FA JUMP JUMPDEST PUSH1 0x40 MLOAD DUP1 SWAP2 SUB SWAP1 REVERT JUMPDEST PUSH0 PUSH1 0x2 PUSH0 DUP8 DUP2 MSTORE PUSH1 0x20 ADD SWAP1 DUP2 MSTORE PUSH1 0x20 ADD PUSH0 KECCAK256 SWAP1 POP PUSH0 DUP2 PUSH1 0x4 ADD PUSH0 DUP8 DUP2 MSTORE PUSH1 0x20 ADD SWAP1 DUP2 MSTORE PUSH1 0x20 ADD PUSH0 KECCAK256 SWAP1 POP DUP1 PUSH1 0x1 ADD DUP2 PUSH1 0x2 ADD SLOAD DUP2 DUP1 SLOAD PUSH2 0x835 SWAP1 PUSH2 0x1589 JUMP JUMPDEST DUP1 PUSH1 0x1F ADD PUSH1 0x20 DUP1 SWAP2 DIV MUL PUSH1 0x20 ADD PUSH1 0x40 MLOAD SWAP1 DUP2 ADD PUSH1 0x40 MSTORE DUP1 SWAP3 SWAP2 SWAP1 DUP2 DUP2 MSTORE PUSH1 0x20 ADD DUP3 DUP1 SLOAD PUSH2 0x861 SWAP1 PUSH2 0x1589 JUMP JUMPDEST DUP1 ISZERO PUSH2 0x8AC JUMPI DUP1 PUSH1 0x1F LT PUSH2 0x883 JUMPI PUSH2 0x100 DUP1 DUP4 SLOAD DIV MUL DUP4 MSTORE SWAP2 PUSH1 0x20 ADD SWAP2 PUSH2 0x8AC JUMP JUMPDEST DUP3 ADD SWAP2 SWAP1 PUSH0 MSTORE PUSH1 0x20 PUSH0 KECCAK256 SWAP1 JUMPDEST DUP2 SLOAD DUP2 MSTORE SWAP1 PUSH1 0x1 ADD SWAP1 PUSH1 0x20 ADD DUP1 DUP4 GT PUSH2 0x88F JUMPI DUP3 SWAP1 SUB PUSH1 0x1F AND DUP3 ADD SWAP2 JUMPDEST POP POP POP POP POP SWAP2 POP SWAP5 POP SWAP5 POP POP POP POP SWAP3 POP SWAP3 SWAP1 POP JUMP JUMPDEST PUSH1 0x2 PUSH1 0x20 MSTORE DUP1 PUSH0 MSTORE PUSH1 0x40 PUSH0 KECCAK256 PUSH0 SWAP2 POP SWAP1 POP DUP1 PUSH0 ADD SLOAD SWAP1 DUP1 PUSH1 0x1 ADD DUP1 SLOAD PUSH2 0x8E6 SWAP1 PUSH2 0x1589 JUMP JUMPDEST DUP1 PUSH1 0x1F ADD PUSH1 0x20 DUP1 SWAP2 DIV MUL PUSH1 0x20 ADD PUSH1 0x40 MLOAD SWAP1 DUP2 ADD PUSH1 0x40 MSTORE DUP1 SWAP3 SWAP2 SWAP1 DUP2 DUP2 MSTORE PUSH1 0x20 ADD DUP3 DUP1 SLOAD PUSH2 0x912 SWAP1 PUSH2 0x1589 JUMP JUMPDEST DUP1 ISZERO PUSH2 0x95D JUMPI DUP1 PUSH1 0x1F LT PUSH2 0x934 JUMPI PUSH2 0x100 DUP1 DUP4 SLOAD DIV MUL DUP4 MSTORE SWAP2 PUSH1 0x20 ADD SWAP2 PUSH2 0x95D JUMP JUMPDEST DUP3 ADD SWAP2 SWAP1 PUSH0 MSTORE PUSH1 0x20 PUSH0 KECCAK256 SWAP1 JUMPDEST DUP2 SLOAD DUP2 MSTORE SWAP1 PUSH1 0x1 ADD SWAP1 PUSH1 0x20 ADD DUP1 DUP4 GT PUSH2 0x940 JUMPI DUP3 SWAP1 SUB PUSH1 0x1F AND DUP3 ADD SWAP2 JUMPDEST POP POP POP POP POP SWAP1 DUP1 PUSH1 0x2 ADD PUSH0 SWAP1 SLOAD SWAP1 PUSH2 0x100 EXP SWAP1 DIV PUSH1 0xFF AND SWAP1 DUP1 PUSH1 0x3 ADD SLOAD SWAP1 DUP1 PUSH1 0x5 ADD SLOAD SWAP1 DUP1 PUSH1 0x7 ADD SLOAD SWAP1 POP DUP7 JUMP JUMPDEST PUSH1 0x1 SLOAD DUP2 JUMP JUMPDEST PUSH0 DUP1 SLOAD SWAP1 PUSH2 0x100 EXP SWAP1 DIV PUSH20 0xFFFFFFFFFFFFFFFFFFFFFFFFFFFFFFFFFFFFFFFF AND PUSH20 0xFFFFFFFFFFFFFFFFFFFFFFFFFFFFFFFFFFFFFFFF AND CALLER PUSH20 0xFFFFFFFFFFFFFFFFFFFFFFFFFFFFFFFFFFFFFFFF AND EQ PUSH2 0xA1E JUMPI PUSH1 0x40 MLOAD PUSH32 0x8C379A000000000000000000000000000000000000000000000000000000000 DUP2 MSTORE PUSH1 0x4 ADD PUSH2 0xA15 SWAP1 PUSH2 0x1392 JUMP JUMPDEST PUSH1 0x40 MLOAD DUP1 SWAP2 SUB SWAP1 REVERT JUMPDEST DUP1 PUSH0 DUP2 GT DUP1 ISZERO PUSH2 0xA30 JUMPI POP PUSH1 0x1 SLOAD DUP2 GT ISZERO JUMPDEST PUSH2 0xA6F JUMPI PUSH1 0x40 MLOAD PUSH32 0x8C379A000000000000000000000000000000000000000000000000000000000 DUP2 MSTORE PUSH1 0x4 ADD PUSH2 0xA66 SWAP1 PUSH2 0x13FA JUMP JUMPDEST PUSH1 0x40 MLOAD DUP1 SWAP2 SUB SWAP1 REVERT JUMPDEST DUP2 PUSH1 0x2 PUSH0 DUP3 DUP2 MSTORE PUSH1 0x20 ADD SWAP1 DUP2 MSTORE PUSH1 0x20 ADD PUSH0 KECCAK256 PUSH1 0x2 ADD PUSH0 SWAP1 SLOAD SWAP1 PUSH2 0x100 EXP SWAP1 DIV PUSH1 0xFF AND PUSH2 0xAD0 JUMPI PUSH1 0x40 MLOAD PUSH32 0x8C379A000000000000000000000000000000000000000000000000000000000 DUP2 MSTORE PUSH1 0x4 ADD PUSH2 0xAC7 SWAP1 PUSH2 0x1462 JUMP JUMPDEST PUSH1 0x40 MLOAD DUP1 SWAP2 SUB SWAP1 REVERT JUMPDEST PUSH1 0x2 PUSH0 DUP3 DUP2 MSTORE PUSH1 0x20 ADD SWAP1 DUP2 MSTORE PUSH1 0x20 ADD PUSH0 KECCAK256 PUSH1 0x3 ADD SLOAD TIMESTAMP LT PUSH2 0xB26 JUMPI PUSH1 0x40 MLOAD PUSH32 0x8C379A000000000000000000000000000000000000000000000000000000000 DUP2 MSTORE PUSH1 0x4 ADD PUSH2 0xB1D SWAP1 PUSH2 0x14CA JUMP JUMPDEST PUSH1 0x40 MLOAD DUP1 SWAP2 SUB SWAP1 REVERT JUMPDEST PUSH0 PUSH1 0x2 PUSH0 DUP6 DUP2 MSTORE PUSH1 0x20 ADD SWAP1 DUP2 MSTORE PUSH1 0x20 ADD PUSH0 KECCAK256 SWAP1 POP PUSH0 DUP2 PUSH1 0x2 ADD PUSH0 PUSH2 0x100 EXP DUP2 SLOAD DUP2 PUSH1 0xFF MUL NOT AND SWAP1 DUP4 ISZERO ISZERO MUL OR SWAP1 SSTORE POP PUSH0 DUP1 PUSH0 PUSH1 0x1 SWAP1 POP JUMPDEST DUP4 PUSH1 0x5 ADD SLOAD DUP2 LT ISZERO PUSH2 0xBB1 JUMPI DUP3 DUP5 PUSH1 0x4 ADD PUSH0 DUP4 DUP2 MSTORE PUSH1 0x20 ADD SWAP1 DUP2 MSTORE PUSH1 0x20 ADD PUSH0 KECCAK256 PUSH1 0x2 ADD SLOAD GT ISZERO PUSH2 0xBA4 JUMPI DUP4 PUSH1 0x4 ADD PUSH0 DUP3 DUP2 MSTORE PUSH1 0x20 ADD SWAP1 DUP2 MSTORE PUSH1 0x20 ADD PUSH0 KECCAK256 PUSH1 0x2 ADD SLOAD SWAP3 POP DUP1 SWAP2 POP JUMPDEST DUP1 DUP1 PUSH1 0x1 ADD SWAP2 POP POP PUSH2 0xB5D JUMP JUMPDEST POP DUP1 DUP7 PUSH32 0xBC7BAEB63E80142A062A698ADE8544587DFC5FCDA61CA4B964418A42E9A4A786 DUP6 PUSH1 0x4 ADD PUSH0 DUP6 DUP2 MSTORE PUSH1 0x20 ADD SWAP1 DUP2 MSTORE PUSH1 0x20 ADD PUSH0 KECCAK256 PUSH1 0x1 ADD DUP6 PUSH1 0x40 MLOAD PUSH2 0xBFA SWAP3 SWAP2 SWAP1 PUSH2 0x18F9 JUMP JUMPDEST PUSH1 0x40 MLOAD DUP1 SWAP2 SUB SWAP1 LOG3 POP POP POP POP POP POP JUMP JUMPDEST DUP2 PUSH0 DUP2 GT DUP1 ISZERO PUSH2 0xC1C JUMPI POP PUSH1 0x1 SLOAD DUP2 GT ISZERO JUMPDEST PUSH2 0xC5B JUMPI PUSH1 0x40 MLOAD PUSH32 0x8C379A000000000000000000000000000000000000000000000000000000000 DUP2 MSTORE PUSH1 0x4 ADD PUSH2 0xC52 SWAP1 PUSH2 0x13FA JUMP JUMPDEST PUSH1 0x40 MLOAD DUP1 SWAP2 SUB SWAP1 REVERT JUMPDEST DUP3 PUSH1 0x2 PUSH0 DUP3 DUP2 MSTORE PUSH1 0x20 ADD SWAP1 DUP2 MSTORE PUSH1 0x20 ADD PUSH0 KECCAK256 PUSH1 0x2 ADD PUSH0 SWAP1 SLOAD SWAP1 PUSH2 0x100 EXP SWAP1 DIV PUSH1 0xFF AND PUSH2 0xCBC JUMPI PUSH1 0x40 MLOAD PUSH32 0x8C379A000000000000000000000000000000000000000000000000000000000 DUP2 MSTORE PUSH1 0x4 ADD PUSH2 0xCB3 SWAP1 PUSH2 0x1462 JUMP JUMPDEST PUSH1 0x40 MLOAD DUP1 SWAP2 SUB SWAP1 REVERT JUMPDEST PUSH1 0x2 PUSH0 DUP3 DUP2 MSTORE PUSH1 0x20 ADD SWAP1 DUP2 MSTORE PUSH1 0x20 ADD PUSH0 KECCAK256 PUSH1 0x3 ADD SLOAD TIMESTAMP LT PUSH2 0xD12 JUMPI PUSH1 0x40 MLOAD PUSH32 0x8C379A000000000000000000000000000000000000000000000000000000000 DUP2 MSTORE PUSH1 0x4 ADD PUSH2 0xD09 SWAP1 PUSH2 0x14CA JUMP JUMPDEST PUSH1 0x40 MLOAD DUP1 SWAP2 SUB SWAP1 REVERT JUMPDEST PUSH0 PUSH1 0x2 PUSH0 DUP7 DUP2 MSTORE PUSH1 0x20 ADD SWAP1 DUP2 MSTORE PUSH1 0x20 ADD PUSH0 KECCAK256 SWAP1 POP DUP1 PUSH1 0x6 ADD PUSH0 CALLER PUSH20 0xFFFFFFFFFFFFFFFFFFFFFFFFFFFFFFFFFFFFFFFF AND PUSH20 0xFFFFFFFFFFFFFFFFFFFFFFFFFFFFFFFFFFFFFFFF AND DUP2 MSTORE PUSH1 0x20 ADD SWAP1 DUP2 MSTORE PUSH1 0x20 ADD PUSH0 KECCAK256 PUSH0 SWAP1 SLOAD SWAP1 PUSH2 0x100 EXP SWAP1 DIV PUSH1 0xFF AND ISZERO PUSH2 0xDB2 JUMPI PUSH1 0x40 MLOAD PUSH32 0x8C379A000000000000000000000000000000000000000000000000000000000 DUP2 MSTORE PUSH1 0x4 ADD PUSH2 0xDA9 SWAP1 PUSH2 0x1971 JUMP JUMPDEST PUSH1 0x40 MLOAD DUP1 SWAP2 SUB SWAP1 REVERT JUMPDEST PUSH0 DUP5 GT DUP1 ISZERO PUSH2 0xDC5 JUMPI POP DUP1 PUSH1 0x5 ADD SLOAD DUP5 GT ISZERO JUMPDEST PUSH2 0xE04 JUMPI PUSH1 0x40 MLOAD PUSH32 0x8C379A000000000000000000000000000000000000000000000000000000000 DUP2 MSTORE PUSH1 0x4 ADD PUSH2 0xDFB SWAP1 PUSH2 0x19D9 JUMP JUMPDEST PUSH1 0x40 MLOAD DUP1 SWAP2 SUB SWAP1 REVERT JUMPDEST PUSH1 0x1 DUP2 PUSH1 0x6 ADD PUSH0 CALLER PUSH20 0xFFFFFFFFFFFFFFFFFFFFFFFFFFFFFFFFFFFFFFFF AND PUSH20 0xFFFFFFFFFFFFFFFFFFFFFFFFFFFFFFFFFFFFFFFF AND DUP2 MSTORE PUSH1 0x20 ADD SWAP1 DUP2 MSTORE PUSH1 0x20 ADD PUSH0 KECCAK256 PUSH0 PUSH2 0x100 EXP DUP2 SLOAD DUP2 PUSH1 0xFF MUL NOT AND SWAP1 DUP4 ISZERO ISZERO MUL OR SWAP1 SSTORE POP DUP1 PUSH1 0x4 ADD PUSH0 DUP6 DUP2 MSTORE PUSH1 0x20 ADD SWAP1 DUP2 MSTORE PUSH1 0x20 ADD PUSH0 KECCAK256 PUSH1 0x2 ADD PUSH0 DUP2 SLOAD DUP1 SWAP3 SWAP2 SWAP1 PUSH2 0xE81 SWAP1 PUSH2 0x1515 JUMP JUMPDEST SWAP2 SWAP1 POP SSTORE POP DUP1 PUSH1 0x7 ADD PUSH0 DUP2 SLOAD DUP1 SWAP3 SWAP2 SWAP1 PUSH2 0xE9A SWAP1 PUSH2 0x1515 JUMP JUMPDEST SWAP2 SWAP1 POP SSTORE POP DUP4 DUP6 PUSH32 0xC31875EF3ED5138B71A0C1DA7E494BC4D2BA4F567084EA481EC9C45F3A93948B PUSH1 0x40 MLOAD PUSH1 0x40 MLOAD DUP1 SWAP2 SUB SWAP1 LOG3 POP POP POP POP POP JUMP JUMPDEST PUSH0 DUP1 SLOAD SWAP1 PUSH2 0x100 EXP SWAP1 DIV PUSH20 0xFFFFFFFFFFFFFFFFFFFFFFFFFFFFFFFFFFFFFFFF AND DUP2 JUMP JUMPDEST PUSH0 PUSH1 0x40 MLOAD SWAP1 POP SWAP1 JUMP JUMPDEST PUSH0 DUP1 REVERT JUMPDEST PUSH0 DUP1 REVERT JUMPDEST PUSH0 DUP2 SWAP1 POP SWAP2 SWAP1 POP JUMP JUMPDEST PUSH2 0xF1A DUP2 PUSH2 0xF08 JUMP JUMPDEST DUP2 EQ PUSH2 0xF24 JUMPI PUSH0 DUP1 REVERT JUMPDEST POP JUMP JUMPDEST PUSH0 DUP2 CALLDATALOAD SWAP1 POP PUSH2 0xF35 DUP2 PUSH2 0xF11 JUMP JUMPDEST SWAP3 SWAP2 POP POP JUMP JUMPDEST PUSH0 DUP1 REVERT JUMPDEST PUSH0 DUP1 REVERT JUMPDEST PUSH0 PUSH1 0x1F NOT PUSH1 0x1F DUP4 ADD AND SWAP1 POP SWAP2 SWAP1 POP JUMP JUMPDEST PUSH32 0x4E487B7100000000000000000000000000000000000000000000000000000000 PUSH0 MSTORE PUSH1 0x41 PUSH1 0x4 MSTORE PUSH1 0x24 PUSH0 REVERT JUMPDEST PUSH2 0xF89 DUP3 PUSH2 0xF43 JUMP JUMPDEST DUP2 ADD DUP2 DUP2 LT PUSH8 0xFFFFFFFFFFFFFFFF DUP3 GT OR ISZERO PUSH2 0xFA8 JUMPI PUSH2 0xFA7 PUSH2 0xF53 JUMP JUMPDEST JUMPDEST DUP1 PUSH1 0x40 MSTORE POP POP POP JUMP JUMPDEST PUSH0 PUSH2 0xFBA PUSH2 0xEF7 JUMP JUMPDEST SWAP1 POP PUSH2 0xFC6 DUP3 DUP3 PUSH2 0xF80 JUMP JUMPDEST SWAP2 SWAP1 POP JUMP JUMPDEST PUSH0 PUSH8 0xFFFFFFFFFFFFFFFF DUP3 GT ISZERO PUSH2 0xFE5 JUMPI PUSH2 0xFE4 PUSH2 0xF53 JUMP JUMPDEST JUMPDEST PUSH2 0xFEE DUP3 PUSH2 0xF43 JUMP JUMPDEST SWAP1 POP PUSH1 0x20 DUP2 ADD SWAP1 POP SWAP2 SWAP1 POP JUMP JUMPDEST DUP3 DUP2 DUP4 CALLDATACOPY PUSH0 DUP4 DUP4 ADD MSTORE POP POP POP JUMP JUMPDEST PUSH0 PUSH2 0x101B PUSH2 0x1016 DUP5 PUSH2 0xFCB JUMP JUMPDEST PUSH2 0xFB1 JUMP JUMPDEST SWAP1 POP DUP3 DUP2 MSTORE PUSH1 0x20 DUP2 ADD DUP5 DUP5 DUP5 ADD GT ISZERO PUSH2 0x1037 JUMPI PUSH2 0x1036 PUSH2 0xF3F JUMP JUMPDEST JUMPDEST PUSH2 0x1042 DUP5 DUP3 DUP6 PUSH2 0xFFB JUMP JUMPDEST POP SWAP4 SWAP3 POP POP POP JUMP JUMPDEST PUSH0 DUP3 PUSH1 0x1F DUP4 ADD SLT PUSH2 0x105E JUMPI PUSH2 0x105D PUSH2 0xF3B JUMP JUMPDEST JUMPDEST DUP2 CALLDATALOAD PUSH2 0x106E DUP5 DUP3 PUSH1 0x20 DUP7 ADD PUSH2 0x1009 JUMP JUMPDEST SWAP2 POP POP SWAP3 SWAP2 POP POP JUMP JUMPDEST PUSH0 DUP1 PUSH1 0x40 DUP4 DUP6 SUB SLT ISZERO PUSH2 0x108D JUMPI PUSH2 0x108C PUSH2 0xF00 JUMP JUMPDEST JUMPDEST PUSH0 PUSH2 0x109A DUP6 DUP3 DUP7 ADD PUSH2 0xF27 JUMP JUMPDEST SWAP3 POP POP PUSH1 0x20 DUP4 ADD CALLDATALOAD PUSH8 0xFFFFFFFFFFFFFFFF DUP2 GT ISZERO PUSH2 0x10BB JUMPI PUSH2 0x10BA PUSH2 0xF04 JUMP JUMPDEST JUMPDEST PUSH2 0x10C7 DUP6 DUP3 DUP7 ADD PUSH2 0x104A JUMP JUMPDEST SWAP2 POP POP SWAP3 POP SWAP3 SWAP1 POP JUMP JUMPDEST PUSH0 PUSH1 0x20 DUP3 DUP5 SUB SLT ISZERO PUSH2 0x10E6 JUMPI PUSH2 0x10E5 PUSH2 0xF00 JUMP JUMPDEST JUMPDEST PUSH0 PUSH2 0x10F3 DUP5 DUP3 DUP6 ADD PUSH2 0xF27 JUMP JUMPDEST SWAP2 POP POP SWAP3 SWAP2 POP POP JUMP JUMPDEST PUSH2 0x1105 DUP2 PUSH2 0xF08 JUMP JUMPDEST DUP3 MSTORE POP POP JUMP JUMPDEST PUSH0 PUSH1 0x20 DUP3 ADD SWAP1 POP PUSH2 0x111E PUSH0 DUP4 ADD DUP5 PUSH2 0x10FC JUMP JUMPDEST SWAP3 SWAP2 POP POP JUMP JUMPDEST PUSH0 DUP2 MLOAD SWAP1 POP SWAP2 SWAP1 POP JUMP JUMPDEST PUSH0 DUP3 DUP3 MSTORE PUSH1 0x20 DUP3 ADD SWAP1 POP SWAP3 SWAP2 POP POP JUMP JUMPDEST DUP3 DUP2 DUP4 MCOPY PUSH0 DUP4 DUP4 ADD MSTORE POP POP POP JUMP JUMPDEST PUSH0 PUSH2 0x1156 DUP3 PUSH2 0x1124 JUMP JUMPDEST PUSH2 0x1160 DUP2 DUP6 PUSH2 0x112E JUMP JUMPDEST SWAP4 POP PUSH2 0x1170 DUP2 DUP6 PUSH1 0x20 DUP7 ADD PUSH2 0x113E JUMP JUMPDEST PUSH2 0x1179 DUP2 PUSH2 0xF43 JUMP JUMPDEST DUP5 ADD SWAP2 POP POP SWAP3 SWAP2 POP POP JUMP JUMPDEST PUSH0 PUSH1 0x40 DUP3 ADD SWAP1 POP DUP2 DUP2 SUB PUSH0 DUP4 ADD MSTORE PUSH2 0x119C DUP2 DUP6 PUSH2 0x114C JUMP JUMPDEST SWAP1 POP PUSH2 0x11AB PUSH1 0x20 DUP4 ADD DUP5 PUSH2 0x10FC JUMP JUMPDEST SWAP4 SWAP3 POP POP POP JUMP JUMPDEST PUSH0 DUP1 PUSH1 0x40 DUP4 DUP6 SUB SLT ISZERO PUSH2 0x11C8 JUMPI PUSH2 0x11C7 PUSH2 0xF00 JUMP JUMPDEST JUMPDEST PUSH0 DUP4 ADD CALLDATALOAD PUSH8 0xFFFFFFFFFFFFFFFF DUP2 GT ISZERO PUSH2 0x11E5 JUMPI PUSH2 0x11E4 PUSH2 0xF04 JUMP JUMPDEST JUMPDEST PUSH2 0x11F1 DUP6 DUP3 DUP7 ADD PUSH2 0x104A JUMP JUMPDEST SWAP3 POP POP PUSH1 0x20 PUSH2 0x1202 DUP6 DUP3 DUP7 ADD PUSH2 0xF27 JUMP JUMPDEST SWAP2 POP POP SWAP3 POP SWAP3 SWAP1 POP JUMP JUMPDEST PUSH0 DUP1 PUSH1 0x40 DUP4 DUP6 SUB SLT ISZERO PUSH2 0x1222 JUMPI PUSH2 0x1221 PUSH2 0xF00 JUMP JUMPDEST JUMPDEST PUSH0 PUSH2 0x122F DUP6 DUP3 DUP7 ADD PUSH2 0xF27 JUMP JUMPDEST SWAP3 POP POP PUSH1 0x20 PUSH2 0x1240 DUP6 DUP3 DUP7 ADD PUSH2 0xF27 JUMP JUMPDEST SWAP2 POP POP SWAP3 POP SWAP3 SWAP1 POP JUMP JUMPDEST PUSH0 DUP2 ISZERO ISZERO SWAP1 POP SWAP2 SWAP1 POP JUMP JUMPDEST PUSH2 0x125E DUP2 PUSH2 0x124A JUMP JUMPDEST DUP3 MSTORE POP POP JUMP JUMPDEST PUSH0 PUSH1 0xC0 DUP3 ADD SWAP1 POP PUSH2 0x1277 PUSH0 DUP4 ADD DUP10 PUSH2 0x10FC JUMP JUMPDEST DUP2 DUP2 SUB PUSH1 0x20 DUP4 ADD MSTORE PUSH2 0x1289 DUP2 DUP9 PUSH2 0x114C JUMP JUMPDEST SWAP1 POP PUSH2 0x1298 PUSH1 0x40 DUP4 ADD DUP8 PUSH2 0x1255 JUMP JUMPDEST PUSH2 0x12A5 PUSH1 0x60 DUP4 ADD DUP7 PUSH2 0x10FC JUMP JUMPDEST PUSH2 0x12B2 PUSH1 0x80 DUP4 ADD DUP6 PUSH2 0x10FC JUMP JUMPDEST PUSH2 0x12BF PUSH1 0xA0 DUP4 ADD DUP5 PUSH2 0x10FC JUMP JUMPDEST SWAP8 SWAP7 POP POP POP POP POP POP POP JUMP JUMPDEST PUSH0 PUSH20 0xFFFFFFFFFFFFFFFFFFFFFFFFFFFFFFFFFFFFFFFF DUP3 AND SWAP1 POP SWAP2 SWAP1 POP JUMP JUMPDEST PUSH0 PUSH2 0x12F3 DUP3 PUSH2 0x12CA JUMP JUMPDEST SWAP1 POP SWAP2 SWAP1 POP JUMP JUMPDEST PUSH2 0x1303 DUP2 PUSH2 0x12E9 JUMP JUMPDEST DUP3 MSTORE POP POP JUMP JUMPDEST PUSH0 PUSH1 0x20 DUP3 ADD SWAP1 POP PUSH2 0x131C PUSH0 DUP4 ADD DUP5 PUSH2 0x12FA JUMP JUMPDEST SWAP3 SWAP2 POP POP JUMP JUMPDEST PUSH32 0x4F6E6C792061646D696E2063616E20706572666F726D2074686973206F706572 PUSH0 DUP3 ADD MSTORE PUSH32 0x6174696F6E000000000000000000000000000000000000000000000000000000 PUSH1 0x20 DUP3 ADD MSTORE POP JUMP JUMPDEST PUSH0 PUSH2 0x137C PUSH1 0x25 DUP4 PUSH2 0x112E JUMP JUMPDEST SWAP2 POP PUSH2 0x1387 DUP3 PUSH2 0x1322 JUMP JUMPDEST PUSH1 0x40 DUP3 ADD SWAP1 POP SWAP2 SWAP1 POP JUMP JUMPDEST PUSH0 PUSH1 0x20 DUP3 ADD SWAP1 POP DUP2 DUP2 SUB PUSH0 DUP4 ADD MSTORE PUSH2 0x13A9 DUP2 PUSH2 0x1370 JUMP JUMPDEST SWAP1 POP SWAP2 SWAP1 POP JUMP JUMPDEST PUSH32 0x456C656374696F6E20646F65736E277420657869737400000000000000000000 PUSH0 DUP3 ADD MSTORE POP JUMP JUMPDEST PUSH0 PUSH2 0x13E4 PUSH1 0x16 DUP4 PUSH2 0x112E JUMP JUMPDEST SWAP2 POP PUSH2 0x13EF DUP3 PUSH2 0x13B0 JUMP JUMPDEST PUSH1 0x20 DUP3 ADD SWAP1 POP SWAP2 SWAP1 POP JUMP JUMPDEST PUSH0 PUSH1 0x20 DUP3 ADD SWAP1 POP DUP2 DUP2 SUB PUSH0 DUP4 ADD MSTORE PUSH2 0x1411 DUP2 PUSH2 0x13D8 JUMP JUMPDEST SWAP1 POP SWAP2 SWAP1 POP JUMP JUMPDEST PUSH32 0x456C656374696F6E206973206E6F742061637469766500000000000000000000 PUSH0 DUP3 ADD MSTORE POP JUMP JUMPDEST PUSH0 PUSH2 0x144C PUSH1 0x16 DUP4 PUSH2 0x112E JUMP JUMPDEST SWAP2 POP PUSH2 0x1457 DUP3 PUSH2 0x1418 JUMP JUMPDEST PUSH1 0x20 DUP3 ADD SWAP1 POP SWAP2 SWAP1 POP JUMP JUMPDEST PUSH0 PUSH1 0x20 DUP3 ADD SWAP1 POP DUP2 DUP2 SUB PUSH0 DUP4 ADD MSTORE PUSH2 0x1479 DUP2 PUSH2 0x1440 JUMP JUMPDEST SWAP1 POP SWAP2 SWAP1 POP JUMP JUMPDEST PUSH32 0x456C656374696F6E2068617320656E6465640000000000000000000000000000 PUSH0 DUP3 ADD MSTORE POP JUMP JUMPDEST PUSH0 PUSH2 0x14B4 PUSH1 0x12 DUP4 PUSH2 0x112E JUMP JUMPDEST SWAP2 POP PUSH2 0x14BF DUP3 PUSH2 0x1480 JUMP JUMPDEST PUSH1 0x20 DUP3 ADD SWAP1 POP SWAP2 SWAP1 POP JUMP JUMPDEST PUSH0 PUSH1 0x20 DUP3 ADD SWAP1 POP DUP2 DUP2 SUB PUSH0 DUP4 ADD MSTORE PUSH2 0x14E1 DUP2 PUSH2 0x14A8 JUMP JUMPDEST SWAP1 POP SWAP2 SWAP1 POP JUMP JUMPDEST PUSH32 0x4E487B7100000000000000000000000000000000000000000000000000000000 PUSH0 MSTORE PUSH1 0x11 PUSH1 0x4 MSTORE PUSH1 0x24 PUSH0 REVERT JUMPDEST PUSH0 PUSH2 0x151F DUP3 PUSH2 0xF08 JUMP JUMPDEST SWAP2 POP PUSH32 0xFFFFFFFFFFFFFFFFFFFFFFFFFFFFFFFFFFFFFFFFFFFFFFFFFFFFFFFFFFFFFFFF DUP3 SUB PUSH2 0x1551 JUMPI PUSH2 0x1550 PUSH2 0x14E8 JUMP JUMPDEST JUMPDEST PUSH1 0x1 DUP3 ADD SWAP1 POP SWAP2 SWAP1 POP JUMP JUMPDEST PUSH32 0x4E487B7100000000000000000000000000000000000000000000000000000000 PUSH0 MSTORE PUSH1 0x22 PUSH1 0x4 MSTORE PUSH1 0x24 PUSH0 REVERT JUMPDEST PUSH0 PUSH1 0x2 DUP3 DIV SWAP1 POP PUSH1 0x1 DUP3 AND DUP1 PUSH2 0x15A0 JUMPI PUSH1 0x7F DUP3 AND SWAP2 POP JUMPDEST PUSH1 0x20 DUP3 LT DUP2 SUB PUSH2 0x15B3 JUMPI PUSH2 0x15B2 PUSH2 0x155C JUMP JUMPDEST JUMPDEST POP SWAP2 SWAP1 POP JUMP JUMPDEST PUSH0 DUP2 SWAP1 POP DUP2 PUSH0 MSTORE PUSH1 0x20 PUSH0 KECCAK256 SWAP1 POP SWAP2 SWAP1 POP JUMP JUMPDEST PUSH0 PUSH1 0x20 PUSH1 0x1F DUP4 ADD DIV SWAP1 POP SWAP2 SWAP1 POP JUMP JUMPDEST PUSH0 DUP3 DUP3 SHL SWAP1 POP SWAP3 SWAP2 POP POP JUMP JUMPDEST PUSH0 PUSH1 0x8 DUP4 MUL PUSH2 0x1615 PUSH32 0xFFFFFFFFFFFFFFFFFFFFFFFFFFFFFFFFFFFFFFFFFFFFFFFFFFFFFFFFFFFFFFFF DUP3 PUSH2 0x15DA JUMP JUMPDEST PUSH2 0x161F DUP7 DUP4 PUSH2 0x15DA JUMP JUMPDEST SWAP6 POP DUP1 NOT DUP5 AND SWAP4 POP DUP1 DUP7 AND DUP5 OR SWAP3 POP POP POP SWAP4 SWAP3 POP POP POP JUMP JUMPDEST PUSH0 DUP2 SWAP1 POP SWAP2 SWAP1 POP JUMP JUMPDEST PUSH0 PUSH2 0x165A PUSH2 0x1655 PUSH2 0x1650 DUP5 PUSH2 0xF08 JUMP JUMPDEST PUSH2 0x1637 JUMP JUMPDEST PUSH2 0xF08 JUMP JUMPDEST SWAP1 POP SWAP2 SWAP1 POP JUMP JUMPDEST PUSH0 DUP2 SWAP1 POP SWAP2 SWAP1 POP JUMP JUMPDEST PUSH2 0x1673 DUP4 PUSH2 0x1640 JUMP JUMPDEST PUSH2 0x1687 PUSH2 0x167F DUP3 PUSH2 0x1661 JUMP JUMPDEST DUP5 DUP5 SLOAD PUSH2 0x15E6 JUMP JUMPDEST DUP3 SSTORE POP POP POP POP JUMP JUMPDEST PUSH0 SWAP1 JUMP JUMPDEST PUSH2 0x169B PUSH2 0x168F JUMP JUMPDEST PUSH2 0x16A6 DUP2 DUP5 DUP5 PUSH2 0x166A JUMP JUMPDEST POP POP POP JUMP JUMPDEST JUMPDEST DUP2 DUP2 LT ISZERO PUSH2 0x16C9 JUMPI PUSH2 0x16BE PUSH0 DUP3 PUSH2 0x1693 JUMP JUMPDEST PUSH1 0x1 DUP2 ADD SWAP1 POP PUSH2 0x16AC JUMP JUMPDEST POP POP JUMP JUMPDEST PUSH1 0x1F DUP3 GT ISZERO PUSH2 0x170E JUMPI PUSH2 0x16DF DUP2 PUSH2 0x15B9 JUMP JUMPDEST PUSH2 0x16E8 DUP5 PUSH2 0x15CB JUMP JUMPDEST DUP2 ADD PUSH1 0x20 DUP6 LT ISZERO PUSH2 0x16F7 JUMPI DUP2 SWAP1 POP JUMPDEST PUSH2 0x170B PUSH2 0x1703 DUP6 PUSH2 0x15CB JUMP JUMPDEST DUP4 ADD DUP3 PUSH2 0x16AB JUMP JUMPDEST POP POP JUMPDEST POP POP POP JUMP JUMPDEST PUSH0 DUP3 DUP3 SHR SWAP1 POP SWAP3 SWAP2 POP POP JUMP JUMPDEST PUSH0 PUSH2 0x172E PUSH0 NOT DUP5 PUSH1 0x8 MUL PUSH2 0x1713 JUMP JUMPDEST NOT DUP1 DUP4 AND SWAP2 POP POP SWAP3 SWAP2 POP POP JUMP JUMPDEST PUSH0 PUSH2 0x1746 DUP4 DUP4 PUSH2 0x171F JUMP JUMPDEST SWAP2 POP DUP3 PUSH1 0x2 MUL DUP3 OR SWAP1 POP SWAP3 SWAP2 POP POP JUMP JUMPDEST PUSH2 0x175F DUP3 PUSH2 0x1124 JUMP JUMPDEST PUSH8 0xFFFFFFFFFFFFFFFF DUP2 GT ISZERO PUSH2 0x1778 JUMPI PUSH2 0x1777 PUSH2 0xF53 JUMP JUMPDEST JUMPDEST PUSH2 0x1782 DUP3 SLOAD PUSH2 0x1589 JUMP JUMPDEST PUSH2 0x178D DUP3 DUP3 DUP6 PUSH2 0x16CD JUMP JUMPDEST PUSH0 PUSH1 0x20 SWAP1 POP PUSH1 0x1F DUP4 GT PUSH1 0x1 DUP2 EQ PUSH2 0x17BE JUMPI PUSH0 DUP5 ISZERO PUSH2 0x17AC JUMPI DUP3 DUP8 ADD MLOAD SWAP1 POP JUMPDEST PUSH2 0x17B6 DUP6 DUP3 PUSH2 0x173B JUMP JUMPDEST DUP7 SSTORE POP PUSH2 0x181D JUMP JUMPDEST PUSH1 0x1F NOT DUP5 AND PUSH2 0x17CC DUP7 PUSH2 0x15B9 JUMP JUMPDEST PUSH0 JUMPDEST DUP3 DUP2 LT ISZERO PUSH2 0x17F3 JUMPI DUP5 DUP10 ADD MLOAD DUP3 SSTORE PUSH1 0x1 DUP3 ADD SWAP2 POP PUSH1 0x20 DUP6 ADD SWAP5 POP PUSH1 0x20 DUP2 ADD SWAP1 POP PUSH2 0x17CE JUMP JUMPDEST DUP7 DUP4 LT ISZERO PUSH2 0x1810 JUMPI DUP5 DUP10 ADD MLOAD PUSH2 0x180C PUSH1 0x1F DUP10 AND DUP3 PUSH2 0x171F JUMP JUMPDEST DUP4 SSTORE POP JUMPDEST PUSH1 0x1 PUSH1 0x2 DUP9 MUL ADD DUP9 SSTORE POP POP POP JUMPDEST POP POP POP POP POP POP JUMP JUMPDEST PUSH0 PUSH1 0x20 DUP3 ADD SWAP1 POP DUP2 DUP2 SUB PUSH0 DUP4 ADD MSTORE PUSH2 0x183D DUP2 DUP5 PUSH2 0x114C JUMP JUMPDEST SWAP1 POP SWAP3 SWAP2 POP POP JUMP JUMPDEST PUSH0 PUSH2 0x184F DUP3 PUSH2 0xF08 JUMP JUMPDEST SWAP2 POP PUSH2 0x185A DUP4 PUSH2 0xF08 JUMP JUMPDEST SWAP3 POP DUP3 DUP3 ADD SWAP1 POP DUP1 DUP3 GT ISZERO PUSH2 0x1872 JUMPI PUSH2 0x1871 PUSH2 0x14E8 JUMP JUMPDEST JUMPDEST SWAP3 SWAP2 POP POP JUMP JUMPDEST PUSH0 DUP2 SLOAD PUSH2 0x1884 DUP2 PUSH2 0x1589 JUMP JUMPDEST PUSH2 0x188E DUP2 DUP7 PUSH2 0x112E JUMP JUMPDEST SWAP5 POP PUSH1 0x1 DUP3 AND PUSH0 DUP2 EQ PUSH2 0x18A8 JUMPI PUSH1 0x1 DUP2 EQ PUSH2 0x18BE JUMPI PUSH2 0x18F0 JUMP JUMPDEST PUSH1 0xFF NOT DUP4 AND DUP7 MSTORE DUP2 ISZERO ISZERO PUSH1 0x20 MUL DUP7 ADD SWAP4 POP PUSH2 0x18F0 JUMP JUMPDEST PUSH2 0x18C7 DUP6 PUSH2 0x15B9 JUMP JUMPDEST PUSH0 JUMPDEST DUP4 DUP2 LT ISZERO PUSH2 0x18E8 JUMPI DUP2 SLOAD DUP2 DUP10 ADD MSTORE PUSH1 0x1 DUP3 ADD SWAP2 POP PUSH1 0x20 DUP2 ADD SWAP1 POP PUSH2 0x18C9 JUMP JUMPDEST DUP1 DUP9 ADD SWAP6 POP POP POP JUMPDEST POP POP POP SWAP3 SWAP2 POP POP JUMP JUMPDEST PUSH0 PUSH1 0x40 DUP3 ADD SWAP1 POP DUP2 DUP2 SUB PUSH0 DUP4 ADD MSTORE PUSH2 0x1911 DUP2 DUP6 PUSH2 0x1878 JUMP JUMPDEST SWAP1 POP PUSH2 0x1920 PUSH1 0x20 DUP4 ADD DUP5 PUSH2 0x10FC JUMP JUMPDEST SWAP4 SWAP3 POP POP POP JUMP JUMPDEST PUSH32 0x596F75206861766520766F74656420616C726561647900000000000000000000 PUSH0 DUP3 ADD MSTORE POP JUMP JUMPDEST PUSH0 PUSH2 0x195B PUSH1 0x16 DUP4 PUSH2 0x112E JUMP JUMPDEST SWAP2 POP PUSH2 0x1966 DUP3 PUSH2 0x1927 JUMP JUMPDEST PUSH1 0x20 DUP3 ADD SWAP1 POP SWAP2 SWAP1 POP JUMP JUMPDEST PUSH0 PUSH1 0x20 DUP3 ADD SWAP1 POP DUP2 DUP2 SUB PUSH0 DUP4 ADD MSTORE PUSH2 0x1988 DUP2 PUSH2 0x194F JUMP JUMPDEST SWAP1 POP SWAP2 SWAP1 POP JUMP JUMPDEST PUSH32 0x596F7520686176652063686F6F73656E2077726F6E672063616E646964617465 PUSH0 DUP3 ADD MSTORE POP JUMP JUMPDEST PUSH0 PUSH2 0x19C3 PUSH1 0x20 DUP4 PUSH2 0x112E JUMP JUMPDEST SWAP2 POP PUSH2 0x19CE DUP3 PUSH2 0x198F JUMP JUMPDEST PUSH1 0x20 DUP3 ADD SWAP1 POP SWAP2 SWAP1 POP JUMP JUMPDEST PUSH0 PUSH1 0x20 DUP3 ADD SWAP1 POP DUP2 DUP2 SUB PUSH0 DUP4 ADD MSTORE PUSH2 0x19F0 DUP2 PUSH2 0x19B7 JUMP JUMPDEST SWAP1 POP SWAP2 SWAP1 POP JUMP INVALID LOG2 PUSH5 0x6970667358 0x22 SLT KECCAK256 0xB4 DUP9 MOD 0xCD 0x4F SWAP5 0xDB 0xB8 0xD4 PUSH15 0x184BF12C1603F58E9FFF4AAD8F52AC 0x26 0xD 0xD1 SIGNEXTEND SLT CODECOPY 0x4B PUSH5 0x736F6C6343 STOP ADDMOD BYTE STOP CALLER "
				},
				"gasEstimates": {
					"creation": {
						"codeDepositCost": "1340200",
						"executionCost": "25660",
						"totalCost": "1365860"
					},
					"external": {
						"addCandidate(uint256,string)": "infinite",
						"admin()": "2593",
						"createElection(string,uint256)": "infinite",
						"electionCount()": "2447",
						"elections(uint256)": "infinite",
						"endElection(uint256)": "infinite",
						"getCandidate(uint256,uint256)": "infinite",
						"getTotalVotes(uint256)": "infinite",
						"getWinner(uint256)": "infinite",
						"vote(uint256,uint256)": "infinite"
					}
				},
				"methodIdentifiers": {
					"addCandidate(uint256,string)": "1750a3d0",
					"admin()": "f851a440",
					"createElection(string,uint256)": "432cf2ce",
					"electionCount()": "997d2830",
					"elections(uint256)": "5e6fef01",
					"endElection(uint256)": "9c98bcbb",
					"getCandidate(uint256,uint256)": "4bd46448",
					"getTotalVotes(uint256)": "2ce35e11",
					"getWinner(uint256)": "4129b2c9",
					"vote(uint256,uint256)": "b384abef"
				}
			},
			"storageLayout": {
				"storage": [
					{
						"astId": 32,
						"contract": "contracts/Voting.sol:Voting",
						"label": "admin",
						"offset": 0,
						"slot": "0",
						"type": "t_address"
					},
					{
						"astId": 34,
						"contract": "contracts/Voting.sol:Voting",
						"label": "electionCount",
						"offset": 0,
						"slot": "1",
						"type": "t_uint256"
					},
					{
						"astId": 39,
						"contract": "contracts/Voting.sol:Voting",
						"label": "elections",
						"offset": 0,
						"slot": "2",
						"type": "t_mapping(t_uint256,t_struct(Election)30_storage)"
					}
				],
				"types": {
					"t_address": {
						"encoding": "inplace",
						"label": "address",
						"numberOfBytes": "20"
					},
					"t_bool": {
						"encoding": "inplace",
						"label": "bool",
						"numberOfBytes": "1"
					},
					"t_mapping(t_address,t_bool)": {
						"encoding": "mapping",
						"key": "t_address",
						"label": "mapping(address => bool)",
						"numberOfBytes": "32",
						"value": "t_bool"
					},
					"t_mapping(t_uint256,t_struct(Candidate)8_storage)": {
						"encoding": "mapping",
						"key": "t_uint256",
						"label": "mapping(uint256 => struct Voting.Candidate)",
						"numberOfBytes": "32",
						"value": "t_struct(Candidate)8_storage"
					},
					"t_mapping(t_uint256,t_struct(Election)30_storage)": {
						"encoding": "mapping",
						"key": "t_uint256",
						"label": "mapping(uint256 => struct Voting.Election)",
						"numberOfBytes": "32",
						"value": "t_struct(Election)30_storage"
					},
					"t_string_storage": {
						"encoding": "bytes",
						"label": "string",
						"numberOfBytes": "32"
					},
					"t_struct(Candidate)8_storage": {
						"encoding": "inplace",
						"label": "struct Voting.Candidate",
						"members": [
							{
								"astId": 3,
								"contract": "contracts/Voting.sol:Voting",
								"label": "id",
								"offset": 0,
								"slot": "0",
								"type": "t_uint256"
							},
							{
								"astId": 5,
								"contract": "contracts/Voting.sol:Voting",
								"label": "name",
								"offset": 0,
								"slot": "1",
								"type": "t_string_storage"
							},
							{
								"astId": 7,
								"contract": "contracts/Voting.sol:Voting",
								"label": "voteCount",
								"offset": 0,
								"slot": "2",
								"type": "t_uint256"
							}
						],
						"numberOfBytes": "96"
					},
					"t_struct(Election)30_storage": {
						"encoding": "inplace",
						"label": "struct Voting.Election",
						"members": [
							{
								"astId": 10,
								"contract": "contracts/Voting.sol:Voting",
								"label": "id",
								"offset": 0,
								"slot": "0",
								"type": "t_uint256"
							},
							{
								"astId": 12,
								"contract": "contracts/Voting.sol:Voting",
								"label": "name",
								"offset": 0,
								"slot": "1",
								"type": "t_string_storage"
							},
							{
								"astId": 14,
								"contract": "contracts/Voting.sol:Voting",
								"label": "isActive",
								"offset": 0,
								"slot": "2",
								"type": "t_bool"
							},
							{
								"astId": 16,
								"contract": "contracts/Voting.sol:Voting",
								"label": "endTime",
								"offset": 0,
								"slot": "3",
								"type": "t_uint256"
							},
							{
								"astId": 21,
								"contract": "contracts/Voting.sol:Voting",
								"label": "candidates",
								"offset": 0,
								"slot": "4",
								"type": "t_mapping(t_uint256,t_struct(Candidate)8_storage)"
							},
							{
								"astId": 23,
								"contract": "contracts/Voting.sol:Voting",
								"label": "candidateCount",
								"offset": 0,
								"slot": "5",
								"type": "t_uint256"
							},
							{
								"astId": 27,
								"contract": "contracts/Voting.sol:Voting",
								"label": "hasVoted",
								"offset": 0,
								"slot": "6",
								"type": "t_mapping(t_address,t_bool)"
							},
							{
								"astId": 29,
								"contract": "contracts/Voting.sol:Voting",
								"label": "totalVotes",
								"offset": 0,
								"slot": "7",
								"type": "t_uint256"
							}
						],
						"numberOfBytes": "256"
					},
					"t_uint256": {
						"encoding": "inplace",
						"label": "uint256",
						"numberOfBytes": "32"
					}
				}
			},
			"userdoc": {
				"kind": "user",
				"methods": {},
				"version": 1
			}
		}
	}
}