{
	"contracts/event.sol": {
		"Event": {
			"abi": [
				{
					"anonymous": false,
					"inputs": [
						{
							"indexed": true,
							"internalType": "address",
							"name": "sender",
							"type": "address"
						},
						{
							"indexed": false,
							"internalType": "string",
							"name": "message",
							"type": "string"
						}
					],
					"name": "Log",
					"type": "event"
				},
				{
					"inputs": [],
					"name": "showEvent",
					"outputs": [],
					"stateMutability": "nonpayable",
					"type": "function"
				}
			],
			"devdoc": {
				"kind": "dev",
				"methods": {},
				"version": 1
			},
			"evm": {
				"assembly": "    /* \"contracts/event.sol\":178:410  contract Event{... */\n  mstore(0x40, 0x80)\n  callvalue\n  dup1\n  iszero\n  tag_1\n  jumpi\n  0x00\n  dup1\n  revert\ntag_1:\n  pop\n  dataSize(sub_0)\n  dup1\n  dataOffset(sub_0)\n  0x00\n  codecopy\n  0x00\n  return\nstop\n\nsub_0: assembly {\n        /* \"contracts/event.sol\":178:410  contract Event{... */\n      mstore(0x40, 0x80)\n      callvalue\n      dup1\n      iszero\n      tag_1\n      jumpi\n      0x00\n      dup1\n      revert\n    tag_1:\n      pop\n      jumpi(tag_2, lt(calldatasize, 0x04))\n      shr(0xe0, calldataload(0x00))\n      dup1\n      0x5affc404\n      eq\n      tag_3\n      jumpi\n    tag_2:\n      0x00\n      dup1\n      revert\n        /* \"contracts/event.sol\":257:403  function showEvent() public {... */\n    tag_3:\n      tag_4\n      tag_5\n      jump\t// in\n    tag_4:\n      stop\n    tag_5:\n        /* \"contracts/event.sol\":305:315  msg.sender */\n      caller\n        /* \"contracts/event.sol\":301:333  Log(msg.sender, \"Helly Martian\") */\n      0xffffffffffffffffffffffffffffffffffffffff\n      and\n      0x0738f4da267a110d810e6e89fc59e46be6de0c37b1d5cd559b267dc3688e74e0\n      mload(0x40)\n      tag_7\n      swap1\n      tag_8\n      jump\t// in\n    tag_7:\n      mload(0x40)\n      dup1\n      swap2\n      sub\n      swap1\n      log2\n        /* \"contracts/event.sol\":353:363  msg.sender */\n      caller\n        /* \"contracts/event.sol\":349:395  Log(msg.sender, \"Welcome to Proxima Centurai\") */\n      0xffffffffffffffffffffffffffffffffffffffff\n      and\n      0x0738f4da267a110d810e6e89fc59e46be6de0c37b1d5cd559b267dc3688e74e0\n      mload(0x40)\n      tag_9\n      swap1\n      tag_10\n      jump\t// in\n    tag_9:\n      mload(0x40)\n      dup1\n      swap2\n      sub\n      swap1\n      log2\n        /* \"contracts/event.sol\":257:403  function showEvent() public {... */\n      jump\t// out\n        /* \"#utility.yul\":7:176   */\n    tag_11:\n        /* \"#utility.yul\":91:102   */\n      0x00\n        /* \"#utility.yul\":125:131   */\n      dup3\n        /* \"#utility.yul\":120:123   */\n      dup3\n        /* \"#utility.yul\":113:132   */\n      mstore\n        /* \"#utility.yul\":165:169   */\n      0x20\n        /* \"#utility.yul\":160:163   */\n      dup3\n        /* \"#utility.yul\":156:170   */\n      add\n        /* \"#utility.yul\":141:170   */\n      swap1\n      pop\n        /* \"#utility.yul\":7:176   */\n      swap3\n      swap2\n      pop\n      pop\n      jump\t// out\n        /* \"#utility.yul\":182:345   */\n    tag_12:\n        /* \"#utility.yul\":322:337   */\n      0x48656c6c79204d61727469616e00000000000000000000000000000000000000\n        /* \"#utility.yul\":318:319   */\n      0x00\n        /* \"#utility.yul\":310:316   */\n      dup3\n        /* \"#utility.yul\":306:320   */\n      add\n        /* \"#utility.yul\":299:338   */\n      mstore\n        /* \"#utility.yul\":182:345   */\n      pop\n      jump\t// out\n        /* \"#utility.yul\":351:717   */\n    tag_13:\n        /* \"#utility.yul\":493:496   */\n      0x00\n        /* \"#utility.yul\":514:581   */\n      tag_20\n        /* \"#utility.yul\":578:580   */\n      0x0d\n        /* \"#utility.yul\":573:576   */\n      dup4\n        /* \"#utility.yul\":514:581   */\n      tag_11\n      jump\t// in\n    tag_20:\n        /* \"#utility.yul\":507:581   */\n      swap2\n      pop\n        /* \"#utility.yul\":590:683   */\n      tag_21\n        /* \"#utility.yul\":679:682   */\n      dup3\n        /* \"#utility.yul\":590:683   */\n      tag_12\n      jump\t// in\n    tag_21:\n        /* \"#utility.yul\":708:710   */\n      0x20\n        /* \"#utility.yul\":703:706   */\n      dup3\n        /* \"#utility.yul\":699:711   */\n      add\n        /* \"#utility.yul\":692:711   */\n      swap1\n      pop\n        /* \"#utility.yul\":351:717   */\n      swap2\n      swap1\n      pop\n      jump\t// out\n        /* \"#utility.yul\":723:1142   */\n    tag_8:\n        /* \"#utility.yul\":889:893   */\n      0x00\n        /* \"#utility.yul\":927:929   */\n      0x20\n        /* \"#utility.yul\":916:925   */\n      dup3\n        /* \"#utility.yul\":912:930   */\n      add\n        /* \"#utility.yul\":904:930   */\n      swap1\n      pop\n        /* \"#utility.yul\":976:985   */\n      dup2\n        /* \"#utility.yul\":970:974   */\n      dup2\n        /* \"#utility.yul\":966:986   */\n      sub\n        /* \"#utility.yul\":962:963   */\n      0x00\n        /* \"#utility.yul\":951:960   */\n      dup4\n        /* \"#utility.yul\":947:964   */\n      add\n        /* \"#utility.yul\":940:987   */\n      mstore\n        /* \"#utility.yul\":1004:1135   */\n      tag_23\n        /* \"#utility.yul\":1130:1134   */\n      dup2\n        /* \"#utility.yul\":1004:1135   */\n      tag_13\n      jump\t// in\n    tag_23:\n        /* \"#utility.yul\":996:1135   */\n      swap1\n      pop\n        /* \"#utility.yul\":723:1142   */\n      swap2\n      swap1\n      pop\n      jump\t// out\n        /* \"#utility.yul\":1148:1325   */\n    tag_14:\n        /* \"#utility.yul\":1288:1317   */\n      0x57656c636f6d6520746f2050726f78696d612043656e74757261690000000000\n        /* \"#utility.yul\":1284:1285   */\n      0x00\n        /* \"#utility.yul\":1276:1282   */\n      dup3\n        /* \"#utility.yul\":1272:1286   */\n      add\n        /* \"#utility.yul\":1265:1318   */\n      mstore\n        /* \"#utility.yul\":1148:1325   */\n      pop\n      jump\t// out\n        /* \"#utility.yul\":1331:1697   */\n    tag_15:\n        /* \"#utility.yul\":1473:1476   */\n      0x00\n        /* \"#utility.yul\":1494:1561   */\n      tag_26\n        /* \"#utility.yul\":1558:1560   */\n      0x1b\n        /* \"#utility.yul\":1553:1556   */\n      dup4\n        /* \"#utility.yul\":1494:1561   */\n      tag_11\n      jump\t// in\n    tag_26:\n        /* \"#utility.yul\":1487:1561   */\n      swap2\n      pop\n        /* \"#utility.yul\":1570:1663   */\n      tag_27\n        /* \"#utility.yul\":1659:1662   */\n      dup3\n        /* \"#utility.yul\":1570:1663   */\n      tag_14\n      jump\t// in\n    tag_27:\n        /* \"#utility.yul\":1688:1690   */\n      0x20\n        /* \"#utility.yul\":1683:1686   */\n      dup3\n        /* \"#utility.yul\":1679:1691   */\n      add\n        /* \"#utility.yul\":1672:1691   */\n      swap1\n      pop\n        /* \"#utility.yul\":1331:1697   */\n      swap2\n      swap1\n      pop\n      jump\t// out\n        /* \"#utility.yul\":1703:2122   */\n    tag_10:\n        /* \"#utility.yul\":1869:1873   */\n      0x00\n        /* \"#utility.yul\":1907:1909   */\n      0x20\n        /* \"#utility.yul\":1896:1905   */\n      dup3\n        /* \"#utility.yul\":1892:1910   */\n      add\n        /* \"#utility.yul\":1884:1910   */\n      swap1\n      pop\n        /* \"#utility.yul\":1956:1965   */\n      dup2\n        /* \"#utility.yul\":1950:1954   */\n      dup2\n        /* \"#utility.yul\":1946:1966   */\n      sub\n        /* \"#utility.yul\":1942:1943   */\n      0x00\n        /* \"#utility.yul\":1931:1940   */\n      dup4\n        /* \"#utility.yul\":1927:1944   */\n      add\n        /* \"#utility.yul\":1920:1967   */\n      mstore\n        /* \"#utility.yul\":1984:2115   */\n      tag_29\n        /* \"#utility.yul\":2110:2114   */\n      dup2\n        /* \"#utility.yul\":1984:2115   */\n      tag_15\n      jump\t// in\n    tag_29:\n        /* \"#utility.yul\":1976:2115   */\n      swap1\n      pop\n        /* \"#utility.yul\":1703:2122   */\n      swap2\n      swap1\n      pop\n      jump\t// out\n\n    auxdata: 0xa2646970667358221220fd17c2edc5a63c653411db9983164a6c5029ee21122243c705cf028d90981bbc64736f6c634300081a0033\n}\n",
				"bytecode": {
					"linkReferences": {},
					"object": "6080604052348015600e575f80fd5b506101e78061001c5f395ff3fe608060405234801561000f575f80fd5b5060043610610029575f3560e01c80635affc4041461002d575b5f80fd5b610035610037565b005b3373ffffffffffffffffffffffffffffffffffffffff167f0738f4da267a110d810e6e89fc59e46be6de0c37b1d5cd559b267dc3688e74e060405161007b9061012b565b60405180910390a23373ffffffffffffffffffffffffffffffffffffffff167f0738f4da267a110d810e6e89fc59e46be6de0c37b1d5cd559b267dc3688e74e06040516100c790610193565b60405180910390a2565b5f82825260208201905092915050565b7f48656c6c79204d61727469616e000000000000000000000000000000000000005f82015250565b5f610115600d836100d1565b9150610120826100e1565b602082019050919050565b5f6020820190508181035f83015261014281610109565b9050919050565b7f57656c636f6d6520746f2050726f78696d612043656e747572616900000000005f82015250565b5f61017d601b836100d1565b915061018882610149565b602082019050919050565b5f6020820190508181035f8301526101aa81610171565b905091905056fea2646970667358221220fd17c2edc5a63c653411db9983164a6c5029ee21122243c705cf028d90981bbc64736f6c634300081a0033",
					"opcodes": "PUSH1 0x80 PUSH1 0x40 MSTORE CALLVALUE DUP1 ISZERO PUSH1 0xE JUMPI PUSH0 DUP1 REVERT JUMPDEST POP PUSH2 0x1E7 DUP1 PUSH2 0x1C PUSH0 CODECOPY PUSH0 RETURN INVALID PUSH1 0x80 PUSH1 0x40 MSTORE CALLVALUE DUP1 ISZERO PUSH2 0xF JUMPI PUSH0 DUP1 REVERT JUMPDEST POP PUSH1 0x4 CALLDATASIZE LT PUSH2 0x29 JUMPI PUSH0 CALLDATALOAD PUSH1 0xE0 SHR DUP1 PUSH4 0x5AFFC404 EQ PUSH2 0x2D JUMPI JUMPDEST PUSH0 DUP1 REVERT JUMPDEST PUSH2 0x35 PUSH2 0x37 JUMP JUMPDEST STOP JUMPDEST CALLER PUSH20 0xFFFFFFFFFFFFFFFFFFFFFFFFFFFFFFFFFFFFFFFF AND PUSH32 0x738F4DA267A110D810E6E89FC59E46BE6DE0C37B1D5CD559B267DC3688E74E0 PUSH1 0x40 MLOAD PUSH2 0x7B SWAP1 PUSH2 0x12B JUMP JUMPDEST PUSH1 0x40 MLOAD DUP1 SWAP2 SUB SWAP1 LOG2 CALLER PUSH20 0xFFFFFFFFFFFFFFFFFFFFFFFFFFFFFFFFFFFFFFFF AND PUSH32 0x738F4DA267A110D810E6E89FC59E46BE6DE0C37B1D5CD559B267DC3688E74E0 PUSH1 0x40 MLOAD PUSH2 0xC7 SWAP1 PUSH2 0x193 JUMP JUMPDEST PUSH1 0x40 MLOAD DUP1 SWAP2 SUB SWAP1 LOG2 JUMP JUMPDEST PUSH0 DUP3 DUP3 MSTORE PUSH1 0x20 DUP3 ADD SWAP1 POP SWAP3 SWAP2 POP POP JUMP JUMPDEST PUSH32 0x48656C6C79204D61727469616E00000000000000000000000000000000000000 PUSH0 DUP3 ADD MSTORE POP JUMP JUMPDEST PUSH0 PUSH2 0x115 PUSH1 0xD DUP4 PUSH2 0xD1 JUMP JUMPDEST SWAP2 POP PUSH2 0x120 DUP3 PUSH2 0xE1 JUMP JUMPDEST PUSH1 0x20 DUP3 ADD SWAP1 POP SWAP2 SWAP1 POP JUMP JUMPDEST PUSH0 PUSH1 0x20 DUP3 ADD SWAP1 POP DUP2 DUP2 SUB PUSH0 DUP4 ADD MSTORE PUSH2 0x142 DUP2 PUSH2 0x109 JUMP JUMPDEST SWAP1 POP SWAP2 SWAP1 POP JUMP JUMPDEST PUSH32 0x57656C636F6D6520746F2050726F78696D612043656E74757261690000000000 PUSH0 DUP3 ADD MSTORE POP JUMP JUMPDEST PUSH0 PUSH2 0x17D PUSH1 0x1B DUP4 PUSH2 0xD1 JUMP JUMPDEST SWAP2 POP PUSH2 0x188 DUP3 PUSH2 0x149 JUMP JUMPDEST PUSH1 0x20 DUP3 ADD SWAP1 POP SWAP2 SWAP1 POP JUMP JUMPDEST PUSH0 PUSH1 0x20 DUP3 ADD SWAP1 POP DUP2 DUP2 SUB PUSH0 DUP4 ADD MSTORE PUSH2 0x1AA DUP2 PUSH2 0x171 JUMP JUMPDEST SWAP1 POP SWAP2 SWAP1 POP JUMP INVALID LOG2 PUSH5 0x6970667358 0x22 SLT KECCAK256 REVERT OR 0xC2 0xED 0xC5 0xA6 EXTCODECOPY PUSH6 0x3411DB998316 BLOBBASEFEE PUSH13 0x5029EE21122243C705CF028D90 SWAP9 SHL 0xBC PUSH5 0x736F6C6343 STOP ADDMOD BYTE STOP CALLER "
				},
				"gasEstimates": {
					"creation": {
						"codeDepositCost": "97400",
						"executionCost": "145",
						"totalCost": "97545"
					},
					"external": {
						"showEvent()": "infinite"
					}
				},
				"methodIdentifiers": {
					"showEvent()": "5affc404"
				}
			},
			"storageLayout": {
				"storage": [],
				"types": null
			},
			"userdoc": {
				"kind": "user",
				"methods": {},
				"version": 1
			}
		}
	}
}